:020000040000FA
:100000000C9458000C9480000C9480000C946C0BA1
:100010000C946C0B0C946C0B0C9480000C94800072
:100020000C9480000C9480000C9480000C94800050
:100030000C9480000C9480000C9480000C94800040
:100040000C94070A0C9480000C94D5090C94AF0909
:100050000C9480000C9480000C9480000C94800020
:100060000C94510A0C948000000000002500280028
:100070002B00040404040404040402020202020229
:10008000030303030303010204081020408001025C
:1000900004081020010204081020000000080002DB
:1000A0000100000304070000000000000000760BC0
:1000B00011241FBECFEFD8E0DEBFCDBF24E0A2E207
:1000C000B1E001C01D92AF3DB207E1F711E0A0E041
:1000D000B1E0EAEAF8E102C005900D92A232B10760
:1000E000D9F710E0C8E5D0E004C02197FE010E94D6
:1000F0004D0CC735D107C9F70E94FF0B0C94530C68
:100100000C940000AF92BF92CF92DF92EF92FF92D9
:100110000F931F93CF93DF936C017B018B01040F2F
:10012000151FEB015E01AE18BF08C017D10759F0CB
:100130006991D601ED91FC910190F081E02DC6010D
:100140000995892B79F7C501DF91CF911F910F9107
:10015000FF90EF90DF90CF90BF90AF900895FC019B
:10016000538D448D252F30E0842F90E0821B930B1C
:10017000541710F0CF96089501970895FC01918DC2
:10018000828D981761F0A28DAE0FBF2FB11D5D96C5
:100190008C91928D9F5F9F73928F90E008958FEF67
:1001A0009FEF0895FC01918D828D981731F0828D1B
:1001B000E80FF11D858D90E008958FEF9FEF089572
:1001C000FC01918D228D892F90E0805C9F4F821BD6
:1001D00091098F739927089584EA93E00E94E000C3
:1001E00021E0892B09F420E0822F089580E090E03F
:1001F000892B29F00E94EC0081110C9400000895D5
:10020000FC01A48DA80FB92FB11DA35ABF4F2C918B
:10021000848D90E001968F739927848FA689B78982
:100220002C93A089B1898C91837080648C93938D79
:10023000848D981306C00288F389E02D80818F7D1C
:1002400080830895EF92FF920F931F93CF93DF93D4
:10025000EC0181E0888F9B8D8C8D98131AC0E88902
:10026000F989808185FF15C09FB7F894EE89FF89D1
:100270006083E889F98980818370806480839FBF6F
:1002800081E090E0DF91CF911F910F91FF90EF906F
:100290000895F62E0B8D10E00F5F1F4F0F7311277F
:1002A000E02E8C8D8E110CC00FB607FCFACFE889BA
:1002B000F989808185FFF5CFCE010E940001F1CF41
:1002C000EB8DEC0FFD2FF11DE35AFF4FF0829FB72E
:1002D000F8940B8FEA89FB8980818062CFCFCF931E
:1002E000DF93EC01888D8823B9F0AA89BB89E8895E
:1002F000F9898C9185FD03C0808186FD0DC00FB604
:1003000007FCF7CF8C9185FFF2CF808185FFEDCF81
:10031000CE010E940001E9CFDF91CF91089590E0D6
:10032000FC01E656FF4F2491FC01EA57FF4F349140
:10033000FC01EE58FF4FE491EE23C9F0222339F07F
:10034000233001F1A8F4213019F1223029F1F0E035
:10035000EE0FFF1FE859FF4FA591B4918FB7F894A6
:10036000EC91611126C030953E233C938FBF0895D8
:100370002730A9F02830C9F0243049F78091800057
:100380008F7D03C0809180008F7780938000DFCFC6
:1003900084B58F7784BDDBCF84B58F7DFBCF809113
:1003A000B0008F778093B000D2CF8091B0008F7D66
:1003B000F9CF3E2BDACF20915103260F3327331F7D
:1003C00021323105ECF420917503FC0190E080E0CE
:1003D000243069F082E00895A09151032191AC018D
:1003E0004F5C5C4FA40FB52FB11D2C93019686175F
:1003F00098F380915103680F6093510380E0089552
:1004000081E0089508958FEF9FEF08958FEF9FEF9C
:10041000089580912A0390E091958195910908951E
:10042000CF93DF93CB01EA01642F0E94DB01CE0161
:10043000DF91CF910895CF93DF931F92CDB7DEB7B1
:10044000698361E0CE0101960E94DB0181E090E0CA
:100450000F90DF91CF91089590E080E00895209172
:100460002201211109C021E0209322013091410491
:10047000209142043CBD2DBD60E0FC0184810C94C0
:100480008F0161E0FC0184810E948F018091220133
:1004900081111092220108958EBD00000DB407FE57
:1004A000FDCF8EB508958FEF0C944C020F931F93E0
:1004B000CF93DF938C012FB7F8948091A003909194
:1004C000A103A091A203B091A3032FBFEC010E944E
:1004D00053028F3FB1F02FB7F8948091A003909111
:1004E000A103A091A203B091A3032FBF8C1B9D0B6E
:1004F0008017910760F380E0DF91CF911F910F91FA
:10050000089581E0F9CFCF92DF92EF92FF920F939F
:100510001F93CF93DF93EC01162F69017A018E812F
:10052000882389F08F8198859C012F5F3F4F388702
:100530002F838230924018F40E945302F3CFCE01F1
:100540000E9441021E82CE010E942F028CE291E0A5
:100550000E945602812F80640E944C0208E110E044
:10056000D701C601002E04C0B695A795979587952B
:100570000A94D2F70E944C0208501109083F8FEFED
:10058000180771F78FEF0E944C0210E00E9453028F
:100590008A8787FF04C01F3F11F01F5FF7CFDF91ED
:1005A000CF911F910F91FF90EF90DF90CF90089522
:1005B000CF92DF92EF92FF920F93CF93DF93EC01F4
:1005C000690182E1411551056105710599F08B853D
:1005D000833039F089E0440F551F661F771F8A95D5
:1005E000D1F79A01AB0168E1CE010E948302882312
:1005F00019F084E08D832DC08EEF0E944C027601AD
:100600008EEFD81AF70181917F010E944C02EC1401
:10061000FD04C1F78FEF0E944C028FEF0E944C0245
:100620000E9453028A878F71853071F4011116C0C0
:10063000CE010E94410281E0DF91CF910F91FF90A6
:10064000EF90DF90CF90089581E18D83CE010E94DD
:100650004102CE010E94410280E0EECF88E592E0A7
:100660000E945602811102C085E1C4CF20E030E033
:10067000A9016DE0CE010E948302882311F084E17C
:10068000B9CF0E9453028111FACFD2CF0F9340917C
:100690002401509125016091260170912701411597
:1006A00051056105710589F0082F28E231E090E0DD
:1006B00080E00E94D802882349F010922401109211
:1006C0002501109226011092270181E00F910895D3
:1006D0000F93CF93C82F80912301811105C0C1E0F2
:1006E0008C2FCF910F9108954091000150910101FD
:1006F00060910201709103010C2F28E231E090E03B
:1007000080E00E94D802811102C0C0E0E9CFCC2372
:1007100031F381E00E9446038823B9F3109223014C
:10072000DFCFAF92BF92CF92DF92EF92FF921F93F3
:10073000CF93DF936B017C01142F80910001909186
:100740000101A0910201B09103018C159D05AE0538
:10075000BF0509F4BFC081E00E9468038823E1F16E
:10076000809106008823A1F0809100009091010003
:10077000A0910200B0910300C816D906EA06FB0654
:1007800039F48091070090910800892B09F461C029
:10079000C0920000D0920100E0920200F0920300AB
:1007A00080910B00A7019601833039F099E0220F68
:1007B000331F441F551F9A95D1F761E190E080E007
:1007C0000E948302882391F083E08093050090E0EB
:1007D00080E00E94410280E0DF91CF911F91FF9065
:1007E000EF90DF90CF90BF90AF9008952FB7F8941F
:1007F0008091A0039091A103A091A203B091A303C3
:100800002FBFEC010E94530280930A008F3FC1F476
:100810002FB7F8948091A0039091A103A091A20317
:10082000B091A3032FBF8C1B9D0B8D32914050F3D1
:100830008FE08093050090E080E00E944102C7CFE6
:100840008E3FC1F5109208001092070081E080935E
:100850000600C8E2D1E088E2A82E83E0B82E0E940C
:1008600053028993AC16BD06D1F780910700909191
:1008700008009E5F90930800809307002091090074
:10088000222319F081159240E8F080910600882318
:10089000C9F080910700909108009C012F5F3F4FA5
:1008A00030930800209307008230924028F40E9481
:1008B0005302EFCF8DE0BDCF90E080E00E94410277
:1008C00010920600C0920001D0920101E092020154
:1008D000F092030140912301412B4093230181E0D9
:1008E0007BCF4F925F926F927F928F929F92AF9247
:1008F000BF92CF92DF92EF92FF920F931F93CF930D
:10090000DF93EC01423051056105710590F480E000
:10091000DF91CF911F910F91FF90EF90DF90CF90DB
:10092000BF90AF909F908F907F906F905F904F900F
:10093000089589859A85AB85BC850196A11DB11D59
:1009400084179507A607B70710F3CB88DC88ED88D6
:10095000FE888F89803109F042C0BB27A72F962FD0
:10096000852F480159012A013B01C80ED91EEA1EF4
:10097000FB1E8091000190910101A0910201B091B4
:100980000301C816D906EA06FB0699F58F8980315E
:10099000C1F5B301A201552766277727440F551FDC
:1009A000485D5E4FFA0191828082809123018160CF
:1009B000809323018A89823080F08D819E81AF816E
:1009C000B8858C0D9D1DAE1DBF1D80932401909395
:1009D0002501A0932601B093270181E099CFDB0187
:1009E000CA01E7E0B695A79597958795EA95D1F75F
:1009F000B8CF40E0C701B6010E9491038111C6CF74
:100A000086CFB301A2014F77552766277727440F7A
:100A1000551F440F551F485D5E4FFA018082918239
:100A2000A282B382C2CF8F929F92AF92BF92CF9297
:100A3000DF92EF92FF920F931F93CF93DF93FC010E
:100A400081859285A385B4850196A11DB11D84176A
:100A50009507A607B70770F480E0DF91CF911F914B
:100A60000F91FF90EF90DF90CF90BF90AF909F904D
:100A70008F90089583889488A588B6888789803167
:100A800089F5BB27A72F962F852FE9016A017B01E6
:100A90008F01BC01CD01680D791D8A1D9B1D8090C1
:100AA000000190900101A0900201B0900301861610
:100AB0009706A806B90601F5F8018789803111F576
:100AC000DD24EE24FF24F601EE0FFF1FE85DFE4F4C
:100AD00080819181B0E0A0E088839983AA83BB8361
:100AE00081E0BBCFDB01CA01C7E0B695A79597951A
:100AF0008795CA95D1F7C9CF40E00E949103811133
:100B0000DBCFAACFE894C7F8DD24EE24FF24F6015A
:100B1000EE0FFF1FEE0FFF1FE85DFE4F80819181FA
:100B2000A281B381BF70D8CF8F929F92AF92BF92B4
:100B3000CF92DF92EF92FF920F931F93CF93DF93A9
:100B4000EC018D8181110EC080E0DF91CF911F916A
:100B50000F91FF90EF90DF90CF90BF90AF909F905C
:100B60008F9008950B891C892D893E8904171507DC
:100B70002607370748F34A015B01823031F48A8641
:100B80009B86AC86BD8681E0E0CF81149104A104F0
:100B9000B10449F41E821F82188619861A861B86A4
:100BA0001C861D86F0CF0A851B852C853D85EB8D27
:100BB000FC8D858590E00996B901A8014150510945
:100BC00061097109082E04C0769567955795479578
:100BD0000A94D2F775016401E1E0CE1AD108E10868
:100BE000F10804C0F694E794D794C7948A95D2F795
:100BF000C416D506E606F70620F0012B022B032BC0
:100C000011F58F89988DA98DBA8D8E839F83A887C2
:100C1000B9878E010A5F1F4FC114D104E104F104AA
:100C200009F4ADCF4E815F816885798598018B8D00
:100C30009C8D0E94130591E0C91AD108E108F108C2
:100C40008111EACF81CFC41AD50AE60AF70AE1CFAB
:100C50003F924F925F926F927F928F929F92AF924C
:100C6000BF92CF92DF92EF92FF920F931F93CF9399
:100C7000DF93CDB7DEB72C970FB6F894DEBF0FBE6B
:100C8000CDBF5C01DC015B968D909C905C971696C5
:100C90004D905D906D907C901997411451046104C2
:100CA000710409F468C0BFEF4B1A5B0A6B0A7B0A38
:100CB000312CF40181859285A385B4859C01AD0119
:100CC0002F5F3F4F4F4F5F4F29873A874B875C8796
:100CD000730162011D821E821F821886F4018185C4
:100CE0009285A385B4852D813E814F815885281733
:100CF00039074A075B0708F056C089859A85AB8596
:100D0000BC858C159D05AE05BF0550F482E0C82E4C
:100D1000D12CE12CF12C92E0492E512C612C712C1C
:100D20009E012F5F3F4FB701A601C4010E9413052A
:100D30008823C9F189819A81AB81BC81892B8A2B57
:100D40008B2B09F1260137019FEF491A590A690ACD
:100D5000790A2D813E814F8158852F5F3F4F4F4F3C
:100D60005F4F2D833E834F8358873FEFC31AD30ACB
:100D7000E30AF30AB3CFF4014080518062807380AC
:100D80003324339496CFC414D504E604F70409F74A
:100D90000FEF1FEF2FEF3FE0B701A601C4010E9444
:100DA0007104811119C080E02C960FB6F894DEBF53
:100DB0000FBECDBFDF91CF911F910F91FF90EF90AC
:100DC000DF90CF90BF90AF909F908F907F906F906B
:100DD0005F904F903F900895D50116964D915D918B
:100DE0006D917C911997411551056105710539F097
:100DF00097018601C4010E9471048823A1F2D501E4
:100E00001696CD92DD92ED92FC921997332051F017
:100E1000D701C6010196A11DB11DF4018083918304
:100E2000A283B383F5018789908DA18DB28D892B23
:100E30008A2B8B2B39F48481C78AD08EE18EF28E77
:100E400080688483F50184818062848381E0ACCFF3
:100E50001F93CF93DF93EC01162F8C8187FF2AC05D
:100E60006E857F858889998941E00E949103882356
:100E700061F1EA8980E2E89FF0011124E85DFE4F0C
:100E8000309719F18D81823040F48B899C89AD892E
:100E9000BE89848F958FA68FB78F8F89988D938FFA
:100EA000828F8F89988DA98DBA8DB58BA48B8C81FB
:100EB0008F778C83111103C08C818F7E8C83812F5F
:100EC000DF91CF911F910C94680380E0DF91CF9167
:100ED0001F9108951F93CF93DF93EC018D81813093
:100EE00031F090E080E0DF91CF911F9108958C81E7
:100EF00081FFF7CF82FD1BC090E080E00E942F02AF
:100F00000E945302182F90E080E00E9441021F3F90
:100F100041F78C8185FF1EC08D81882321F060E020
:100F2000CE010E9428078C818F7D8C83DACF4B897C
:100F30005C896D897E898A859B85AC85BD85841792
:100F40009507A607B707C1F2CE010E94940581114B
:100F5000D3CFC7CF40912401509125016091260144
:100F600070912701452B462B472B21F080E00E94F2
:100F70004603B7CF80618C832A853B85317080E042
:100F800092E0821B930BAFCF9F92AF92BF92CF9212
:100F9000DF92EF92FF920F931F93CF93DF9300D0D6
:100FA00000D01F92CDB7DEB78C016D83DC011596A2
:100FB0008C911597813009F0B9C014968C9181FFFE
:100FC000B5C082FD9FC0D8015B96ED91FC915C9706
:100FD0001A96AD90BD90CD90DC901D9794809A9418
:100FE000B601A50189E076956795579547958A954D
:100FF000D1F79422B1E0BB22992009F49FC0D80117
:101000005B96ED91FC915C971696CD90DD90ED90FE
:10101000FC901997B2E0CB1AD108E108F108858558
:1010200004C0CC0CDD1CEE1CFF1C8A95D2F7468553
:10103000578560897189C40ED51EE61EF71EC90C3E
:10104000D11CE11CF11CA114B10409F00AC1F80182
:10105000428553856485758583899489A589B68978
:10106000481759076A077B0708F4FBC081E00E9414
:101070006803882309F45AC0C0920001D09201018C
:10108000E0920201F092030180912301816080933C
:101090002301F501E85DFE4F8D818083F801828593
:1010A0009385A485B5850196A11DB11D828793877F
:1010B000A487B58743895489658976894817590774
:1010C0006A077B0738F42481838B948BA58BB68BBE
:1010D00020682483D80114968C9183FD9FC081E001
:1010E00090E00F900F900F900F900F90DF91CF91A5
:1010F0001F910F91FF90EF90DF90CF90BF90AF9036
:101100009F900895F801438954896589768982857D
:101110009385A485B585481759076A077B0709F4A5
:1011200052CFC8010E94940581114DCF81E090E01B
:10113000D80113969C938E93129749C0D8011696A6
:101140004D915D916D917C911997A114B10409F0B5
:1011500071C0411551056105710589F557968D914D
:101160009D910D90BC91A02D0097A105B10509F0AE
:101170004FC0C8010E9428068823C1F2D8015B969F
:10118000ED91FC915C971696CD90DD90ED90FC90E2
:101190001997B2E0CB1AD108E108F108858504C09F
:1011A000CC0CDD1CEE1CFF1C8A95D2F746855785BA
:1011B00060897189C40ED51EE61EF71E48CF9E01B8
:1011C0002F5F3F4FCF010E941305811103C090E0B4
:1011D00080E087CF89819A81AB81BC81F801238D22
:1011E000348DF901278948EF5FEF60E070E020312E
:1011F00021F048EF5FEF6FEF7FE084179507A607B8
:10120000B70730F0C8010E9428068111F8CE8ECFB2
:10121000F80186839783A087B187F1CEF801858195
:10122000882309F483CF61E0C8010E942807811157
:1012300056CF7CCF6A017B01B2E0CB1AD108E1081E
:10124000F108858504C0CC0CDD1CEE1CFF1C8A95C2
:10125000D2F74685578560897189C40ED51EE61E72
:10126000F71E41E0C701B6010E949103811111CF21
:101270005DCF08951F93CF93DF9385ED8093BC00DE
:1012800080912D0390912E03A0912F03B0913003F4
:101290000796A11DB11D23E0B695A7959795879553
:1012A0002A95D1F72091BC0024FD03C0109275034C
:1012B00052C040912D0350912E0360912F037091E5
:1012C0003003452B462B472B69F30097A105B10549
:1012D00041F02AE22A95F1F700C00197A109B1096E
:1012E000E1CF80912C03C1E0C0932B03882399F1B7
:1012F000D091B8001091BA008091BC008A7B809395
:10130000BC0060E082E10E948F0160E083E10E9406
:101310008F0110927503C09377031092760361E0FA
:1013200082E10E948F0161E083E10E948F01809140
:10133000B9008E7F8093B9008091B9008D7F809332
:10134000B90088E48093B80085E48093BC001093D2
:10135000BA00D093B800DF91CF911F9108951F92EA
:101360000F920FB60F9211242F933F934F935F93D9
:101370006F937F938F939F93AF93BF93EF93FF935D
:1013800084EA93E00E940001FF91EF91BF91AF9139
:101390009F918F917F916F915F914F913F912F918D
:1013A0000F900FBE0F901F9018951F920F920FB6BF
:1013B0000F9211242F938F939F93EF93FF93E091BC
:1013C000B403F091B5038081E091BA03F091BB03BF
:1013D00082FD1BC090818091BD038F5F8F73209130
:1013E000BE03821741F0E091BD03F0E0EC55FC4FE5
:1013F000958F8093BD03FF91EF919F918F912F91D6
:101400000F900FBE0F901F9018958081F4CF1F9200
:101410000F920FB60F9211242F933F938F939F93A8
:10142000AF93BF938091A0039091A103A091A203D9
:10143000B091A30330919F0323E0230F2D3758F57C
:101440000196A11DB11D20939F038093A00390934B
:10145000A103A093A203B093A30380919B03909157
:101460009C03A0919D03B0919E030196A11DB11D07
:1014700080939B0390939C03A0939D03B0939E0342
:10148000BF91AF919F918F913F912F910F900FBE80
:101490000F901F90189526E8230F0296A11DB11DED
:1014A000D2CF1F920F920FB60F9211242F933F931A
:1014B0004F935F936F937F938F939F93AF93BF935C
:1014C000EF93FF938091B900887F803609F44AC07A
:1014D000F0F5883209F4A5C018F5803109F499C0F7
:1014E000B8F4882309F4F5C0883009F492C0FF915C
:1014F000EF91BF91AF919F918F917F916F915F918C
:101500004F913F912F910F900FBE0F901F90189504
:10151000883109F486C0803251F78093740314C077
:10152000803409F49BC040F48033B9F38833F9F672
:101530008093740385ECAEC0803509F483C0883590
:1015400009F494C0883499F60E943A09D0CF8839BA
:1015500009F48AC038F5883729F050F4883611F03C
:10156000803729F683E0809375031092730355C08A
:10157000883809F479C0803919F0803809F0B7CF7C
:1015800080917303803208F06FC0E091730381E0B3
:101590008E0F809373038091BB00F0E0ED5AFC4FF7
:1015A00080833BC0803B39F0D0F4803A09F477C0A7
:1015B000883A09F09CCF84E080937503109252031F
:1015C00010925103F0E0E0E0099580915103811100
:1015D0000FC081E0809351031092310309C0803C19
:1015E00009F4A8CF883C09F4A5CF883B09F07FCF48
:1015F000E091520381E08E0F80935203F0E0EF5CA4
:10160000FC4F80818093BB009091520380915103E5
:1016100029C080919A038093BB0085EC8093BC0025
:1016200066CF9091990380919803981758F5E091AF
:10163000990381E08E0F80939903F0E0E858FC4F06
:101640008081E9CFE091990381E08E0F8093990327
:101650008091BB00F0E0E858FC4F808390919903A3
:10166000809198039817C8F285E8D8CFE091990344
:1016700081E08E0F809399038091BB00F0E0E858E1
:10168000FC4F80838091770381115ECF81E080934E
:10169000760384EA8093BC001092750328CF85EC12
:1016A0008093BC001092750380917303803230F4F4
:1016B000E0917303F0E0ED5AFC4F108260917303E8
:1016C00070E083E593E0F0E0E0E0099510927303A9
:1016D0000ECF1092740338CF1F920F920FB60F9255
:1016E00011240F900FBE0F901F901895CF93DF938A
:1016F000E4EAF3E01382128288EE93E0A0E0B0E027
:1017000084839583A683B78388E091E09183808367
:1017100085EC90E09587848784EC90E097878687B6
:1017200080EC90E0918B808B81EC90E0938B828BAE
:1017300082EC90E0958B848B86EC90E0978B868B87
:10174000118E128E138E148EE1E4F4E080E5808316
:101750001182E3E4F4E0158216821186138682E09A
:1017600090E0A0E0B0E084879587A687B78713A2B2
:1017700015A614A68AE191E093A782A717A6ECE824
:10178000F4E08EEF90E09183808380E590E0938396
:101790008283158214821782168281E090E09187FD
:1017A000808782E090E09387828783E090E095874E
:1017B000848784E090E09787868785E090E0918B2E
:1017C000808B80E190E0938B828B958B848B81E181
:1017D00090E0978B868B81E0868FABEAB4E082E362
:1017E000ED0119928A95E9F78BE090E0918F808F57
:1017F0008DE090E0938F828FDF91CF910895789460
:1018000084B5826084BD84B5816084BD85B5826005
:1018100085BD85B5816085BD80916E0081608093B6
:101820006E0010928100809181008260809381001F
:10183000809181008160809381008091800081602F
:10184000809380008091B10084608093B10080918A
:10185000B00081608093B00080917A0084608093B2
:101860007A0080917A00826080937A0080917A0079
:10187000816080937A0080917A00806880937A00FA
:101880001092C100C0E0D0E02097F1F30E94EC007C
:101890008823D1F30E940000F7CFEE0FFF1F0590C1
:1018A000F491E02D0994F894FFCFFFFFFFFF0000B3
:1018B000000022018200AF006F01E000BE00D200F4
:0C18C00000000000C40782006A0739091C
:107E0000112484B714BE81FFF0D085E080938100F7
:107E100082E08093C00088E18093C10086E0809377
:107E2000C20080E18093C4008EE0C9D0259A86E02C
:107E300020E33CEF91E0309385002093840096BBD3
:107E4000B09BFECF1D9AA8958150A9F7CC24DD24C4
:107E500088248394B5E0AB2EA1E19A2EF3E0BF2EE7
:107E6000A2D0813461F49FD0082FAFD0023811F036
:107E7000013811F484E001C083E08DD089C08234E0
:107E800011F484E103C0853419F485E0A6D080C0E4
:107E9000853579F488D0E82EFF2485D0082F10E0AE
:107EA000102F00270E291F29000F111F8ED06801E7
:107EB0006FC0863521F484E090D080E0DECF843638
:107EC00009F040C070D06FD0082F6DD080E0C81688
:107ED00080E7D80618F4F601B7BEE895C0E0D1E017
:107EE00062D089930C17E1F7F0E0CF16F0E7DF06D8
:107EF00018F0F601B7BEE89568D007B600FCFDCFD4
:107F0000A601A0E0B1E02C9130E011968C91119780
:107F100090E0982F8827822B932B1296FA010C0160
:107F200087BEE89511244E5F5F4FF1E0A038BF0790
:107F300051F7F601A7BEE89507B600FCFDCF97BE46
:107F4000E89526C08437B1F42ED02DD0F82E2BD052
:107F50003CD0F601EF2C8F010F5F1F4F84911BD097
:107F6000EA94F801C1F70894C11CD11CFA94CF0C13
:107F7000D11C0EC0853739F428D08EE10CD085E9AC
:107F80000AD08FE07ACF813511F488E018D01DD067
:107F900080E101D065CF982F8091C00085FFFCCF94
:107FA0009093C60008958091C00087FFFCCF809118
:107FB000C00084FD01C0A8958091C6000895E0E648
:107FC000F0E098E1908380830895EDDF803219F02E
:107FD00088E0F5DFFFCF84E1DECF1F93182FE3DFCA
:107FE0001150E9F7F2DF1F91089580E0E8DFEE27F6
:047FF000FF270994CA
:027FFE00040479
:00000001FF
