:100000000C945A000C9482000C9482000C94FB1106
:100010000C94FB110C94FB110C9482000C94D910DD
:100020000C9482000C9482000C9482000C94820048
:100030000C9482000C9482000C9482000C94820038
:100040000C94B1110C9482000C947F110C945911F2
:100050000C9482000C9482000C9482000C94820018
:100060000C9405120C94820000000000250028006A
:100070002B00040404040404040402020202020229
:10008000030303030303010204081020408001025C
:1000900004081020010204081020000000080002DB
:1000A000010000030407000000000000000002003F
:1000B0002013951911241FBECFEFD8E0DEBFCDBFAE
:1000C00011E0A0E0B1E0E4E6F8E302C005900D9293
:1000D000AC36B107D9F726E0ACE6B1E001C01D921D
:1000E000A833B207E1F710E0C9E5D0E004C02197DA
:1000F000FE010E94151AC835D107C9F70E94C31422
:100100000C94251C0C94000091E090931E048093A5
:10011000400410921F041092410408950895AF9274
:10012000BF92CF92DF92EF92FF920F931F93CF93E4
:10013000DF936C017B018B01040F151FEB015E0146
:10014000AE18BF08C017D10759F06991D601ED91DB
:10015000FC910190F081E02DC6010995892B79F77A
:10016000C501DF91CF911F910F91FF90EF90DF902C
:10017000CF90BF90AF900895FC01538D448D252FF3
:1001800030E0842F90E0821B930B541710F0CF9631
:10019000089501970895FC01918D828D981761F063
:1001A000A28DAE0FBF2FB11D5D968C91928D9F5F7A
:1001B0009F73928F90E008958FEF9FEF0895FC0159
:1001C000918D828D981731F0828DE80FF11D858D0C
:1001D00090E008958FEF9FEF0895FC01918D228D9F
:1001E000892F90E0805C9F4F821B91098F73992724
:1001F000089582E494E00E94ED0021E0892B09F447
:1002000020E0822F089580E090E0892B29F00E9461
:10021000F90081110C9400000895FC01A48DA80F31
:10022000B92FB11DA35ABF4F2C91848D90E0019638
:100230008F739927848FA689B7892C93A089B18958
:100240008C91837080648C93938D848D981306C0F9
:100250000288F389E02D80818F7D80830895EF925D
:10026000FF920F931F93CF93DF93EC0181E0888F70
:100270009B8D8C8D98131AC0E889F989808185FF40
:1002800015C09FB7F894EE89FF896083E889F989E2
:1002900080818370806480839FBF81E090E0DF91E4
:1002A000CF911F910F91FF90EF900895F62E0B8D37
:1002B00010E00F5F1F4F0F731127E02E8C8D8E11F2
:1002C0000CC00FB607FCFACFE889F989808185FF59
:1002D000F5CFCE010E940D01F1CFEB8DEC0FFD2F7C
:1002E000F11DE35AFF4FF0829FB7F8940B8FEA8914
:1002F000FB8980818062CFCFCF93DF93EC01888D23
:100300008823B9F0AA89BB89E889F9898C9185FD90
:1003100003C0808186FD0DC00FB607FCF7CF8C911E
:1003200085FFF2CF808185FFEDCFCE010E940D01C8
:10033000E9CFDF91CF91089590E0FC01E656FF4FA1
:100340002491FC01EA57FF4F3491FC01EE58FF4F16
:10035000E491EE23C9F0222339F0233001F1A8F40F
:10036000213019F1223029F1F0E0EE0FFF1FE8599A
:10037000FF4FA591B4918FB7F894EC91611126C00D
:1003800030953E233C938FBF08952730A9F0283045
:10039000C9F0243049F7809180008F7D03C080919F
:1003A00080008F7780938000DFCF84B58F7784BD06
:1003B000DBCF84B58F7DFBCF8091B0008F778093AA
:1003C000B000D2CF8091B0008F7DF9CF3E2BDACF35
:1003D0003FB7F8948091C7039091C803A091C903D7
:1003E000B091CA0326B5A89B05C02F3F19F001960E
:1003F000A11DB11D3FBFBA2FA92F982F8827BC017F
:10040000CD01620F711D811D911D42E0660F771FA6
:10041000881F991F4A95D1F708958F929F92AF92A6
:10042000BF92CF92DF92EF92FF924B015C010E944C
:10043000E8016B017C010E94E8016C197D098E09BD
:100440009F09683E734081059105A8F321E0821A57
:100450009108A108B10888EEC80E83E0D81EE11CFF
:10046000F11C81149104A104B10429F7FF90EF90CD
:10047000DF90CF90BF90AF909F908F9008952FB74F
:10048000F8946091C3037091C4038091C503909167
:10049000C6032FBF08958F929F92AF92BF92EF92A3
:1004A000FF920F931F93CF93DF937B018C01D0E0DA
:1004B000C0E00E943F0260934A0470934B04809313
:1004C0004C0490934D0482E494E00E94CB0097FF8B
:1004D00027C00E943F0280904A0490904B04A09055
:1004E0004C04B0904D04681979098A099B098090E1
:1004F000460490904704A0904804B09049046815C1
:1005000079058A059B05F8F2CE01DF91CF911F9105
:100510000F91FF90EF90BF90AF909F908F900895B4
:10052000F80181938F012196EC16FD0611F6ECCFB0
:100530000F931F93CF93DF93CDB7DEB728970FB6F6
:10054000F894DEBF0FBECDBF8C01CE01019628E02E
:10055000FC0111922A95E9F744E650E060E070E072
:1005600040934604509347046093480470934904B1
:1005700068E070E00E944B020897A1F589818137FD
:1005800089F58E818F3F71F58F818F3F59F5888571
:100590008F3F41F52D818C8190E0B0E0A0E0DC013F
:1005A00099278827B22B2A81822B4B8150E0542F28
:1005B0004427052E000C660B770B842B952BA62B5E
:1005C000B72BF80180839183A283B38381E02896BF
:1005D0000FB6F894DEBF0FBECDBFDF91CF911F9154
:1005E0000F91089580E0F3CF2091BA01211109C045
:1005F00021E02093BA013091DF042091E0043CBD5A
:100600002DBD60E0FC0184810C949C0161E0FC0143
:1006100084810E949C018091BA0181111092BA01DB
:1006200008958EBD00000DB407FEFDCF8EB5089570
:100630008FEF0C9411030F931F93CF93DF93EC0173
:100640000E943F028B010E9418038F3F69F00E94B5
:100650003F02601B710B6C177D07A8F380E0DF91F0
:10066000CF911F910F91089581E0F9CFCF92DF9242
:10067000EF92FF920F931F93CF93DF93EC01162F0E
:1006800069017A018E81882389F08F8198859C0188
:100690002F5F3F4F38872F838230924018F40E949B
:1006A0001803F3CFCE010E9406031E82CE010E94E2
:1006B000F4028CE291E00E941B03812F80640E946F
:1006C000110308E110E0D701C601002E04C0B69561
:1006D000A795979587950A94D2F70E941103085021
:1006E0001109083F8FEF180771F78FEF0E94110370
:1006F00010E00E9418038A8787FF04C01F3F11F093
:100700001F5FF7CFDF91CF911F910F91FF90EF9077
:10071000DF90CF900895CF92DF92EF92FF920F93E8
:10072000CF93DF93EC01690182E141155105610529
:10073000710599F08B85833039F089E0440F551F9E
:10074000661F771F8A95D1F79A01AB0168E1CE0148
:100750000E943603882319F084E08D832DC08EEF2C
:100760000E94110376018EEFD81AF70181917F0163
:100770000E941103EC14FD04C1F78FEF0E941103D6
:100780008FEF0E9411030E9418038A878F718530B2
:1007900071F4011116C0CE010E94060381E0DF91C1
:1007A000CF910F91FF90EF90DF90CF90089581E16E
:1007B0008D83CE010E940603CE010E94060380E0D5
:1007C000EECF88E592E00E941B03811102C085E113
:1007D000C4CF20E030E0A9016DE0CE010E943603D5
:1007E000882311F084E1B9CF0E9418038111FACF58
:1007F000D2CF0F934091BC015091BD016091BE01D9
:100800007091BF01411551056105710589F0082FEF
:1008100020EC31E090E080E00E948B03882349F0D7
:100820001092BC011092BD011092BE011092BF0146
:1008300081E00F9108950F93CF93C82F8091BB0152
:10084000811105C0C1E08C2FCF910F910895409187
:1008500000015091010160910201709103010C2F80
:1008600020EC31E090E080E00E948B03811102C017
:10087000C0E0E9CFCC2331F381E00E94F903882363
:10088000B9F31092BB01DFCFAF92BF92CF92DF924C
:10089000EF92FF921F93CF93DF936B017C01142F94
:1008A0008091000190910101A0910201B09103019A
:1008B0008C159D05AE05BF0509F4ADC081E00E9411
:1008C0001B048823E1F1809106008823A1F0809128
:1008D000000090910100A0910200B0910300C816A1
:1008E000D906EA06FB0639F48091070090910800CA
:1008F000892B09F44FC0C0920000D0920100E09211
:100900000200F092030080910B00A7019601833052
:1009100039F099E0220F331F441F551F9A95D1F7E4
:1009200061E190E080E00E943603882391F083E04B
:100930008093050090E080E00E94060380E0DF9154
:10094000CF911F91FF90EF90DF90CF90BF90AF902D
:1009500008950E943F02EB010E94180380930A0051
:100960008F3F79F40E943F026C1B7D0B6D3271400A
:1009700098F38FE08093050090E080E00E940603EA
:10098000D9CF8E3FC1F5109208001092070081E088
:1009900080930600C0ECD1E080ECA82E83E0B82E56
:1009A0000E9418038993AC16BD06D1F78091070009
:1009B000909108009E5F909308008093070020911B
:1009C0000900222319F081159240E8F08091060079
:1009D0008823C9F080910700909108009C012F5F47
:1009E0003F4F30930800209307008230924028F454
:1009F0000E941803EFCF8DE0BDCF90E080E00E9411
:100A0000060310920600C0920001D0920101E0920C
:100A10000201F09203014091BB01412B4093BB01C5
:100A200081E08DCF4F925F926F927F928F929F92D3
:100A3000AF92BF92CF92DF92EF92FF920F931F93EC
:100A4000CF93DF93EC01423051056105710590F4BD
:100A500080E0DF91CF911F910F91FF90EF90DF9099
:100A6000CF90BF90AF909F908F907F906F905F904E
:100A70004F90089589859A85AB85BC850196A11D07
:100A8000B11D84179507A607B70710F3CB88DC883C
:100A9000ED88FE888F89803109F042C0BB27A72FDF
:100AA000962F852F480159012A013B01C80ED91EF6
:100AB000EA1EFB1E8091000190910101A0910201AC
:100AC000B0910301C816D906EA06FB0699F58F898D
:100AD0008031C1F5B301A201552766277727440F5E
:100AE000551F40545E4FFA01918280828091BB0174
:100AF00081608093BB018A89823080F08D819E81E4
:100B0000AF81B8858C0D9D1DAE1DBF1D8093BC01AE
:100B10009093BD01A093BE01B093BF0181E099CF36
:100B2000DB01CA01E7E0B695A79597958795EA9509
:100B3000D1F7B8CF40E0C701B6010E94440481114B
:100B4000C6CF86CFB301A2014F77552766277727F7
:100B5000440F551F440F551F40545E4FFA018082C9
:100B60009182A282B382C2CF8F929F92AF92BF92A4
:100B7000CF92DF92EF92FF920F931F93CF93DF9369
:100B8000FC0181859285A385B4850196A11DB11DC7
:100B900084179507A607B70770F480E0DF91CF911F
:100BA0001F910F91FF90EF90DF90CF90BF90AF908B
:100BB0009F908F90089583889488A588B6888789A8
:100BC000803189F5BB27A72F962F852FE9016A0170
:100BD0007B018F01BC01CD01680D791D8A1D9B1D14
:100BE0008090000190900101A0900201B09003015B
:100BF00086169706A806B90601F5F801878980319F
:100C000011F5DD24EE24FF24F601EE0FFF1FE05462
:100C1000FE4F80819181B0E0A0E088839983AA8310
:100C2000BB8381E0BBCFDB01CA01C7E0B695A795C6
:100C300097958795CA95D1F7C9CF40E00E944404A3
:100C40008111DBCFAACFE894C7F8DD24EE24FF247E
:100C5000F601EE0FFF1FEE0FFF1FE054FE4F8081E5
:100C60009181A281B381BF70D8CF8F929F92AF92B2
:100C7000BF92CF92DF92EF92FF920F931F93CF9389
:100C8000DF93EC018D8181110EC080E0DF91CF9167
:100C90001F910F91FF90EF90DF90CF90BF90AF909A
:100CA0009F908F9008950B891C892D893E89041788
:100CB00015072607370748F34A015B01823031F4F4
:100CC0008A869B86AC86BD8681E0E0CF8114910444
:100CD000A104B10449F41E821F82188619861A865F
:100CE0001B861C861D86F0CF0A851B852C853D85BD
:100CF000EB8DFC8D858590E00996B901A8014150E6
:100D0000510961097109082E04C0769567955795B8
:100D100047950A94D2F775016401E1E0CE1AD10833
:100D2000E108F10804C0F694E794D794C7948A9533
:100D3000D2F7C416D506E606F70620F0012B022BE3
:100D4000032B11F58F89988DA98DBA8D8E839F8382
:100D5000A887B9878E010A5F1F4FC114D104E1042F
:100D6000F10409F4ADCF4E815F81688579859801E2
:100D70008B8D9C8D0E94B40591E0C91AD108E108C1
:100D8000F1088111EACF81CFC41AD50AE60AF70A21
:100D9000E1CF3F924F925F926F927F928F929F929C
:100DA000AF92BF92CF92DF92EF92FF920F931F9379
:100DB000CF93DF93CDB7DEB72C970FB6F894DEBF95
:100DC0000FBECDBF5C01DC015B968D909C905C9763
:100DD00016964D905D906D907C901997411451043A
:100DE0006104710409F468C0BFEF4B1A5B0A6B0A17
:100DF0007B0A312CF40181859285A385B4859C0101
:100E0000AD012F5F3F4F4F4F5F4F29873A874B8789
:100E10005C87730162011D821E821F821886F401A5
:100E200081859285A385B4852D813E814F8158852A
:100E3000281739074A075B0708F056C089859A8545
:100E4000AB85BC858C159D05AE05BF0550F482E0D1
:100E5000C82ED12CE12CF12C92E0492E512C612C82
:100E6000712C9E012F5F3F4FB701A601C4010E9464
:100E7000B4058823C9F189819A81AB81BC81892B12
:100E80008A2B8B2B09F1260137019FEF491A590A4A
:100E9000690A790A2D813E814F8158852F5F3F4F26
:100EA0004F4F5F4F2D833E834F8358873FEFC31AC9
:100EB000D30AE30AF30AB3CFF40140805180628081
:100EC00073803324339496CFC414D504E604F70416
:100ED00009F70FEF1FEF2FEF3FE0B701A601C401A5
:100EE0000E941205811119C080E02C960FB6F8946B
:100EF000DEBF0FBECDBFDF91CF911F910F91FF904D
:100F0000EF90DF90CF90BF90AF909F908F907F90A9
:100F10006F905F904F903F900895D50116964D9138
:100F20005D916D917C911997411551056105710590
:100F300039F097018601C4010E9412058823A1F2AD
:100F4000D5011696CD92DD92ED92FC921997332041
:100F500051F0D701C6010196A11DB11DF401808396
:100F60009183A283B383F5018789908DA18DB28D82
:100F7000892B8A2B8B2B39F48481C78AD08EE18E02
:100F8000F28E80688483F50184818062848381E0AD
:100F9000ACCF1F93CF93DF93EC01162F8C8187FF8B
:100FA0002AC06E857F858889998941E00E94440422
:100FB000882361F1EA8980E2E89FF0011124E0547E
:100FC000FE4F309719F18D81823040F48B899C89D6
:100FD000AD89BE89848F958FA68FB78F8F89988DA5
:100FE000938F828F8F89988DA98DBA8DB58BA48BA5
:100FF0008C818F778C83111103C08C818F7E8C83C1
:10100000812FDF91CF911F910C941B0480E0DF9121
:10101000CF911F9108951F93CF93DF93EC018D81A2
:10102000813031F090E080E0DF91CF911F91089501
:101030008C8181FFF7CF82FD1BC090E080E00E9491
:10104000F4020E941803182F90E080E00E9406032B
:101050001F3F41F78C8185FF1EC08D81882321F0C1
:1010600060E0CE010E94C9078C818F7D8C83DACF2E
:101070004B895C896D897E898A859B85AC85BD8518
:1010800084179507A607B707C1F2CE010E9435065F
:101090008111D3CFC7CF4091BC015091BD01609168
:1010A000BE017091BF01452B462B472B21F080E0FC
:1010B0000E94F903B7CF80618C832A853B8531700C
:1010C00080E092E0821B930BAFCF9F92AF92BF92D2
:1010D000CF92DF92EF92FF920F931F93CF93DF9304
:1010E00000D000D01F92CDB7DEB78C016D83DC013C
:1010F00015968C911597813009F0B9C014968C9192
:1011000081FFB5C082FD9FC0D8015B96ED91FC9137
:101110005C971A96AD90BD90CD90DC901D97948011
:101120009A94B601A50189E07695679557954795FC
:101130008A95D1F79422B1E0BB22992009F49FC08F
:10114000D8015B96ED91FC915C971696CD90DD9061
:10115000ED90FC901997B2E0CB1AD108E108F108A4
:10116000858504C0CC0CDD1CEE1CFF1C8A95D2F7D3
:101170004685578560897189C40ED51EE61EF71E07
:10118000C90CD11CE11CF11CA114B10409F00AC165
:10119000F801428553856485758583899489A5897D
:1011A000B689481759076A077B0708F4FBC081E036
:1011B0000E941B04882309F45AC0C0920001D092F7
:1011C0000101E0920201F09203018091BB01816074
:1011D0008093BB01F501E054FE4F8D818083F801BF
:1011E00082859385A485B5850196A11DB11D828751
:1011F0009387A487B5874389548965897689481779
:1012000059076A077B0738F42481838B948BA58B5D
:10121000B68B20682483D80114968C9183FD9FC0DF
:1012200081E090E00F900F900F900F900F90DF9162
:10123000CF911F910F91FF90EF90DF90CF90BF90D3
:10124000AF909F900895F801438954896589768904
:1012500082859385A485B585481759076A077B075A
:1012600009F452CFC8010E94350681114DCF81E0AB
:1012700090E0D80113969C938E93129749C0D801A1
:1012800016964D915D916D917C911997A114B104C1
:1012900009F071C0411551056105710589F5579631
:1012A0008D919D910D90BC91A02D0097A105B10548
:1012B00009F04FC0C8010E94C9068823C1F2D801B5
:1012C0005B96ED91FC915C971696CD90DD90ED903C
:1012D000FC901997B2E0CB1AD108E108F108858596
:1012E00004C0CC0CDD1CEE1CFF1C8A95D2F7468591
:1012F000578560897189C40ED51EE61EF71E48CF3A
:101300009E012F5F3F4FCF010E94B405811103C0A2
:1013100090E080E087CF89819A81AB81BC81F80120
:10132000238D348DF901278948EF5FEF60E070E08D
:10133000203121F048EF5FEF6FEF7FE084179507D2
:10134000A607B70730F0C8010E94C9068111F8CE80
:101350008ECFF80186839783A087B187F1CEF801FD
:101360008581882309F483CF61E0C8010E94C90701
:10137000811156CF7CCF6A017B01B2E0CB1AD10834
:10138000E108F108858504C0CC0CDD1CEE1CFF1CB7
:101390008A95D2F74685578560897189C40ED51E16
:1013A000E61EF71E41E0C701B6010E944404811108
:1013B00011CF5DCF1F93CF93DF93C1E0C093760130
:1013C000882399F1D091B8001091BA008091BC00A7
:1013D0008A7B8093BC0060E082E10E949C0160E017
:1013E00083E10E949C0110921804C093170410928C
:1013F000F20361E082E10E949C0161E083E10E94CE
:101400009C018091B9008E7F8093B9008091B900D2
:101410008D7F8093B90088E48093B80085E4809341
:10142000BC001093BA00D093B800DF91CF911F9108
:101430000895CF92DF92EF92FF920F931F93CF9375
:10144000DF93D091410481E0D13208F09CC0C0917B
:1014500040040E94E8016B017C0180911804811115
:101460006CC082E08093180481E0809317048FEFB2
:101470008093160410921504D0931404A0E2B4E0F3
:10148000E4EFF3E080E0D8138DC01092F303809175
:10149000F303CC0FC82BC093F3038091F203813088
:1014A00009F084C01092F2030E94E8016B017C01F4
:1014B0008091F3038093BB0080911A0490911B04E8
:1014C000A0911C04B0911D04892B8A2B8B2BA1F0B9
:1014D0000E94E80100911A0410911B0420911C0441
:1014E00030911D046C197D098E099F090617170795
:1014F0002807390708F442C08091BC0083FDD8CF8B
:1015000085EC8093BC000E94E8016B017C01809116
:101510001804823009F44CC0809116048F3F09F4FE
:1015200069C080911604803209F466C08091160467
:10153000803309F463C084E026C080911A0490913E
:101540001B04A0911C04B0911D04892B8A2B8B2BAA
:1015500009F483CF0E94E80100911A0410911B0442
:1015600020911C0430911D046C197D098E099F097E
:10157000061717072807390708F06FCF809119045D
:101580000E94DA0985E010921F0410924104109223
:101590001E04DF91CF911F910F91FF90EF90DF908C
:1015A000CF9008959D9191938F5F6DCF85EEA9CFD8
:1015B00080911A0490911B04A0911C04B0911D0409
:1015C000892B8A2B8B2B09F4A2CF0E94E801009172
:1015D0001A0410911B0420911C0430911D046C19F5
:1015E0007D098E099F09061717072807390708F094
:1015F0008ECFC4CF80E0C7CF82E0C5CF83E0C3CF1A
:10160000CF92DF92EF92FF920F931F93CF93DF93CE
:10161000D82FC62F613208F098C00E94E8016B01F4
:101620007C018091180481116BC081E080931804C3
:10163000809317049FEF90931604109215049C0F4B
:10164000909314048093F3038091F303DD0FD82B60
:10165000D093F3038091F203813009F078C01092A7
:10166000F2030E94E8016B017C018091F3038093F7
:10167000BB0080911A0490911B04A0911C04B091AE
:101680001D04892B8A2B8B2BA1F00E94E80100916D
:101690001A0410911B0420911C0430911D046C1934
:1016A0007D098E099F09061717072807390708F4CF
:1016B00048C08091BC0083FDD8CF85EC8093BC00EE
:1016C0000E94E8016B017C0180911804813009F4CB
:1016D00040C0809115048C1710F4C0911504E4EFFC
:1016E000F3E0A2EDB3E080E08C1355C08C2FDF91C6
:1016F000CF911F910F91FF90EF90DF90CF900895C1
:1017000080911A0490911B04A0911C04B0911D04B7
:10171000892B8A2B8B2B09F484CF0E94E80100913E
:101720001A0410911B0420911C0430911D046C19A3
:101730007D098E099F09061717072807390708F042
:1017400070CF809119040E94DA09C0E0CFCF85EEF6
:10175000B5CF80911A0490911B04A0911C04B09104
:101760001D04892B8A2B8B2B09F4AECF0E94E80134
:1017700000911A0410911B0420911C0430911D0447
:101780006C197D098E099F09061717072807390765
:1017900008F09ACFD6CF91919D938F5FA5CF2091DE
:1017A0009701260F3327331F21323105ECF42091A6
:1017B0001804FC0190E080E0243069F082E0089594
:1017C000A09197012191AC0149585E4FA40FB52F0C
:1017D000B11D2C930196861798F380919701680F9D
:1017E0006093970180E0089581E008950895E09165
:1017F000D1038091D003E81730F4F0E0EE52FC4FB3
:10180000808190E008958FEF9FEF08959091D1032C
:101810008091D0032FEF3FEF981748F4E92FF0E0C5
:10182000EE52FC4F208130E09F5F9093D103C901BD
:1018300008958091D0039091D103891B990B08954D
:10184000CF92DF92EF92FF920F931F93CF93DF938C
:101850007C01CB018A0120911E04222389F0EB0137
:101860006B01C40ED51ECC15DD0569F06991D70159
:10187000ED91FC910190F081E02DC7010995F3CF26
:10188000642F0E94CF0BC801DF91CF911F910F9160
:10189000FF90EF90DF90CF900895CF93DF931F924A
:1018A000CDB7DEB7698320911E042223F9F0209181
:1018B0004104203258F021E030E0FC0133832283E0
:1018C00090E080E00F90DF91CF91089580911F0408
:1018D000E82FF0E0E05EFB4F998190838F5F80936B
:1018E0001F048093410481E090E0ECCF61E0CE01E1
:1018F00001960E94CF0BF7CF682F8AE295E00C94F7
:101900004D0CCF93DF93EC01809176050E9484000B
:101910008D2F90E00E947C0CCE019927DF91CF9112
:101920000C947C0C90E080E008952091DB053091D0
:10193000DC058091D5059091D60528173907F1F47B
:101940008091D7059091D8056091D1057091D2050D
:101950000097D1F061157105A1F4232BC1F0FC01B2
:10196000808190E008C0232B91F0FB01808190E002
:1019700091958195910921E0892B09F020E0822F32
:1019800008950E94061CF7CF6115710561F721E0EB
:10199000F6CFCF93DF93EC0182E494E00E94ED0058
:1019A000892B29F082E494E00E94CB00F5CF2097A8
:1019B00069F0FE0101900020E9F73197AF014C1B5F
:1019C0005D0BBE0182E494E00E948F006FEF82E421
:1019D00094E00E942F016FEF82E494E00E942F01B7
:1019E0006FEF82E494E0DF91CF910C942F01CF93BD
:1019F000DF93EC0188819981009711F00E94B71A5A
:101A0000198218821D821C821B821A82DF91CF915B
:101A10000895FC0180819181009711F00C94B71A10
:101A200008950F931F93CF93DF93EC0188819981E1
:101A3000009759F02A813B812617370730F081E063
:101A4000DF91CF911F910F9108958B016F5F7F4FB1
:101A50000E94401B009759F0998388831B830A8357
:101A60002C813D81232B59F7FC011082E8CF80E0C7
:101A7000E7CFEF92FF920F931F93CF93DF93611500
:101A8000710541F480E0DF91CF911F910F91FF909C
:101A9000EF90089541155105B1F07B01EC010C81E7
:101AA0001D81040F151FB8010E94110D882351F3E9
:101AB000288139818C819D81B701820F931F0E94FB
:101AC0000F1C1D830C8381E0DECFEF92FF920F93FA
:101AD0001F93CF93DF9300D000D0CDB7DEB77C014A
:101AE000862F4AE08E010F5F1F4FB80190E00E94E1
:101AF0009D19F80101900020E9F73197AF01401BD3
:101B0000510BB801C7010E94390D811103C0C701F3
:101B10000E94F70CC7010F900F900F900F90DF916C
:101B2000CF911F910F91FF90EF900895CF93DF9386
:101B3000EC01FB0144815581608171810E94390D66
:101B4000811103C0CE010E94F70CCE01DF91CF912D
:101B500008956115710551F0FB0101900020E9F72E
:101B60003197AF01461B570B0C94390D80E0089557
:101B7000EF92FF920F931F93CF93DF93EC017B01C2
:101B80008A01BA010E94110D81110BC0CE010E9481
:101B9000F70CCE01DF91CF911F910F91FF90EF9045
:101BA00008951D830C83B701888199810E940F1CC1
:101BB000F0CFEF92FF920F931F93CF93DF93CDB7A8
:101BC000DEB729970FB6F894DEBF0FBECDBF8C01EC
:101BD000862FF801118210821382128215821482DC
:101BE0004AE09E012F5F3F4F7901B90190E00E94CA
:101BF000A819F70101900020E9F73197AF014E19BC
:101C00005F09B701C8010E94B80D29960FB6F89474
:101C1000DEBF0FBECDBFDF91CF911F910F91FF901F
:101C2000EF900895FB01DC0111961C921E92139611
:101C30001C921E92129715961C921E92149786174C
:101C4000970749F0608171816115710521F0448128
:101C500055810C94B80D0895FC01118210821382F5
:101C6000128215821482FB0101900020E9F731975E
:101C7000AF01461B570B0C94B80D8F929F92AF92F9
:101C8000BF92DF92EF92FF920F931F93CF93DF9358
:101C9000CDB7DEB7A8970FB6F894DEBF0FBECDBFA5
:101CA0007C014A018E010F5F1F4F8AE0F8011192FB
:101CB0008A95E9F76FE471E0CE0183960E942C0EBD
:101CC0004AE0B801C4010E94A8196BE371E0CE019B
:101CD0004D960E942C0EF701D1806DE371E0CE018C
:101CE00047960E942C0EF701F08062E471E0CE016D
:101CF0000B960E942C0EBE01655F7F4FCE01419670
:101D00000E94120E6F2DCE0141960E94650DBE01FC
:101D1000695E7F4F0E94960D6D2D0E94650DBE017C
:101D2000635E7F4F0E94960DFC0144815581608166
:101D30007181CE0183960E94390DCE0141960E9499
:101D4000090DCE010B960E94090DCE0147960E9407
:101D5000090DCE014D960E94090D65E471E0CE019A
:101D600083960E94A90DB801CE0183960E94A90D09
:101D70008BA19CA10E94C90C1B861C861D861E86F9
:101D800084E690E0A0E0B0E080934604909347049E
:101D9000A0934804B093490464E070E0CE010B9630
:101DA0000E944B028B85813051F48C858F3F39F432
:101DB0008D858F3F21F411E08E858F3F09F010E073
:101DC000CE0183960E94090D812FA8960FB6F89434
:101DD000DEBF0FBECDBFDF91CF911F910F91FF905E
:101DE000EF90DF90BF90AF909F908F900895CF932A
:101DF000DF93CDB7DEB72C970FB6F894DEBF0FBEDA
:101E0000CDBFE6E3F5E02685318539832A832FE4CB
:101E100031E03C832B831E821D821A8619861C8624
:101E20001B8618861F82AC0170E060E0CE0101962F
:101E30000E943D0E2C960FB6F894DEBF0FBECDBFAC
:101E4000DF91CF910895CF93DF93CDB7DEB72C9775
:101E50000FB6F894DEBF0FBECDBFE6E3F5E0848594
:101E6000918599838A838FE491E09C838B831E8282
:101E70001D821A8619861C861B8618861F824FEFC4
:101E80005FEFBA01CE0101960E943D0E2C960FB66F
:101E9000F894DEBF0FBECDBFDF91CF910895DF92E2
:101EA000EF92FF920F931F93CF93DF93CDB7DEB7DF
:101EB0006E970FB6F894DEBF0FBECDBF8C017B01CD
:101EC0006BE471E0CE0149960E942C0E6BE371E049
:101ED000CE0143960E942C0EF801D1806DE371E093
:101EE000CE010D960E942C0EF801108162E471E083
:101EF000CE0101960E942C0EBE016F5F7F4FCE0176
:101F000007960E94120E612FCE0107960E94650D62
:101F1000BE01635F7F4F0E94960D6D2D0E94650D7F
:101F2000BE016D5E7F4F0E94960DFC01448155817C
:101F300060817181CE0149960E94390DCE010796CC
:101F40000E94090DCE0101960E94090DCE010D9649
:101F50000E94090DCE0143960E94090D60E571E0D3
:101F6000CE0149960E94A90D898D9A8D0E94C90CB7
:101F7000C7010E949802182FCE0149960E94090DB0
:101F8000612F70E090E080E06E960FB6F894DEBFAF
:101F90000FBECDBFDF91CF911F910F91FF90EF90BA
:101FA000DF900895EF92FF920F931F93CF93DF93EB
:101FB00000D000D000D0CDB7DEB77C018B016BE440
:101FC00071E0CE0101960E942C0EF70162817381AF
:101FD000CE0101960E94A90D44E050E060E571E059
:101FE000CE0101960E94390D89819A810E94C90C07
:101FF000C8010E949802182FCE0101960E94090D77
:10200000812F26960FB6F894DEBF0FBECDBFDF91AD
:10201000CF911F910F91FF90EF900895CF92DF9293
:10202000EF92FF920F931F93CF93DF93CDB7DEB75D
:10203000A8970FB6F894DEBF0FBECDBF6C017B0131
:102040008A018FEF9FEFDC018DA39EA3AFA3B8A7FA
:1020500090915A0580913E05898F9A8F25E531E050
:102060003C8F2B8F1E8E1D8E1AA219A21CA21BA2A2
:1020700018A21F8E90915B058D879E8729E531E020
:10208000388B2F871A8A198A1E8A1D8A188E1F8AF2
:102090001C8A1B8A90915C0589839A838DE591E067
:1020A0009C838B831E821D821A8619861C861B8642
:1020B00018861F82BE016B5D7F4FCE0149960E943C
:1020C000D20F8DA1F6018083BE016B5D7F4FCE01E3
:1020D0000D960E94D20F8DA1F7018083BE016B5D2A
:1020E0007F4FCE0101960E94D20F8DA19EA1AFA17C
:1020F000B8A58C339105A105B10588F4F80180835A
:10210000A8960FB6F894DEBF0FBECDBFDF91CF917A
:102110001F910F91FF90EF90DF90CF9008952CE6E4
:1021200037E0803DF7E09F07A105B10510F020EDF5
:1021300037E03093600520935F0520915F05821B97
:10214000DDCF85ED8093BC0080911A0490911B0433
:10215000A0911C04B0911D040796A11DB11D23E0A0
:10216000B695A795979587952A95D1F72091BC00AC
:1021700024FD03C010921804089540911A04509150
:102180001B0460911C0470911D04452B462B472BAA
:1021900069F30097A105B10541F02AE22A95F1F70C
:1021A00000C00197A109B109E1CF809119040C94F5
:1021B000DA091F920F920FB60F9211242F933F93BB
:1021C0004F935F936F937F938F939F93AF93BF933F
:1021D000EF93FF938091CC039091CD03A091CE0318
:1021E000B091CF03892B8A2B8B2BC1F19091CB031C
:1021F000809100008927809300008091CC0390910A
:10220000CD03A091CE03B091CF03181619061A067C
:102210001B069CF48091CC039091CD03A091CE033A
:10222000B091CF030197A109B1098093CC0390939A
:10223000CD03A093CE03B093CF03FF91EF91BF9155
:10224000AF919F918F917F916F915F914F913F914E
:102250002F910F900FBE0F901F9018958091040141
:10226000EEEAF0E0E4919FEF90930401E13051F049
:1022700030F0E23069F060E00E949C01DECF109205
:102280006E00F9CF90916F009D7F90936F00F3CF18
:10229000909170009D7F9093700091E09093B000BA
:1022A0009091B100987F94609093B1001092B30028
:1022B000E2CF1F920F920FB60F9211242F933F93EC
:1022C0004F935F936F937F938F939F93AF93BF933E
:1022D000EF93FF9382E494E00E940D01FF91EF9150
:1022E000BF91AF919F918F917F916F915F914F912E
:1022F0003F912F910F900FBE0F901F9018951F9236
:102300000F920FB60F9211242F938F939F93EF93F9
:10231000FF93E0915204F09153048081E0915804BE
:10232000F091590482FD1BC0908180915B048F5F06
:102330008F7320915C04821741F0E0915B04F0E020
:10234000EE5BFB4F958F80935B04FF91EF919F9124
:102350008F912F910F900FBE0F901F901895808135
:10236000F4CF1F920F920FB60F9211242F933F9329
:102370008F939F93AF93BF938091C3039091C403B6
:10238000A091C503B091C6033091C20323E0230F8F
:102390002D3758F50196A11DB11D2093C2038093DE
:1023A000C3039093C403A093C503B093C603809165
:1023B000C7039091C803A091C903B091CA030196C5
:1023C000A11DB11D8093C7039093C803A093C903B7
:1023D000B093CA03BF91AF919F918F913F912F917D
:1023E0000F900FBE0F901F90189526E8230F0296AE
:1023F000A11DB11DD2CF1F920F920FB60F921124C3
:102400000F900FBE0F901F9018951F920F920FB64E
:102410000F9211242F933F934F935F936F937F936A
:102420008F939F93AF93BF93EF93FF938091B900E6
:10243000887F803609F44AC0F0F5883209F4A5C0D7
:1024400018F5803109F499C0B8F4882309F4F5C06F
:10245000883009F492C0FF91EF91BF91AF919F91A5
:102460008F917F916F915F914F913F912F910F903D
:102470000FBE0F901F901895883109F486C08032E6
:1024800051F78093160414C0803409F49BC040F4C3
:102490008033B9F38833F9F68093160485ECAEC027
:1024A000803509F483C0883509F494C0883499F6DE
:1024B0000E94A110D0CF883909F48AC038F5883736
:1024C00029F050F4883611F0803729F683E08093A4
:1024D00018041092B90155C0883809F479C08039C0
:1024E00019F0803809F0B7CF8091B901803208F037
:1024F0006FC0E091B90181E08E0F8093B9018091A6
:10250000BB00F0E0E756FE4F80833BC0803B39F0D4
:10251000D0F4803A09F477C0883A09F09CCF84E07F
:10252000809318041092980110929701F0E0E0E077
:1025300009958091970181110FC081E080939701E7
:102540001092770109C0803C09F4A8CF883C09F4B7
:10255000A5CF883B09F07FCFE091980181E08E0FF5
:1025600080939801F0E0E958FE4F80818093BB0092
:10257000909198018091970129C08091F3038093F5
:10258000BB0085EC8093BC0066CF909115048091D0
:102590001404981758F5E091150481E08E0F80938C
:1025A0001504F0E0EC50FC4F8081E9CFE091150478
:1025B00081E08E0F809315048091BB00F0E0EC5019
:1025C000FC4F808390911504809114049817C8F2F1
:1025D00085E8D8CFE091150481E08E0F8093150433
:1025E0008091BB00F0E0EC50FC4F80838091170499
:1025F00081115ECF81E08093F20384EA8093BC0076
:102600001092180428CF85EC8093BC001092180417
:102610008091B901803230F4E091B901F0E0E756E1
:10262000FE4F10826091B90170E089E991E0F0E01D
:10263000E0E009951092B9010ECF1092160438CF40
:102640002F923F924F925F926F927F928F929F92C2
:10265000AF92BF92CF92DF92EF92FF920F931F93B0
:10266000CF93DF93E2E4F4E01382128288EE93E0EA
:10267000A0E0B0E084839583A683B7832FE031E0A8
:102680003183208325EC30E03587248724EC30E04B
:102690003787268720EC30E0318B208B21EC30E02F
:1026A000338B228B22EC30E0358B248B26EC30E010
:1026B000378B268B118E128E138E148EEFEDF4E075
:1026C00020E520831182E1EEF4E015821682118666
:1026D000138642E050E060E070E0448755876687EB
:1026E000778713A215A614A621E231E033A722A70B
:1026F00017A6EAE2F5E01382128284839583A6830B
:10270000B7838DE291E091838083EDEDF5E08EEF6C
:10271000E82EF12CF182E08200E510E013830283C1
:102720001582148217821682C1E0D0E0D187C0875B
:1027300092E0C92ED12CD386C28663E070E0758703
:10274000648744E050E05787468725E030E0318BCE
:10275000208B80E190E0938B828B958B848BA1E121
:10276000AA2EB12CB78AA68AABE0B0E0B18FA08FB9
:10277000BDE02B2E312C338E228E99249394948E8F
:10278000AAEFB5E0FD01A2E37A2E11927A94E9F75F
:1027900010922F0610922E061092300610923106DB
:1027A0001092320610923306E6E3F5E0BCE0DB2E31
:1027B000D082ABE0CA2EC182BDE08B2E8282138212
:1027C00014829582A2E06A2E6682B3E04B2E478285
:1027D000A4E06A2E6086B8E05B2E5186A9E06A2EDE
:1027E0006286D3869486ADE1A5874686B8E14B2EF6
:1027F0004786A4E14A2E408AB5E14B2E418AA6E1E4
:102800004A2E428AB7E14B2E438AA3E14A2E448ADC
:10281000B9E14B2E458AAAE14A2E468A478ABBE196
:102820004B2E408E518E628EAAE06A2E638ED48E1D
:10283000858EBEE05B2E568EAFE06A2E678EBCE1C1
:102840004B2E40A2A1E14A2E41A2B0E14B2E42A262
:10285000A2E14A2E43A2C4A2D5A286A210A617A224
:10286000B0EDCB2EB7E0DB2ED2A6C1A6A7E0DA2EC4
:10287000D3A655A616A6B8E7DB2ED7A6A6E6CA2E7F
:10288000A5E0DA2ED6011D928A94E9F765AEF7AE7F
:10289000E6AE1093770500937605109279051092B5
:1028A000780510927B0510927A05D0937D05C09330
:1028B0007C05E2E0F0E0F0937F05E0937E05709305
:1028C0008105609380055093830540938205309382
:1028D00085052093840590938705809386059093C2
:1028E000890580938805B0928B05A0928A05BBE08C
:1028F000CB2ED12CD0928D05C0928C0530928F05B5
:1029000020928E0590929005E1E9F5E0DF01C2E3A7
:102910007C2E1D927A94E9F71092C6051092C50597
:102920001092C7051092C8051092C9051092CA05E9
:1029300080E48093CB051092CC051092CD051092C7
:10294000CE051092CF051092D0056FE471E081EDB5
:1029500095E00E942C0E6FE471E087ED95E0DF9129
:10296000CF911F910F91FF90EF90DF90CF90BF908C
:10297000AF909F908F907F906F905F904F903F901F
:102980002F900C942C0ECF93DF93CDB7DEB7CC569F
:10299000D1090FB6F894DEBF0FBECDBF789484B5D1
:1029A000826084BD84B5816084BD85B5826085BD4B
:1029B00085B5816085BD80916E00816080936E00D9
:1029C00010928100809181008260809381008091CB
:1029D000810081608093810080918000816080937C
:1029E00080008091B10084608093B1008091B0003C
:1029F00081608093B00080917A00846080937A0037
:102A000080917A00826080937A0080917A00816060
:102A100080937A0080917A00806880937A00109287
:102A2000C10088248A94982C540181E090E0A0E0B1
:102A3000B0E08BAB9CABADABBEAB8091430590914E
:102A40003F0599838A839FE4E92E91E0F92EFC8269
:102A5000EB821E821D821A8619861C861B861886AA
:102A60001F82BE016D5C7F4F8E010F5F1F4FC8013B
:102A70000E944F0F8BA9813089F468EE73E080E0EB
:102A800090E00E940D0280E090E0892B71F20E949C
:102A9000F900882351F20E940000C7CF1BAA1CAA8C
:102AA0001DAA1EAA8091420590913F0599838A83B1
:102AB000FC82EB821E821D821A8619861C861B866A
:102AC00018861F82BE016D5C7F4FC8010E944F0FA8
:102AD0008BA98093CC056B968CAE9DAEAEAEBFAE8F
:102AE0006B979091460580913F052C968FAF2C9760
:102AF0002D969FAF2D972F96FFAEEEAE2F97619636
:102B00001FAE1EAE619765961FAE1EAE65976796A7
:102B10001FAE1EAE679763961FAE1EAE6397909171
:102B200047058FAF21969FAF21972396FFAEEEAE5C
:102B3000239725961FAE1EAE259729961FAE1EAE73
:102B400029972B961FAE1EAE2B9727961FAE1EAE53
:102B50002797909148058BAB9CABFEAAEDAA18AEC7
:102B60001FAA1CAE1BAE1EAE1DAE1AAE19AE9091C2
:102B7000490589839A83FC82EB821E821D821A8614
:102B800019861C861B8618861F82BE01695A7F4FD4
:102B9000CE01855B9F4F0E944F0F6896DFAC689710
:102BA000BE01695A7F4FCE01CF960E944F0F6896A3
:102BB000EFAC6897BE01695A7F4FCE01C3960E9461
:102BC0004F0F6896FFAC6897BE01695A7F4FC801E6
:102BD0000E944F0F68968FAD6897D092CD05E09216
:102BE000CE05F092CF058093D0056091D10570910C
:102BF000D2056115710509F4ADC04091D50550911C
:102C0000D60587ED95E00E94B80D6091D005CE0104
:102C1000835A9F4F0E94D90D6091CF05CE01895AEA
:102C20009F4F0E94D90D6091CE05CE01855B9F4FCD
:102C30000E94D90D6091CD05CE01CF960E94D90D8D
:102C40006091CC05C8010E94D90DB801CE01C39690
:102C50000E94120EBE01615C7F4FCE01C3960E949E
:102C6000960DBE01655B7F4F0E94960DBE01695AAD
:102C70007F4F0E94960DBE01635A7F4F0E94960DB2
:102C8000BC01CE018D599F4F0E94120E8091D1053B
:102C90009091D205009709F464C0A5966EAD7FAD02
:102CA000A5976115710509F45AC04091D30550915B
:102CB000D405A9962EAD3FADA9974217530708F446
:102CC0004EC00E940F1CA9968EAD9FADA997909300
:102CD000D6058093D505A9961FAE1EAEA997CE0145
:102CE0008D599F4F0E94090DCE01C3960E94090D78
:102CF000C8010E94090DCE01CF960E94090DCE0198
:102D0000855B9F4F0E94090DCE01895A9F4F0E94FB
:102D1000090DCE01835A9F4F0E94090DC8010E94E0
:102D2000090D8091CC05833009F493C1D8F5813029
:102D300009F45BC008F0E8C00E94950C8111A3CE95
:102D400060E0809136050E949C0162E370E080E0C3
:102D500090E097CE87ED95E00E94F70C56CF0E9449
:102D6000B71AA5968EAD9FADA5979093D205809387
:102D7000D105A7968EAD9FADA7979093D40580936C
:102D8000D305A9968EAD9FADA9979093D605809354
:102D9000D505A5961FAE1EAEA597A7961FAE1EAE73
:102DA000A79799CF843009F457C18E3F28F60E9427
:102DB000950CD82E811167CE9091CB05692F70E0CC
:102DC0002091D5053091D605232B09F072C19923A6
:102DD00009F47DC1DB018C91882309F478C161E09D
:102DE000809136050E949C014ECE0E94230F82E006
:102DF00090E00E94F70EAE01415C5F4FBE01655B43
:102E00007F4FCE01895A9F4F0E940E101BAA1CAA09
:102E10001DAA1EAA80914C0590913E0599838A8334
:102E200081E691E09C838B831E821D821A8619861F
:102E30001C861B8618861F82BE016D5C7F4FC801F1
:102E40000E94D20F0BA96896DFAC68972C96EFAC66
:102E50002C97FFAC88E60E94840084E090E00E94FA
:102E60007C0C1AE08D2D612F0E94091A8295807FBB
:102E7000682F690F8AE295E00E944D0C0E94190AA2
:102E800088E60E94840085E090E00E947C0C8E2DF4
:102E9000612F0E94091A8295807F682F690F8AE24C
:102EA00095E00E944D0C0E94190A88E60E94840059
:102EB00086E090E00E947C0C8F2D612F0E94091A01
:102EC0008295807F682F690F8AE295E00E944D0C01
:102ED0000E94190A88E60E94840083E090E00E9424
:102EE0007C0C802F612F0E94091A8295807F682FA9
:102EF000690F8AE295E00E944D0C0E94190A83E056
:102F000090E00E94F70EBFCD0E94230F82E090E078
:102F10000E94F70EA801BE016D5C7F4FCE01CF96D7
:102F20000E940E101FADFBA8098188E60E94840054
:102F300082E090E00E947C0C0E94190A61E088E621
:102F40000E94000B1092D1038093D0038AE295E097
:102F50000E94060C86FF73C021E01C3008F420E0BC
:102F60001C3008F01C50111101C01CE0812F6AE0D8
:102F70000E94091A8295807F980F30E085E0220F29
:102F8000331F8A95E1F7122F1064192B88E60E94EF
:102F9000840082E090E00E947C0C612F8AE295E040
:102FA0000E944D0C0E94190A88E60E94840081E06C
:102FB00090E00E947C0C1AE08F2D612F0E94091A6C
:102FC0008295807F682F690F8AE295E00E944D0C00
:102FD0000E94190A88E60E94840090E080E00E9426
:102FE0007C0C802F612F0E94091A8295807F682FA8
:102FF000690F8AE295E00E944D0C0E94190A88E64A
:103000000E9484008FE090E00E947C0C0E94190ACC
:1030100061E088E60E94000B1092D1038093D003F8
:103020008AE295E00E94060C182F88E60E94840030
:103030008FE090E00E947C0C612F6F775ACF812F38
:103040006AE00E94091A182F1295107F190F1F7B32
:103050009DCF0E94230F17CD82E090E00E94F70ED3
:103060001BAA1CAA1DAA1EAA8091560590913F0575
:1030700099838A838FE491E09C838B831E821D82D7
:103080001A8619861C861B8618861F82BE016D5CF7
:103090007F4FC8010E944F0F81E04BA95CA96DA929
:1030A0007EA9452B462B472B09F480E080933905F8
:1030B00026CFE091D105F091D205911102C0808117
:1030C0008BCECF010E94061C892B09F088CE82E3AB
:1030D000F80111928A95E9F7AD968CAE9DAEAEAE31
:1030E000BFAEAD97E0904D05F0903F0580914E0545
:1030F000FBAA8CAB8FE491E09EAB8DAB18AE1FAA00
:103100001CAE1BAE1EAE1DAE1AAE19AEBE01675987
:103110007F4FCE01C3960E944F0FAA963FACAA974D
:10312000AB96CFACAB971A8219826FE471E0CE01F7
:103130008D599F4F0E942C0E6BE471E0CE018D598A
:103140009F4F0E94A90D6BE371E0CE01CF960E94C4
:103150002C0E6DE371E0CE01855B9F4F0E942C0E1B
:1031600062E471E0CE01835A9F4F0E942C0EBE0193
:10317000635A7F4FCE01895A9F4F0E94120E6F2DC6
:10318000CE01895A9F4F0E94650DBE01655B7F4F3E
:103190000E94960D6E2D0E94650DBE01615C7F4FF1
:1031A0000E94960DDC0114964D915C9115976D91DE
:1031B0007C91CE018D599F4F0E94390DCE01895AC5
:1031C0009F4F0E94090DCE01835A9F4F0E94090D07
:1031D000CE01855B9F4F0E94090DCE01CF960E94C4
:1031E000090D66E671E0CE018D599F4F0E94A90D31
:1031F000A5968EAD9FADA5970E94C90CE32CFC2C23
:103200006FE471E0CE01CF960E942C0EE114F10420
:10321000A1F10E943F022B013C01C12C0E943F0200
:103220006419750986099709653671058105910547
:10323000A8F482E494E00E94ED00892B09F470C0A8
:1032400082E494E00E94CB00DD2009F462C08F3F4D
:1032500009F04FC0C394B2E0BC1558F725964EADA7
:103260005FAD2597E416F50608F4A70121966EAD2B
:103270007FAD2197C8010E94161CCE01CF960E94F7
:10328000090DCE018D599F4F0E94090DE0908A05CE
:10329000F0908B0580918805909189050E94810CA2
:1032A000632D8AE295E00E944D0C0E94190A65E0A8
:1032B00070E080E090E00E940D02D12CF801ED0D4D
:1032C000F11DC080C7010E94810C6C2D8AE295E03F
:1032D0000E944D0C0E94190A65E070E080E090E0C9
:1032E0000E940D02FFEFEF1AFF0AD3943D1430F74E
:1032F00076CD2C968FAF2C972D961FAE2D9741E053
:1033000050E0BE01655B7F4FCE01CF960E94390D24
:1033100090CFDD24D394803709F48BCFD12C89CF83
:10332000E2E0EC1508F07ACF99CF87ED95E00E94A6
:10333000090D81ED95E00C94090DBB274A3031F45D
:10334000992322F4BDE2909581959F4F0C94A91981
:10335000BB27FB015527AA27880F991FAA1FA4176F
:1033600010F0A41B83955051B9F7A05DAA3308F063
:10337000A95DA193009779F7B111B1931192CB0197
:103380000C94C219DC01FC01672F71917723E1F7DE
:10339000329704C07C916D9370836291AE17BF0722
:1033A000C8F308952F923F924F925F926F927F924F
:1033B0008F929F92AF92BF92CF92DF92EF92FF9245
:1033C0000F931F93CF93DF93CDB7DEB7CA1BDB0BF1
:1033D0000FB6F894DEBF0FBECDBF09942A88398896
:1033E00048885F846E847D848C849B84AA84B9849D
:1033F000C884DF80EE80FD800C811B81AA81B981A9
:10340000CE0FD11D0FB6F894DEBF0FBECDBFED01BC
:103410000895991B79E004C0991F961708F0961B30
:10342000881F7A95C9F780950895EE0FFF1F0590C4
:10343000F491E02D09940F931F93CF93DF93823083
:10344000910510F482E090E0E0913606F0913706A5
:1034500030E020E0B0E0A0E0309799F4211531058C
:1034600009F44AC0281B390B24303105D8F58A816C
:103470009B816115710589F1FB0193838283FE01B4
:1034800011C0408151810281138148175907E0F032
:103490004817590799F4109761F012960C931297F8
:1034A00013961C933296CF01DF91CF911F910F910C
:1034B00008950093360610933706F4CF2115310591
:1034C00051F04217530738F0A901DB019A01BD0101
:1034D000DF01F801C1CFEF01F9CF90933706809358
:1034E0003606CDCFFE01E20FF31F81939193225058
:1034F000310939832883D7CF20913406309135069E
:10350000232B41F4209107013091080130933506B7
:1035100020933406209105013091060121153105D3
:1035200041F42DB73EB74091090150910A01241B87
:10353000350BE0913406F0913506E217F307A0F45D
:103540002E1B3F0B2817390778F0AC014E5F5F4FF9
:103550002417350748F04E0F5F1F509335064093F0
:103560003406819391939FCFF0E0E0E09CCFCF931E
:10357000DF930097E9F0FC01329713821282A09149
:103580003606B0913706ED0130E020E01097A1F447
:1035900020813181820F931F2091340630913506AE
:1035A0002817390709F061C0F0933506E093340617
:1035B000DF91CF910895EA01CE17DF07E8F54A8140
:1035C0005B819E0141155105B1F7E901FB83EA8357
:1035D00049915991C40FD51FEC17FD0761F4808103
:1035E00091810296840F951FE901998388838281D6
:1035F00093819B838A83F0E0E0E012968D919C9109
:1036000013970097B9F52D913C911197CD01029632
:10361000820F931F20913406309135062817390701
:1036200039F6309751F51092370610923606B0935E
:103630003506A0933406BCCFD383C2834081518129
:10364000840F951FC817D90761F44E5F5F4F8881BB
:103650009981480F591F518340838A819B819383AD
:1036600082832115310509F0B0CFF0933706E0933E
:1036700036069ECFFD01DC01C0CF13821282D7CF68
:10368000B0E0A0E0E6E4FBE10C94D4198C010097D3
:1036900051F4CB010E941B1A8C01C801CDB7DEB7D3
:1036A000E0E10C94F019FC01E60FF71F9C01225099
:1036B0003109E217F30708F49DC0D901CD91DC91DF
:1036C0001197C617D70798F0C530D10530F3CE0152
:1036D00004978617970708F3C61BD70B2297C19349
:1036E000D1936D937C93CF010E94B71AD6CF5B0123
:1036F000AC1ABD0A4C018C0E9D1EA0913606B091ED
:103700003706512C412CF12CE12C109731F580918A
:103710003406909135068815990509F05CC0461667
:10372000570608F058C08091050190910601009756
:1037300041F48DB79EB74091090150910A01841B55
:10374000950BE817F90708F055C0F0933506E0939C
:103750003406F90171836083A0CF8D919C911197FC
:1037600012966C90129713967C901397A815B90532
:1037700059F56C0142E0C40ED11CCA14DB0420F1DF
:10378000AC014A195B09DA011296159780F0628242
:10379000738251834083D9016D937C93E114F104CA
:1037A00071F0D7011396FC93EE93129776CF229681
:1037B0008C0F9D1FF90191838083F301EFCFF0936C
:1037C0003706E093360669CF4816590608F42C01EF
:1037D0007D01D3019ACFCB010E941B1A7C01009777
:1037E00049F0AE01B8010E94FD1BC8010E94B71A42
:1037F000870153CF10E000E050CFFB01DC0102C095
:1038000001900D9241505040D8F70895FB01DC0122
:103810008D91019080190110D9F3990B0895FB0146
:10382000DC0101900D920020E1F70895FB01DC011D
:103830004150504048F001900D920020C9F701C05E
:103840001D9241505040E0F7089510E0C9E5D0E0E6
:1038500004C0FE010E94151A2196CA35D107C9F786
:04386000F894FFCF0A
:10386400FFFFFFFFFF000038068000000000002F6C
:10387400018F00BC007C01ED00CB00DF00000000E4
:103884000065088F000B088E00000000004D0C201E
:103894000C920CF60B190C060CF70B5D005D2E62F6
:1038A4005B00705B002E76616C3D006765742000E0
:1038B4002E76616C0073444800734D4D0073415380
:0C38C4000073446F57002E7478740000ED
:00000001FF
