:100000000C9464000C948C000C948C000C946A1674
:100010000C946A160C946A160C948C000C94461579
:100020000C948C000C948C000C948C000C948C0020
:100030000C948C000C948C000C948C000C948C0010
:100040000C9420160C948C000C94EE150C94C8158E
:100050000C948C000C948C000C948C000C948C00F0
:100060000C9474160C948C000000000024002700EF
:100070002A000000000023002600290000000008DC
:10008000000201000003040700000000000000005F
:10009000010204081020408001020408102001021F
:1000A0000408102000000000250028002B00040494
:1000B0000404040404040202020202020303030310
:1000C000030302009317602111241FBECFEFD8E075
:1000D000DEBFCDBF11E0A0E0B1E0E2E7FBE402C08B
:1000E00005900D92AA37B107D9F725E0AAE7B1E04C
:1000F00001C01D92AB3FB207E1F710E0C3E6D0E0CC
:1001000004C02197FE010E949C23C236D107C9F783
:100110000E94CD180C94AC250C9400009091F4032F
:100120008091F3032FEF3FEF981748F4E92FF0E0A9
:10013000ED52FC4F208130E09F5F9093F403C901A2
:1001400008959091F4038091F3032FEF3FEF9817F8
:1001500048F4E92FF0E0ED52FC4F208130E09F5F42
:100160009093F403C901089591E090932104809342
:100170004304109222041092440408958091F303E2
:100180009091F403891B990B08950895089508959B
:10019000AF92BF92CF92DF92EF92FF920F931F9395
:1001A000CF93DF936C017B018B01040F151FEB01D3
:1001B0005E01AE18BF08C017D10759F06991D6018A
:1001C000ED91FC910190F081E02DC6010995892BFC
:1001D00079F7C501DF91CF911F910F91FF90EF90BB
:1001E000DF90CF90BF90AF900895FC01538D448D68
:1001F000252F30E0842F90E0821B930B541710F0D2
:10020000CF96089501970895FC01918D828D9817DE
:1002100061F0A28DAE0FBF2FB11D5D968C91928DB6
:100220009F5F9F73928F90E008958FEF9FEF0895E7
:10023000FC01918D828D981731F0828DE80FF11DB0
:10024000858D90E008958FEF9FEF0895FC01918DCB
:10025000228D892F90E0805C9F4F821B91098F73C4
:100260009927089586E594E00E94260121E0892BD4
:1002700009F420E0822F089580E090E0892B29F096
:100280000E94320181110C9400000895FC01A48D9C
:10029000A80FB92FB11DA35ABF4F2C91848D90E0A8
:1002A00001968F739927848FA689B7892C93A0898B
:1002B000B1898C91837080648C93938D848D981315
:1002C00006C00288F389E02D80818F7D80830895A8
:1002D000EF92FF920F931F93CF93DF93EC0181E096
:1002E000888F9B8D8C8D98131AC0E889F98980813D
:1002F00085FF15C09FB7F894EE89FF896083E88970
:10030000F98980818370806480839FBF81E090E061
:10031000DF91CF911F910F91FF90EF900895F62EEE
:100320000B8D10E00F5F1F4F0F731127E02E8C8D88
:100330008E110CC00FB607FCFACFE889F9898081CD
:1003400085FFF5CFCE010E944601F1CFEB8DEC0F7A
:10035000FD2FF11DE35AFF4FF0829FB7F8940B8FEA
:10036000EA89FB8980818062CFCFCF93DF93EC0154
:10037000888D8823B9F0AA89BB89E889F9898C918D
:1003800085FD03C0808186FD0DC00FB607FCF7CF49
:100390008C9185FFF2CF808185FFEDCFCE010E9449
:1003A0004601E9CFDF91CF910895833081F028F4A1
:1003B000813099F08230A9F008958730A9F0883013
:1003C000C9F08430B1F4809180008F7D03C08091AA
:1003D00080008F7780938000089584B58F7784BDE7
:1003E000089584B58F7DFBCF8091B0008F77809387
:1003F000B00008958091B0008F7DF9CFCF93DF9347
:10040000282F30E0F901E458FF4F8491F901E057BB
:10041000FF4FD491F901E255FF4FC491CC23A1F0D5
:1004200081110E94D501EC2FF0E0EE0FFF1FEE5876
:10043000FF4FA591B491EC91ED2381E090E009F498
:1004400080E0DF91CF91089580E090E0FACF1F9394
:10045000CF93DF93282F30E0F901E458FF4F8491C8
:10046000F901E057FF4FD491F901E255FF4FC491D4
:10047000CC23A9F0162F81110E94D501EC2FF0E0BA
:10048000EE0FFF1FEC55FF4FA591B4918FB7F89475
:10049000EC91111108C0D095DE23DC938FBFDF9162
:1004A000CF911F910895DE2BF8CFCF93DF9390E08B
:1004B000FC01E057FF4F249182559F4FFC0184912E
:1004C0008823D1F090E0880F991FFC01E859FF4F75
:1004D000A591B491FC01EC55FF4FC591D4916111E8
:1004E0000EC09FB7F8948C91E22FE0958E238C93E9
:1004F0002881E223E8839FBFDF91CF9108958FB7D2
:10050000F894EC91E22BEC938FBFF6CFCF939091C0
:100510000401891721F09F3F59F1CF910895E2EC32
:10052000F0E0C491C7FDF9CF61E00E945502CC23F1
:1005300009F496C0C23009F0ABC08091B100887F49
:1005400082608093B10086E48093B30088EA90E0F3
:10055000A0E0B0E080934A0490934B04A0934C0435
:10056000B0934D0480917000826080937000D5CF6D
:1005700080930401E2ECF0E0C491CF3F71F2C1300E
:1005800039F148F0C23009F445C0C7FDC6CF61E07B
:100590000E945502CFCF14BC15BC94B5926094BD97
:1005A00095B5916095BD282F30E0F901E255FF4FD8
:1005B000E491F0E0EE0FFF1FEC55FF4F4591549191
:1005C000F901E057FF4FE491E0934904C0E0ACCF5C
:1005D0001092800010928100909181009860909319
:1005E000810090918100916090938100282F30E0EC
:1005F000F901E255FF4FE491F0E0EE0FFF1FEC55DB
:10060000FF4F45915491F901E057FF4FE491E0937A
:1006100048048ACF1092B0001092B1009091B000BF
:1006200092609093B0009091B10091609093B1006E
:10063000282F30E0F901E255FF4FE491F0E0EE0F92
:10064000FF1FEC55FF4F4591549150934704409341
:100650004604F901E057FF4FE491E093450464CF6D
:1006600085B5887F826085BD86E487BD88EA90E095
:10067000A0E0B0E08093520490935304A0935404FC
:10068000B093550480916E00826080936E0045CFD8
:10069000C130F1F480918100887F81608093810076
:1006A0008AE392E0909389008093880088EA90E042
:1006B000A0E0B0E080934E0490934F04A0935004C8
:1006C000B093510480916F00826080936F0025CFBA
:1006D000C23021F0C11121CF8AE3C7CF8AE334CFE2
:1006E0003FB7F8948091CB039091CC03A091CD03B8
:1006F000B091CE0326B5A89B05C02F3F19F00196F7
:10070000A11DB11D3FBFBA2FA92F982F8827BC016B
:10071000CD01620F711D811D911D42E0660F771F93
:10072000881F991F4A95D1F708958F929F92AF9293
:10073000BF92CF92DF92EF92FF924B015C010E9439
:1007400070036B017C010E9470036C197D098E0996
:100750009F09683E734081059105A8F321E0821A44
:100760009108A108B10888EEC80E83E0D81EE11CEC
:10077000F11C81149104A104B10429F7FF90EF90BA
:10078000DF90CF90BF90AF909F908F9008954F9241
:100790005F926F927F92AF92BF92DF92EF92FF9241
:1007A0000F931F93CF93DF93C82F1092870510925A
:1007B00088051092890510928A0510928B0561E0D8
:1007C0000E94550260E08C2F0E94270264E170E0D5
:1007D00080E090E00E94950361E08C2F0E94270248
:1007E0008BE990E00197F1F760E08C2F0E945502B1
:1007F00001E117E28C2F0E94FE01892B99F4015030
:100800001109C1F78EEF9FEFDF91CF911F910F91EB
:10081000FF90EF90DF90BF90AF907F906F905F90D0
:100820004F90089501E117E28C2F0E94FE0101977D
:1008300021F401501109C1F7E5CF08E210E0D7E03B
:10084000D12CEE24E394F12C91E1A92E97E2B92E5C
:100850008C2F0E94FE01892B29F481E0A81AB1088F
:10086000B9F7D0CF0E9470032B013C0181E1A82E83
:1008700087E2B82E8C2F0E94FE01019729F481E0B7
:10088000A81AB108B9F7BECF0E94700364197509A0
:1008900086099709693271058105910568F0ED2D8A
:1008A000F0E0E65BFA4F85AD97010D2E01C0220FF7
:1008B0000A94EAF7822B85AFD11133C0D394D7E0E5
:1008C0000150110909F0C0CFC09187056C2F70E06D
:1008D00090E080E00E949D2160937F0570938005E9
:1008E0008093810590938205D09189056D2F70E0EA
:1008F00090E080E00E949D216093830570938405C1
:100900008093850590938605CD0F81E090E020913E
:100910008B05C21302C090E080E09195819591090A
:1009200073CFD150CDCF2FB7F8946091C70370919A
:10093000C8038091C9039091CA032FBF08958F9275
:100940009F92AF92BF92EF92FF920F931F93CF931C
:10095000DF937B018C01D0E0C0E00E9493046093A0
:100960005E0470935F04809360049093610486E555
:1009700094E00E94040197FF27C00E949304809096
:100980005E0490905F04A0906004B09061046819C8
:1009900079098A099B0980905A0490905B04A09081
:1009A0005C04B0905D04681579058A059B05F8F232
:1009B000CE01DF91CF911F910F91FF90EF90BF90EB
:1009C000AF909F908F900895F80181938F012196A9
:1009D000EC16FD0611F6ECCFCF93DF9300D000D0DC
:1009E000CDB7DEB719821A821B821C8284E690E0A2
:1009F000A0E0B0E080935A0490935B04A0935C0461
:100A0000B0935D0464E070E0CE0101960E949F0403
:100A10008981813051F48A818F3F39F48B818F3FF6
:100A200021F481E09C819F3F09F080E00F900F90BE
:100A30000F900F90DF91CF9108950F931F93CF9355
:100A4000DF93CDB7DEB728970FB6F894DEBF0FBEA1
:100A5000CDBF8C01CE01019628E0FC0111922A95B0
:100A6000E9F744E650E060E070E040935A045093A8
:100A70005B0460935C0470935D0468E070E00E9426
:100A80009F040897A1F58981813789F58E818F3F71
:100A900071F58F818F3F59F588858F3F41F52D8105
:100AA0008C8190E0B0E0A0E0DC0199278827B22B90
:100AB0002A81822B4B8150E0542F4427052E000CB5
:100AC000660B770B842B952BA62BB72BF801808315
:100AD0009183A283B38381E028960FB6F894DEBF9A
:100AE0000FBECDBFDF91CF911F910F91089580E090
:100AF000F3CF2091BE01211109C021E02093BE0156
:100B00003091F3042091F4043CBD2DBD60E0FC0164
:100B100084810C94270261E0FC0184810E942702F9
:100B20008091BE0181111092BE0108958EBD00001A
:100B30000DB407FEFDCF8EB508958FEF0C9496058A
:100B40000F931F93CF93DF93EC010E9493048B01CB
:100B50000E949D058F3F69F00E949304601B710BFA
:100B60006C177D07A8F380E0DF91CF911F910F9163
:100B7000089581E0F9CFCF92DF92EF92FF920F9329
:100B80001F93CF93DF93EC01162F69017A018E81B9
:100B9000882389F08F8198859C012F5F3F4F38878C
:100BA0002F838230924018F40E949D05F3CFCE012E
:100BB0000E948B051E82CE010E9479058CE291E095
:100BC0000E94A005812F80640E94960508E110E034
:100BD000D701C601002E04C0B695A79597958795B5
:100BE0000A94D2F70E94960508501109083F8FEF2A
:100BF000180771F78FEF0E94960510E00E949D057F
:100C00008A8787FF04C01F3F11F01F5FF7CFDF9176
:100C1000CF911F910F91FF90EF90DF90CF900895AB
:100C2000CF92DF92EF92FF920F93CF93DF93EC017D
:100C3000690182E1411551056105710599F08B85C6
:100C4000833039F089E0440F551F661F771F8A955E
:100C5000D1F79A01AB0168E1CE010E94BB05882360
:100C600019F084E08D832DC08EEF0E9496057601E9
:100C70008EEFD81AF70181917F010E949605EC143E
:100C8000FD04C1F78FEF0E9496058FEF0E94960535
:100C90000E949D058A878F71853071F4011116C0FD
:100CA000CE010E948B0581E0DF91CF910F91FF90E3
:100CB000EF90DF90CF90089581E18D83CE010E9467
:100CC0008B05CE010E948B0580E0EECF88E592E097
:100CD0000E94A005811102C085E1C4CF20E030E070
:100CE000A9016DE0CE010E94BB05882311F084E1CB
:100CF000B9CF0E949D058111FACFD2CF0F934091B9
:100D0000C0015091C1016091C2017091C3014115B0
:100D100051056105710589F0082F24EC31E090E060
:100D200080E00E941006882349F01092C0011092C2
:100D3000C1011092C2011092C30181E00F91089588
:100D40000F93CF93C82F8091BF01811105C0C1E0DF
:100D50008C2FCF910F910895409100015091010186
:100D600060910201709103010C2F24EC31E090E0BE
:100D700080E00E941006811102C0C0E0E9CFCC23C0
:100D800031F381E00E947E068823B9F31092BF01FF
:100D9000DFCFAF92BF92CF92DF92EF92FF921F937D
:100DA000CF93DF936B017C01142F80910001909110
:100DB0000101A0910201B09103018C159D05AE05C2
:100DC000BF0509F4ADC081E00E94A0068823E1F1CF
:100DD000809106008823A1F080910000909101008D
:100DE000A0910200B0910300C816D906EA06FB06DE
:100DF00039F48091070090910800892B09F44FC0C5
:100E0000C0920000D0920100E0920200F092030034
:100E100080910B00A7019601833039F099E0220FF1
:100E2000331F441F551F9A95D1F761E190E080E090
:100E30000E94BB05882391F083E08093050090E039
:100E400080E00E948B0580E0DF91CF911F91FF90A1
:100E5000EF90DF90CF90BF90AF9008950E949304E1
:100E6000EB010E949D0580930A008F3F79F40E9458
:100E700093046C1B7D0B6D32714098F38FE080936F
:100E8000050090E080E00E948B05D9CF8E3FC1F530
:100E9000109208001092070081E080930600C4ECD5
:100EA000D1E084ECA82E83E0B82E0E949D058993A2
:100EB000AC16BD06D1F780910700909108009E5FA7
:100EC000909308008093070020910900222319F0D5
:100ED00081159240E8F0809106008823C9F0809146
:100EE0000700909108009C012F5F3F4F309308004E
:100EF000209307008230924028F40E949D05EFCF96
:100F00008DE0BDCF90E080E00E948B05109206003E
:100F1000C0920001D0920101E0920201F09203011F
:100F20004091BF01412B4093BF0181E08DCF4F9293
:100F30005F926F927F928F929F92AF92BF92CF9269
:100F4000DF92EF92FF920F931F93CF93DF93EC0109
:100F5000423051056105710590F480E0DF91CF9139
:100F60001F910F91FF90EF90DF90CF90BF90AF90C7
:100F70009F908F907F906F905F904F90089589859C
:100F80009A85AB85BC850196A11DB11D8417950777
:100F9000A607B70710F3CB88DC88ED88FE888F8919
:100FA000803109F042C0BB27A72F962F852F48011B
:100FB00059012A013B01C80ED91EEA1EFB1E809171
:100FC000000190910101A0910201B0910301C816A6
:100FD000D906EA06FB0699F58F898031C1F5B30180
:100FE000A201552766277727440F551F4C535E4FA4
:100FF000FA01918280828091BF0181608093BF015C
:101000008A89823080F08D819E81AF81B8858C0D78
:101010009D1DAE1DBF1D8093C0019093C101A09383
:10102000C201B093C30181E099CFDB01CA01E7E0BF
:10103000B695A79597958795EA95D1F7B8CF40E0F3
:10104000C701B6010E94C9068111C6CF86CFB30180
:10105000A2014F77552766277727440F551F440F66
:10106000551F4C535E4FFA0180829182A282B38257
:10107000C2CF8F929F92AF92BF92CF92DF92EF92A8
:10108000FF920F931F93CF93DF93FC01818592858D
:10109000A385B4850196A11DB11D84179507A607E8
:1010A000B70770F480E0DF91CF911F910F91FF900F
:1010B000EF90DF90CF90BF90AF909F908F9008956A
:1010C00083889488A588B6888789803189F5BB276D
:1010D000A72F962F852FE9016A017B018F01BC01A3
:1010E000CD01680D791D8A1D9B1D80900001909097
:1010F0000101A0900201B090030186169706A80690
:10110000B90601F5F8018789803111F5DD24EE2457
:10111000FF24F601EE0FFF1FEC53FE4F80819181FB
:10112000B0E0A0E088839983AA83BB8381E0BBCF32
:10113000DB01CA01C7E0B695A79597958795CA9533
:10114000D1F7C9CF40E00E94C9068111DBCFAACFF9
:10115000E894C7F8DD24EE24FF24F601EE0FFF1F0C
:10116000EE0FFF1FEC53FE4F80819181A281B3816E
:10117000BF70D8CF8F929F92AF92BF92CF92DF92E3
:10118000EF92FF920F931F93CF93DF93EC018D812A
:1011900081110EC080E0DF91CF911F910F91FF90E0
:1011A000EF90DF90CF90BF90AF909F908F90089579
:1011B0000B891C892D893E890417150726073707D7
:1011C00048F34A015B01823031F48A869B86AC8603
:1011D000BD8681E0E0CF81149104A104B10449F4FB
:1011E0001E821F82188619861A861B861C861D86FB
:1011F000F0CF0A851B852C853D85EB8DFC8D858583
:1012000090E00996B901A80141505109610971099D
:10121000082E04C076956795579547950A94D2F79E
:1012200075016401E1E0CE1AD108E108F10804C0BB
:10123000F694E794D794C7948A95D2F7C416D50646
:10124000E606F70620F0012B022B032B11F58F8900
:10125000988DA98DBA8D8E839F83A887B9878E01BB
:101260000A5F1F4FC114D104E104F10409F4ADCFAA
:101270004E815F816885798598018B8D9C8D0E9458
:10128000390891E0C91AD108E108F1088111EACFC3
:1012900081CFC41AD50AE60AF70AE1CF3F924F92EE
:1012A0005F926F927F928F929F92AF92BF92CF92F6
:1012B000DF92EF92FF920F931F93CF93DF93CDB7FF
:1012C000DEB72C970FB6F894DEBF0FBECDBF5C0122
:1012D000DC015B968D909C905C9716964D905D908E
:1012E0006D907C901997411451046104710409F4C4
:1012F00068C0BFEF4B1A5B0A6B0A7B0A312CF40102
:1013000081859285A385B4859C01AD012F5F3F4FF8
:101310004F4F5F4F29873A874B875C877301620184
:101320001D821E821F821886F40181859285A38505
:10133000B4852D813E814F815885281739074A078A
:101340005B0708F056C089859A85AB85BC858C15EE
:101350009D05AE05BF0550F482E0C82ED12CE12CCE
:10136000F12C92E0492E512C612C712C9E012F5FA3
:101370003F4FB701A601C4010E9439088823C9F173
:1013800089819A81AB81BC81892B8A2B8B2B09F1B6
:10139000260137019FEF491A590A690A790A2D81F6
:1013A0003E814F8158852F5F3F4F4F4F5F4F2D83B9
:1013B0003E834F8358873FEFC31AD30AE30AF30AE9
:1013C000B3CFF40140805180628073803324339422
:1013D00096CFC414D504E604F70409F70FEF1FEF06
:1013E0002FEF3FE0B701A601C4010E9497078111CA
:1013F00019C080E02C960FB6F894DEBF0FBECDBFAB
:10140000DF91CF911F910F91FF90EF90DF90CF90E0
:10141000BF90AF909F908F907F906F905F904F9014
:101420003F900895D50116964D915D916D917C91F7
:101430001997411551056105710539F0970186012C
:10144000C4010E9497078823A1F2D5011696CD9278
:10145000DD92ED92FC921997332051F0D701C6012D
:101460000196A11DB11DF40180839183A283B383F2
:10147000F5018789908DA18DB28D892B8A2B8B2BBD
:1014800039F48481C78AD08EE18EF28E806884839D
:10149000F50184818062848381E0ACCF1F93CF9378
:1014A000DF93EC01162F8C8187FF2AC06E857F8524
:1014B0008889998941E00E94C906882361F1EA89F7
:1014C00080E2E89FF0011124EC53FE4F309719F1B0
:1014D0008D81823040F48B899C89AD89BE89848F4F
:1014E000958FA68FB78F8F89988D938F828F8F89D5
:1014F000988DA98DBA8DB58BA48B8C818F778C83B9
:10150000111103C08C818F7E8C83812FDF91CF914D
:101510001F910C94A00680E0DF91CF911F91089558
:101520001F93CF93DF93EC018D81813031F090E0F8
:1015300080E0DF91CF911F9108958C8181FFF7CFDB
:1015400082FD1BC090E080E00E9479050E949D050D
:10155000182F90E080E00E948B051F3F41F78C819F
:1015600085FF1EC08D81882321F060E0CE010E949E
:101570004E0A8C818F7D8C83DACF4B895C896D8993
:101580007E898A859B85AC85BD8584179507A607CE
:10159000B707C1F2CE010E94BA088111D3CFC7CFDD
:1015A0004091C0015091C1016091C2017091C3018D
:1015B000452B462B472B21F080E00E947E06B7CFBB
:1015C00080618C832A853B85317080E092E0821BAC
:1015D000930BAFCF9F92AF92BF92CF92DF92EF92D9
:1015E000FF920F931F93CF93DF9300D000D01F92F1
:1015F000CDB7DEB78C016D83DC0115968C91159704
:10160000813009F0B9C014968C9181FFB5C082FD7C
:101610009FC0D8015B96ED91FC915C971A96AD90B6
:10162000BD90CD90DC901D9794809A94B601A50151
:1016300089E076956795579547958A95D1F79422D5
:10164000B1E0BB22992009F49FC0D8015B96ED91CF
:10165000FC915C971696CD90DD90ED90FC901997DB
:10166000B2E0CB1AD108E108F108858504C0CC0CA2
:10167000DD1CEE1CFF1C8A95D2F7468557856089D4
:101680007189C40ED51EE61EF71EC90CD11CE11CC3
:10169000F11CA114B10409F00AC1F8014285538577
:1016A0006485758583899489A589B6894817590702
:1016B0006A077B0708F4FBC081E00E94A00688232C
:1016C00009F45AC0C0920001D0920101E0920201D7
:1016D000F09203018091BF0181608093BF01F50109
:1016E000EC53FE4F8D818083F80182859385A4851C
:1016F000B5850196A11DB11D82879387A487B58703
:101700004389548965897689481759076A077B0791
:1017100038F42481838B948BA58BB68B206824832B
:10172000D80114968C9183FD9FC081E090E00F90CA
:101730000F900F900F900F90DF91CF911F910F910D
:10174000FF90EF90DF90CF90BF90AF909F90089563
:10175000F801438954896589768982859385A485B2
:10176000B585481759076A077B0709F452CFC801A6
:101770000E94BA0881114DCF81E090E0D801139604
:101780009C938E93129749C0D80116964D915D9106
:101790006D917C911997A114B10409F071C04115A4
:1017A00051056105710589F557968D919D910D90B3
:1017B000BC91A02D0097A105B10509F04FC0C8014B
:1017C0000E944E098823C1F2D8015B96ED91FC91ED
:1017D0005C971696CD90DD90ED90FC901997B2E055
:1017E000CB1AD108E108F108858504C0CC0CDD1CBA
:1017F000EE1CFF1C8A95D2F7468557856089718952
:10180000C40ED51EE61EF71E48CF9E012F5F3F4F28
:10181000CF010E943908811103C090E080E087CF9A
:1018200089819A81AB81BC81F801238D348DF901C6
:10183000278948EF5FEF60E070E0203121F048EF4A
:101840005FEF6FEF7FE084179507A607B70730F0CB
:10185000C8010E944E098111F8CE8ECFF80186830F
:101860009783A087B187F1CEF8018581882309F499
:1018700083CF61E0C8010E944E0A811156CF7CCF10
:101880006A017B01B2E0CB1AD108E108F108858535
:1018900004C0CC0CDD1CEE1CFF1C8A95D2F74685DB
:1018A000578560897189C40ED51EE61EF71E41E07A
:1018B000C701B6010E94C906811111CF5DCF2091E9
:1018C0009B01260F3327331F21323105ECF4209181
:1018D0001B04FC0190E080E0243069F082E0089570
:1018E000A0919B012191AC0145585E4FA40FB52FEB
:1018F000B11D2C930196861798F380919B01680F78
:1019000060939B0180E0089581E0089510921B048C
:1019100081E080931A041092F50361E082E10E9455
:10192000270261E083E10E942702E9EBF0E0808179
:101930008E7F808380818D7F808388E48093B80050
:1019400085E48093BC000895CF93DF9391E090935A
:101950007A018823B9F0C091B800D091BA00809183
:10196000BC008A7B8093BC0060E082E10E94270279
:1019700060E083E10E9427020E94860CD093BA00A7
:10198000C093B800DF91CF910895CF92DF92EF928C
:10199000FF920F931F93CF93DF93D091440481E084
:1019A000D13208F09CC0C09143040E9470036B01C7
:1019B0007C0180911B0481116CC082E080931B0428
:1019C00081E080931A048FEF809319041092180419
:1019D000D0931704A3E2B4E0E7EFF3E080E0D8137C
:1019E0008DC01092F6038091F603CC0FC82BC093E4
:1019F000F6038091F503813009F084C01092F5035D
:101A00000E9470036B017C018091F6038093BB0000
:101A100080911D0490911E04A0911F04B091200498
:101A2000892B8A2B8B2BA1F00E94700300911D043F
:101A300010911E0420911F04309120046C197D091F
:101A40008E099F09061717072807390708F442C0AF
:101A50008091BC0083FDD8CF85EC8093BC000E94B0
:101A600070036B017C0180911B04823009F44CC02F
:101A7000809119048F3F09F469C080911904803264
:101A800009F466C080911904803309F463C084E0CE
:101A900026C080911D0490911E04A0911F04B09156
:101AA0002004892B8A2B8B2B09F483CF0E9470038F
:101AB00000911D0410911E0420911F0430912004F8
:101AC0006C197D098E099F09061717072807390722
:101AD00008F06FCF80911C040E94A40C85E0109246
:101AE00022041092440410922104DF91CF911F919F
:101AF0000F91FF90EF90DF90CF9008959D9191937B
:101B00008F5F6DCF85EEA9CF80911D0490911E044B
:101B1000A0911F04B0912004892B8A2B8B2B09F4F0
:101B2000A2CF0E94700300911D0410911E04209109
:101B30001F04309120046C197D098E099F09061736
:101B400017072807390708F08ECFC4CF80E0C7CF2A
:101B500082E0C5CF83E0C3CF0895E091F403809184
:101B6000F303E81730F4F0E0ED52FC4F808190E091
:101B700008958FEF9FEF0895CF92DF92EF92FF923B
:101B80000F931F93CF93DF937C01CB018A012091A8
:101B90002104222389F0EB016B01C40ED51ECC1564
:101BA000DD0569F06991D701ED91FC910190F0811B
:101BB000E02DC7010995F3CF642F0E945F0CC80187
:101BC000DF91CF911F910F91FF90EF90DF90CF9019
:101BD0000895CF93DF931F92CDB7DEB7698320912D
:101BE00021042223F9F020914404203258F021E00E
:101BF00030E0FC013383228390E080E00F90DF919E
:101C0000CF91089580912204E82FF0E0ED5DFB4F25
:101C1000998190838F5F809322048093440481E0B4
:101C200090E0ECCF61E0CE0101960E945F0CF7CF0F
:101C3000682F8EE395E00C94E90DCF93DF93EC01D0
:101C400080918F050E94B4008D2F90E00E94180EA5
:101C5000CE019927DF91CF910C94180ECF93C82F06
:101C600088E60E94B40083E090E00E94180E8C2F5A
:101C70006AE00E9468238295807F682F690F8EE357
:101C800095E00E94E90DCF910C94C50CCF93C62F1F
:101C90000E941D0E6C2F8EE395E00E94E90D0E94BC
:101CA000C50C65E070E080E090E0CF910C94950366
:101CB00090E080E008958F929F92AF92BF92CF9272
:101CC000DF92EF92FF921F93CF93DF93D82F162FBF
:101CD0000E9470036B017C0180911B04811166C01E
:101CE000C12F81E080931B0480931A049FEF90938F
:101CF000190410921804910F909317048093F6031F
:101D00008091F603DD0FD82BD093F6038091F50375
:101D1000813009F082C01092F5030E9470036B01BC
:101D20007C018091F6038093BB0080911D0490910B
:101D30001E04A0911F04B0912004892B8A2B8B2BA9
:101D4000A1F00E94700380901D0490901E04A0904A
:101D50001F04B09020046C197D098E099F09861616
:101D60009706A806B90608F442C08091BC0083FD1E
:101D7000D8CF85EC8093BC000E9470036B017C017E
:101D800080911B04813009F44AC0809118048117A6
:101D900010F4C0911804A7EFB3E0E3EDF3E080E0A6
:101DA0008C1751F19D9191938F5FFACF80911D0413
:101DB00090911E04A0911F04B0912004892B8A2BBE
:101DC0008B2B09F489CF0E94700380901D049090A2
:101DD0001E04A0901F04B09020046C197D098E0988
:101DE0009F0986169706A806B90608F075CF809158
:101DF0001C040E94A40CC0E01092F403C093F303EF
:101E00008C2FDF91CF911F91FF90EF90DF90CF90BB
:101E1000BF90AF909F908F90089585EEABCF80914B
:101E20001D0490911E04A0911F04B0912004892BE1
:101E30008A2B8B2B09F4A4CF0E94700380901D0481
:101E400090901E04A0901F04B09020046C197D098E
:101E50008E099F0986169706A806B90608F090CF46
:101E6000C6CFCF92DF92EF92FF92CF93DF93EC0138
:101E70000E9493046B017C0120E1C20E27E2D21E76
:101E8000E11CF11C81E08093E405CE010E941D0E4F
:101E90000E94C50C61E070E080918F0590919005E3
:101EA0000E945B0E9091F3038091F403981315C088
:101EB0000E949304C616D706E806F90698F7C09163
:101EC0008D051092E4050E94C50C8C2FDF91CF91F7
:101ED000FF90EF90DF90CF9008950E94A100C82F4F
:101EE000F2CF2091F5053091F6058091EF059091A4
:101EF000F00528173907F1F48091F1059091F2056A
:101F00006091EB057091EC050097D1F061157105BA
:101F1000A1F4232BC1F0FC01808190E008C0232BA9
:101F200091F0FB01808190E091958195910921E0EC
:101F3000892B09F020E0822F08950E948D25F7CF8C
:101F40006115710561F721E0F6CFCF93DF93EC01C6
:101F500086E594E00E942601892B29F086E594E02D
:101F60000E940401F5CF209769F0FE010190002046
:101F7000E9F73197AF014C1B5D0BBE0186E594E09C
:101F80000E94C8006FEF86E594E00E9468016FEF41
:101F900086E594E00E9468016FEF86E594E0DF91AA
:101FA000CF910C946801CF93DF93EC0188819981E4
:101FB000009711F00E943E24198218821D821C8213
:101FC0001B821A82DF91CF910895FC01808191815B
:101FD000009711F00C943E2408950F931F93CF9314
:101FE000DF93EC0188819981009759F02A813B8128
:101FF0002617370730F081E0DF91CF911F910F91C5
:1020000008958B016F5F7F4F0E94C724009759F09E
:10201000998388831B830A832C813D81232B59F765
:10202000FC011082E8CF80E0E7CFEF92FF920F93A0
:102030001F93CF93DF936115710541F480E0DF9129
:10204000CF911F910F91FF90EF9008954115510589
:10205000B1F07B01EC010C811D81040F151FB8014B
:102060000E94ED0F882351F3288139818C819D8155
:10207000B701820F931F0E9496251D830C8381E078
:10208000DECFEF92FF920F931F93CF93DF9300D099
:1020900000D0CDB7DEB77C01862F4AE08E010F5FFE
:1020A0001F4FB80190E00E946821F80101900020C4
:1020B000E9F73197AF01401B510BB801C7010E94EE
:1020C0001510811103C0C7010E94D30FC7010F90E3
:1020D0000F900F900F90DF91CF911F910F91FF9074
:1020E000EF900895CF93DF93EC01FB01448155817C
:1020F000608171810E941510811103C0CE010E9480
:10210000D30FCE01DF91CF9108956115710551F084
:10211000FB0101900020E9F73197AF01461B570BF7
:102120000C94151080E00895EF92FF920F931F9387
:10213000CF93DF93EC017B018A01BA010E94ED0F7E
:1021400081110BC0CE010E94D30FCE01DF91CF9140
:102150001F910F91FF90EF9008951D830C83B7019D
:10216000888199810E949625F0CFEF92FF920F937C
:102170001F93CF93DF93CDB7DEB729970FB6F894AF
:10218000DEBF0FBECDBF8C01862FF80111821082F9
:1021900013821282158214824AE09E012F5F3F4F04
:1021A0007901B90190E00E947321F70101900020AC
:1021B000E9F73197AF014E195F09B701C8010E94D5
:1021C000941029960FB6F894DEBF0FBECDBFDF91F5
:1021D000CF911F910F91FF90EF900895FB01DC01CB
:1021E00011961C921E9213961C921E92129715968F
:1021F0001C921E9214978617970749F0608171818F
:102200006115710521F0448155810C949410089555
:10221000FC01118210821382128215821482FB014A
:1022200001900020E9F73197AF01461B570B0C9442
:1022300094108F929F92AF92BF92DF92EF92FF9293
:102240000F931F93CF93DF93CDB7DEB7A8970FB649
:10225000F894DEBF0FBECDBF7C014A018E010F5F37
:102260001F4F8AE0F80111928A95E9F76FE471E057
:10227000CE0183960E9408114AE0B801C4010E9471
:1022800073216BE371E0CE014D960E940811F701B6
:10229000D1806DE371E0CE0147960E940811F701ED
:1022A000F08062E471E0CE010B960E940811BE013D
:1022B000655F7F4FCE0141960E94EE106F2DCE01DB
:1022C00041960E944110BE01695E7F4F0E947210CC
:1022D0006D2D0E944110BE01635E7F4F0E947210FF
:1022E000FC014481558160817181CE0183960E94F9
:1022F0001510CE0141960E94E50FCE010B960E946B
:10230000E50FCE0147960E94E50FCE014D960E9443
:10231000E50F65E471E0CE0183960E948510B80157
:10232000CE0183960E9485108BA19CA10E94A50FCF
:102330000E94EC04182FCE0183960E94E50F812F96
:10234000A8960FB6F894DEBF0FBECDBFDF91CF9138
:102350001F910F91FF90EF90DF90BF90AF909F90F3
:102360008F900895CF92DF92FF920F931F93CF9398
:10237000DF93CDB7DEB7C854D1090FB6F894DEBFEE
:102380000FBECDBF61E08091A5050E94270280911C
:102390009305909194050E94310FD82E8091E40509
:1023A000811157C1E091DC05F091DD05309769F0AE
:1023B0004091E0055091E1056091E2057091E305DF
:1023C0008091DE059091DF05099561E08091A70578
:1023D0000E94270264EF71E080E090E00E94950384
:1023E000E091DC05F091DD05309769F04091E00562
:1023F0005091E1056091E2057091E3058091DE0561
:102400009091DF05099560E08091A7050E94270261
:1024100068EC70E080E090E00E949503E091DC05BC
:10242000F091DD05309769F04091E0055091E105AC
:102430006091E2057091E3058091DE059091DF05E2
:10244000099561E08091A7050E94270264EF71E081
:1024500080E090E00E949503E091DC05F091DD05BD
:10246000309769F04091E0055091E1056091E205F7
:102470007091E3058091DE059091DF05099560E09C
:102480008091A7050E94270280E010E000E0F12C77
:10249000D092E605F092E7050093E8051093E90570
:1024A0008093EA0560E08091A5050E942702809153
:1024B000E405882309F4E9C0F090E7050091E805F8
:1024C0001091E90580916405909158059DAF8EAFFC
:1024D0008FE4C82E81E0D82E2196DFAECEAE2197B4
:1024E00023961FAE1EAE239727961FAE1EAE2797CC
:1024F00029961FAE1EAE299725961FAE1EAE2597B4
:102500004091E60550E070E060E0CE01CD960E947B
:10251000191180915F059091580599AB8AABDCAA9F
:10252000CBAA1EAA1DAA1AAE19AE1CAE1BAE18AEBF
:102530001FAA4F2D50E070E060E0CE01C1960E94CE
:10254000191180916005909158059DA38EA3D8A67E
:10255000CFA21AA619A61EA61DA618AA1FA61CA6BB
:102560001BA6402F50E070E060E0CE0185960E94EF
:1025700019118091610590915805998F8A8FDC8E91
:10258000CB8E1E8E1D8E1AA219A21CA21BA218A2EF
:102590001F8E412F50E070E060E0CE0149960E940E
:1025A000191180916205909158059D878E87D88A70
:1025B000CF861A8A198A1E8A1D8A188E1F8A1C8A3B
:1025C0001B8A4091EA0550E070E060E0CE010D9674
:1025D0000E941911809163059091580599838A830F
:1025E000DC82CB821E821D821A8619861C861B867F
:1025F00018861F82F694F694F69420E4F29EC001A9
:102600001124402F46954695840F911D25E0880F93
:10261000991F2A95E1F7412F469546954695480F13
:10262000592F511D052E000C660B770BCE0101961C
:102630000E941911C85BDF4F0FB6F894DEBF0FBEC2
:10264000CDBFDF91CF911F910F91FF90DF90CF9081
:10265000089580919505909196050E94310FF82E6E
:1026600080919705909198050E94310F082F8091D5
:10267000990590919A050E94310F182F80919B0522
:1026800090919C050E94310F03CF80917A050E94A2
:10269000860264EF71E080E090E00E9495038091F3
:1026A0007A050E94860264EF71E080E090E00E946B
:1026B000950380917A050E94860264EF71E080E0C4
:1026C00090E00E949503B6CFCF93DF93CDB7DEB7EE
:1026D0002C970FB6F894DEBF0FBECDBFEAE4F5E04D
:1026E0002389368539832A832FE431E03C832B8389
:1026F0001E821D821A8619861C861B8618861F82DA
:10270000AC0170E060E0CE0101960E9419112C9698
:102710000FB6F894DEBF0FBECDBFDF91CF91089505
:10272000CF93DF93CDB7DEB72C970FB6F894DEBF0B
:102730000FBECDBFEAE4F5E08189968599838A834F
:102740008FE491E09C838B831E821D821A861986FA
:102750001C861B8618861F824FEF5FEFBA01CE01E1
:1027600001960E9419112C960FB6F894DEBF0FBE89
:10277000CDBFDF91CF910895DF92EF92FF920F933B
:102780001F93CF93DF93CDB7DEB76E970FB6F89454
:10279000DEBF0FBECDBF8C017B016BE471E0CE01CB
:1027A00049960E9408116BE371E0CE0143960E94A6
:1027B0000811F801D1806DE371E0CE010D960E9401
:1027C0000811F801108162E471E0CE0101960E94C7
:1027D0000811BE016F5F7F4FCE0107960E94EE1079
:1027E000612FCE0107960E944110BE01635F7F4FAB
:1027F0000E9472106D2D0E944110BE016D5E7F4FD0
:102800000E947210FC014481558160817181CE016A
:1028100049960E941510CE0107960E94E50FCE0141
:1028200001960E94E50FCE010D960E94E50FCE01A4
:1028300043960E94E50F60E571E0CE0149960E9443
:102840008510898D9A8D0E94A50FC7010E941D05D4
:10285000182FCE0149960E94E50F612F70E090E09D
:1028600080E06E960FB6F894DEBF0FBECDBFDF914D
:10287000CF911F910F91FF90EF90DF900895EF920D
:10288000FF920F931F93CF93DF9300D000D000D01F
:10289000CDB7DEB77C018B016BE471E0CE01019610
:1028A0000E940811F70162817381CE0101960E9496
:1028B000851044E050E060E571E0CE0101960E9491
:1028C000151089819A810E94A50FC8010E941D05DB
:1028D000182FCE0101960E94E50F812F26960FB684
:1028E000F894DEBF0FBECDBFDF91CF911F910F9146
:1028F000FF90EF900895CF92DF92EF92FF920F93A7
:102900001F93CF93DF93CDB7DEB7A8970FB6F89498
:10291000DEBF0FBECDBF6C017B018A018FEF9FEF41
:10292000DC018DA39EA3AFA3B8A7909173058091FE
:102930005705898F9A8F25E531E03C8F2B8F1E8EAE
:102940001D8E1AA219A21CA21BA218A21F8E909162
:1029500074058D879E8729E531E0388B2F871A8A89
:10296000198A1E8A1D8A188E1F8A1C8A1B8A9091BA
:10297000750589839A838DE591E09C838B831E8204
:102980001D821A8619861C861B8618861F82BE0128
:102990006B5D7F4FCE0149960E943F148DA1F601D9
:1029A0008083BE016B5D7F4FCE010D960E943F1468
:1029B0008DA1F7018083BE016B5D7F4FCE01019633
:1029C0000E943F148DA19EA1AFA1B8A58C339105A3
:1029D000A105B10588F4F8018083A8960FB6F89494
:1029E000DEBF0FBECDBFDF91CF911F910F91FF9042
:1029F000EF90DF90CF9008952CE637E0803DF7E030
:102A00009F07A105B10510F020ED37E0309379055F
:102A10002093780520917805821BDDCF85ED80938A
:102A2000BC0080911D0490911E04A0911F04B091E0
:102A300020040796A11DB11D23E0B695A795979593
:102A400087952A95D1F72091BC0024FD03C01092F0
:102A50001B04089540911D0450911E0460911F04B1
:102A600070912004452B462B472B69F30097A10555
:102A7000B10541F02AE22A95F1F700C00197A109BA
:102A8000B109E1CF80911C040C94A40C1F920F9209
:102A90000FB60F9211242F933F934F935F936F9331
:102AA0007F938F939F93AF93BF93EF93FF93809107
:102AB0004A0490914B04A0914C04B0914D04892B91
:102AC0008A2B8B2BD1F190914504E0914604F09133
:102AD000470480818927808380914A0490914B0428
:102AE000A0914C04B0914D04181619061A061B0645
:102AF0009CF480914A0490914B04A0914C04B091B5
:102B00004D040197A109B10980934A0490934B04A5
:102B1000A0934C04B0934D04FF91EF91BF91AF91FE
:102B20009F918F917F916F915F914F913F912F91E5
:102B30000F900FBE0F901F90189580910401E2EC4A
:102B4000F0E0E4919FEF90930401E13051F030F018
:102B5000E23069F060E00E942702DECF10926E0042
:102B6000F9CF90916F009D7F90936F00F3CF90917C
:102B700070009D7F9093700091E09093B0009091D1
:102B8000B100987F94609093B1001092B300E2CFAF
:102B90001F920F920FB60F9211242F933F934F93D2
:102BA0005F936F937F938F939F93AF93BF93EF93B5
:102BB000FF9386E594E00E944601FF91EF91BF915B
:102BC000AF919F918F917F916F915F914F913F91C5
:102BD0002F910F900FBE0F901F9018951F920F927C
:102BE0000FB60F9211242F938F939F93EF93FF9320
:102BF000E0916604F09167048081E0916C04F091AB
:102C00006D0482FD1BC0908180916F048F5F8F7374
:102C100020917004821741F0E0916F04F0E0EA5ACD
:102C2000FB4F958F80936F04FF91EF919F918F9150
:102C30002F910F900FBE0F901F9018958081F4CFA9
:102C40001F920F920FB60F9211242F933F938F93E1
:102C50009F93AF93BF938091C7039091C803A091B6
:102C6000C903B091CA033091C60323E0230F2D3767
:102C700058F50196A11DB11D2093C6038093C7038B
:102C80009093C803A093C903B093CA038091CB0368
:102C90009091CC03A091CD03B091CE030196A11DDC
:102CA000B11D8093CB039093CC03A093CD03B0933D
:102CB000CE03BF91AF919F918F913F912F910F9034
:102CC0000FBE0F901F90189526E8230F0296A11DA6
:102CD000B11DD2CF1F920F920FB60F9211240F90F9
:102CE0000FBE0F901F9018951F920F920FB60F9264
:102CF00011242F933F934F935F936F937F938F9301
:102D00009F93AF93BF93EF93FF938091B900887F18
:102D1000803609F44AC0F0F5883209F4A7C018F5E6
:102D2000803109F49BC0B8F4882309F4F9C08830D5
:102D300009F494C0FF91EF91BF91AF919F918F9152
:102D40007F916F915F914F913F912F910F900FBEA7
:102D50000F901F901895883109F488C0803251F780
:102D60008093190414C0803409F49DC040F480336A
:102D7000B9F38833F9F68093190485ECB0C0803537
:102D800009F485C0883509F496C0883499F60E9404
:102D90000E15D0CF883909F48CC038F5883729F062
:102DA00050F4883611F0803729F683E080931B04B5
:102DB0001092BD0157C0883809F47BC0803919F0E2
:102DC000803809F0B7CF8091BD01803208F071C022
:102DD000E091BD0181E08E0F8093BD018091BB0029
:102DE000F0E0E356FE4F80833DC0803B39F0E0F4D5
:102DF000803A09F479C0883A09F09CCF84E0809346
:102E00001B0410929C0110929B01E091D103F09160
:102E1000D203099580919B0181110FC081E08093BD
:102E20009B0110927B0109C0803C09F4A6CF883C2D
:102E300009F4A3CF883B09F07DCFE0919C0181E0AC
:102E40008E0F80939C01F0E0E558FE4F80818093C7
:102E5000BB0090919C0180919B0129C08091F60359
:102E60008093BB0085EC8093BC0064CF90911804E4
:102E700080911704981758F5E091180481E08E0F9F
:102E800080931804F0E0E950FC4F8081E9CFE09195
:102E9000180481E08E0F809318048091BB00F0E04D
:102EA000E950FC4F80839091180480911704981783
:102EB000C8F285E8D8CFE091180481E08E0F8093A6
:102EC00018048091BB00F0E0E950FC4F80838091B2
:102ED0001A0481115CCF81E08093F50384EA80932A
:102EE000BC0010921B0426CF85EC8093BC0010928E
:102EF0001B048091BD01803230F4E091BD01F0E00F
:102F0000E356FE4F10826091BD0170E0E091CF0367
:102F1000F091D0038DE991E009951092BD010ACF9F
:102F20001092190434CFFF920F931F93CF93DF9326
:102F3000E6E5F4E01382128288EE93E0A0E0B0E0D0
:102F400084839583A683B7832FE031E03183208388
:102F500025EC30E03587248724EC30E0378726875E
:102F600020EC30E0318B208B21EC30E0338B228B56
:102F700022EC30E0358B248B26EC30E0378B268B2F
:102F8000118E128E138E148EE3EFF4E020E5208371
:102F90001182E5EFF4E0158216821186138642E075
:102FA00050E060E070E0448755876687778713A21A
:102FB00015A614A621E231E033A722A717A6EEE357
:102FC000F5E01382128284839583A683B7838DE212
:102FD00091E091838083CAE4D5E00CE008838BE024
:102FE000F82EF9821DE01A831B820E9493046C83E1
:102FF0007D838E839F831886198681E08A8792E07D
:103000009B8733E03C8794E09D8728E02E8799E0FA
:103010009F87088B898B4DE14A8B3B8B38E13C8B3A
:1030200034E13D8B35E13E8B36E13F8B37E1388F24
:1030300033E1398F39E13A8F3AE13B8F3C8F3BE105
:103040003D8F2E8F9F8F9AE098A309A31AA32EE09D
:103050002BA39FE09CA33CE13DA331E13EA330E1E3
:103060003FA332E138A7F9A60AA71BA71DA61CA6F5
:1030700040ED57E05FA74EA737E038AB2AAB1BAA5D
:1030800028E72CABEFE7F5E0DF011D921A95E9F791
:1030900090938C052EEF30E030938E0520938D05B4
:1030A00020E530E03093900520938F051092920533
:1030B00010929105109294051092930521E030E052
:1030C000309396052093950522E030E030939805E3
:1030D0002093970523E030E030939A0520939905DB
:1030E00024E030E030939C0520939B0525E030E000
:1030F00030939E0520939D0520E130E03093A0059C
:1031000020939F053093A2052093A10521E130E093
:103110003093A4052093A3052BE030E03093A6055F
:103120002093A5052DE030E03093A8052093A70556
:103130008093A905EAEAF5E082E3DF011D928A9512
:10314000E9F71092DF051092DE051092E00510926B
:10315000E1051092E2051092E3051092E40580E487
:103160008093E5051092E6051092E7051092E805B8
:103170001092E9051092EA056FE471E08BEE95E09C
:103180000E9408116FE471E081EF95E0DF91CF912B
:103190001F910F91FF900C940811CF93DF93CDB73F
:1031A000DEB7CC56D1090FB6F894DEBF0FBECDBF47
:1031B000789484B5826084BD84B5816084BD85B512
:1031C000826085BD85B5816085BD80916E0081601E
:1031D00080936E00109281008091810082608093C4
:1031E00081008091810081608093810080918000C6
:1031F0008160809380008091B10084608093B100F1
:103200008091B00081608093B00080917A008460EA
:1032100080937A0080917A00826080937A00809116
:103220007A00816080937A0080917A008068809330
:103230007A001092C10068EB7BE080E090E00E9491
:10324000950361E080914A050E94550260E08091FB
:103250004A050E9427021092F4031092F303109281
:103260002204109244040E94860C85EC90E0909316
:10327000D2038093D10386EC90E09093D0038093A7
:10328000CF0361E08091A5050E94550260E0809126
:10329000A5050E94270261E08091A7050E945502C2
:1032A00060E08091A7050E9427028FE090E00197DF
:1032B000F1F70BE811E0C8010197F1F761E08091A7
:1032C0007A050E945502C8010197F1F760E08091EC
:1032D0007C050E9455020E94860C88E60E94B4007C
:1032E00082E090E00E94180E0E94C50C61E070E040
:1032F00088E690E00E945B0E0E94A100182F88E6ED
:103300000E94B40082E090E00E94180E612F6F7B53
:103310008EE395E00E94E90D0E94C50C80E00E94BA
:103320002E0E02E04FECD42E56E0C52E6BE9E62EB1
:103330006FE0F62E80915205811174C0E091660411
:10334000F09167040083E0916204F09163041082BD
:10335000E0916404F0916504D08210926E04E091D3
:103360006A04F0916B04C082E0916804F0916904F2
:10337000808180618083E0916804F091690480819C
:1033800088608083E0916804F0916904808180689E
:103390008083E0916804F091690480818F7D80834F
:1033A0008FE491E00E94A50F81E691E00E94A50FB5
:1033B0000E94EC04182F89E691E00E94A50F0E945C
:1033C000EC041111182F64EF71E080E090E00E948E
:1033D000950310935205112331F0C7010197F1F7BE
:1033E0000E94B211A7CF80917A050E94860264EFF5
:1033F00071E080E090E00E94950380917A050E9440
:10340000860264EF71E080E090E00E949503809175
:103410007A050E94860268E873E180E090E00E94ED
:10342000950388CF8091E405811113C068EE73E0A5
:1034300080E090E00E9495030E94B21180E090E04D
:10344000892B81F30E943201882361F30E940000DE
:10345000E9CF81E090E0A0E0B0E08BAB9CABADABFE
:10346000BEAB80915C059091580599838A833FE4B7
:10347000E32E31E0F32EFC82EB821E821D821A863F
:1034800019861C861B8618861F82BE016D5C7F4FC5
:103490008E010F5F1F4FC8010E94BC138BA98130A2
:1034A00039F468EE73E080E090E00E949503C6CFA7
:1034B0001BAA1CAA1DAA1EAA80915B059091580503
:1034C00099838A83FC82EB821E821D821A8619866A
:1034D0001C861B8618861F82BE016D5C7F4FC8014B
:1034E0000E94BC138BA98093E6058FEF9FEFDC0150
:1034F0006B968CAF9DAFAEAFBFAF6B9790915F05F2
:10350000809158052C968FAF2C972D969FAF2D97B5
:103510002F96FFAEEEAE2F9761961FAE1EAE61974F
:1035200065961FAE1EAE659767961FAE1EAE679777
:1035300063961FAE1EAE6397909160058FAF219684
:103540009FAF21972396FFAEEEAE239725961FAE31
:103550001EAE259729961FAE1EAE29972B961FAE3D
:103560001EAE2B9727961FAE1EAE27979091610532
:103570008BAB9CABFEAAEDAA18AE1FAA1CAE1BAE6D
:103580001EAE1DAE1AAE19AE9091620589839A8364
:10359000FC82EB821E821D821A8619861C861B867F
:1035A00018861F82BE01695A7F4FCE01855B9F4FEF
:1035B0000E94BC136896DFAC6897BE01695A7F4FC2
:1035C000CE01CF960E94BC136896EFAC6897BE01FF
:1035D000695A7F4FCE01C3960E94BC136896FFAC18
:1035E0006897BE01695A7F4FC8010E94BC13689654
:1035F0008FAD6897D092E705E092E805F092E90573
:103600008093EA056091EB057091EC0561157105F9
:1036100009F46CC34091EF055091F00581EF95E0FE
:103620000E9494106091EA05CE01835A9F4F0E9438
:10363000B5106091E905CE01895A9F4F0E94B510DF
:103640006091E805CE01855B9F4F0E94B5106091A7
:10365000E705CE01CF960E94B5106091E605C8013E
:103660000E94B510B801CE01C3960E94EE10BE01B3
:10367000615C7F4FCE01C3960E947210BE01655BF4
:103680007F4F0E947210BE01695A7F4F0E947210D4
:10369000BE01635A7F4F0E947210BC01CE018D594A
:1036A0009F4F0E94EE108091EB059091EC050097E2
:1036B00009F423C3A5966EAD7FADA597611571057D
:1036C00009F419C34091ED055091EE05A9962EAD70
:1036D0003FADA9974217530708F40DC30E949625E2
:1036E000A9968EAD9FADA9979093F0058093EF05B5
:1036F000A9961FAE1EAEA997CE018D599F4F0E946D
:10370000E50FCE01C3960E94E50FC8010E94E50FA8
:103710007E019FE3E90EF11CC7010E94E50FCE0177
:10372000855B9F4F0E94E50FCE01895A9F4F0E94F3
:10373000E50FCE01835A9F4F0E94E50FC8010E94FA
:10374000E50FD090E605A3E0DA1609F463C5AD15E0
:1037500008F4F4C2B1E0DB1609F438C4BD1508F46E
:10376000B1C40E94710F81110BC060E080914A05C5
:103770000E94270262E370E080E090E00E949503DF
:1037800080914D05882321F080917A050E94860260
:103790000E949304C0904E05D0904F05E0905005D4
:1037A000F09051056C157D058E059F0508F446CEF9
:1037B000E0907805F090790588E60E94B40084E0F6
:1037C00090E00E94180E0E94C50C61E070E088E64F
:1037D00090E00E945B0E0E94A100982F92959F702E
:1037E000AAE0DA2E8F70B82E9D9DB00C112488E6C9
:1037F0000E94B40085E090E00E94180E0E94C50C63
:1038000061E070E088E690E00E945B0E0E94A100FB
:10381000982F929597708F70A82E9D9DA00C1124C3
:1038200088E60E94B40086E090E00E94180E0E9494
:10383000C50C61E070E088E690E00E945B0E0E949B
:10384000A100982F92959F708F709D9D800D1124DF
:10385000C82ED12CEC0CFD1C22E09A2C2A1530F03D
:10386000FCE09F2E9A0C81E0E81AF108809168052F
:10387000209158052C962FAF2C972D968FAF2D9712
:103880008FE491E02F969FAF8EAF2F9761961FAE7A
:103890001EAE619765961FAE1EAE659767961FAE0A
:1038A0001EAE679763961FAE1EAE63973091690593
:1038B0002FAF21963FAF219723969FAF8EAF2397CF
:1038C00025961FAE1EAE259729961FAE1EAE2997D0
:1038D0002B961FAE1EAE2B9727961FAE1EAE2797B8
:1038E00030916A052BAB3CAB9EAB8DAB18AE1FAADB
:1038F0001CAE1BAE1EAE1DAE1AAE19AE30916B05DE
:1039000029833A839C838B831E821D821A861986A3
:103910001C861B8618861F824B2D50E070E060E0ED
:10392000CE01855B9F4F0E9419114A2D50E070E037
:1039300060E0CE01CF960E94191140917805509118
:1039400079054C0D5D1D052E000C660B770BCE0125
:10395000C3960E941911292D30E0A9014F5F5F4FD6
:10396000CA01880F991F840F951F65E070E00E94BF
:103970008823220F331F2B0D311D260F371F2E0DCD
:103980003F1DB701F7FE02C06D5F7F4F75956795CC
:1039900075956795260F371FC7016CE97FEF0E9469
:1039A0008823260F371FC70160E971E00E94882332
:1039B000C901860F971F029667E070E00E9474238A
:1039C000AC0170E060E0C8010E94191188E60E9415
:1039D000B40082E090E00E94180E0E94C50C61E0E5
:1039E00070E088E690E00E945B0E0E94A100982F94
:1039F00092959F70A82FAF70FA2E86FF56C49170D3
:103A0000BAE09B9FF00C112488E60E94B40081E08C
:103A100090E00E94180E0E94C50C61E070E088E6FC
:103A200090E00E945B0E0E94A100982F92959F70DB
:103A30003AE0D32E8F70E82E9D9DE00C112488E68D
:103A40000E94B40090E080E00E94180E0E94C50C15
:103A500061E070E088E690E00E945B0E0E94A100A9
:103A6000982F92959F708F709D9D800D1124D82E58
:103A700080916C05209158052FAF21968FAF21972B
:103A80008FE491E023969FAF8EAF239725961FAECC
:103A90001EAE259729961FAE1EAE29972B961FAEF8
:103AA0001EAE2B9727961FAE1EAE279730916D0541
:103AB0002BAB3CAB9EAB8DAB18AE1FAA1CAE1BAEA6
:103AC0001EAE1DAE1AAE19AE30916E0529833A8333
:103AD0009C838B831E821D821A8619861C861B86F8
:103AE00018861F824F2D50E070E060E0CE01CF9627
:103AF0000E9419114E2D50E070E060E0CE01C39697
:103B00000E9419114D2D50E070E060E0C8010E9444
:103B1000191188E60E94B40081E190E00E94180E1D
:103B20000E94C50C62E070E088E690E00E945B0EA7
:103B30009091F3038091F403981709F4BCC30E9499
:103B4000A100F82E0E94A100212CBC01607C7727E7
:103B500062297F29072E000C880B990B0E949F2158
:103B600020E030E040E85BE30E94DA21209170051C
:103B70003091580539832A832FE4E22E21E0F22E7A
:103B8000FC82EB821E821D821A8619861C861B8689
:103B900018861F820E943223AB01770F660B770BCA
:103BA000C8010E94191180918C050E94C703609181
:103BB00083057091840580918505909186052091FB
:103BC00071053091580539832A83FC82EB821E826D
:103BD0001D821A8619861C861B8618861F820E94E3
:103BE0003923AB01BC01C8010E94191180918C05D9
:103BF0000E94C70360917F057091800580918105C7
:103C000090918205209172053091580539832A835D
:103C1000FC82EB821E821D821A8619861C861B86F8
:103C200018861F820E943923AB01BC01C8010E9483
:103C3000191120917E05E22EF12C30E050E040E099
:103C400040907D05512C712C612C80917C058E302B
:103C500008F08E508770806480937C0080917A0099
:103C6000806480937A0080917A0086FDFCCFA091D9
:103C70007800B091790080915E0590915805998304
:103C80008A838FE491E09C838B831E821D821A8637
:103C900019861C861B8618861F8224193509460939
:103CA00057090E94C2222FEF33E040E050E00E940B
:103CB0009822420E531E641E751EA7014419550911
:103CC000052E000C660B770BC8010E9419110E948B
:103CD00093046C507E4F8F4F9F4F60934E057093AF
:103CE0004F058093500590935105A8CB81EF95E047
:103CF0000E94D30F97CC0E943E24A5968EAD9FAD17
:103D0000A5979093EC058093EB05A7968EAD9FAD9C
:103D1000A7979093EE058093ED05A9968EAD9FAD84
:103D2000A9979093F0058093EF05A5961FAE1EAE60
:103D3000A597A7961FAE1EAEA797DACCE4E0DE16D5
:103D400009F46BC2FEEFDF1608F00BCD0E94710F75
:103D5000A82E811115CD8091E505D812FAC082E315
:103D6000F80111928A95E9F78FEF9FEFDC01AD968C
:103D70008CAF9DAFAEAFBFAFAD97C0906605D09092
:103D8000580580916705DBAA8CAB8FE491E09EAB70
:103D90008DAB18AE1FAA1CAE1BAE1EAE1DAE1AAE6A
:103DA00019AEBE0167597F4FCE01C3960E94BC1366
:103DB000AA969FACAA97AB96BFACAB971A82198212
:103DC0006FE471E0CE018D599F4F0E9408116BE4A2
:103DD00071E0CE018D599F4F0E9485106BE371E019
:103DE000C7010E9408116DE371E0CE01855B9F4F12
:103DF0000E94081162E471E0CE01835A9F4F0E9435
:103E00000811BE01635A7F4FCE01895A9F4F0E940D
:103E1000EE106D2DCE01895A9F4F0E944110BE01B8
:103E2000655B7F4F0E9472106C2D0E944110B7019C
:103E30000E947210DC0114964D915C9115976D9162
:103E40007C91CE018D599F4F0E941510CE01895A49
:103E50009F4F0E94E50FCE01835A9F4F0E94E50FAE
:103E6000CE01855B9F4F0E94E50FC7010E94E50FC1
:103E700065E771E0CE018D599F4F0E948510A59690
:103E80008EAD9FADA5970E94A50FC92CDB2C6FE4CA
:103E900071E0C7010E940811C114D104A1F10E9470
:103EA00093042B013C01B12C0E9493046419750901
:103EB000860997096536710581059105A8F486E59F
:103EC00094E00E942601892B09F4EAC186E594E07A
:103ED0000E940401AA2009F4DCC18F3F09F0CAC185
:103EE000B394B2E0BB1558F725964EAD5FAD25975C
:103EF000C416D50608F4A60121966EAD7FAD2197B4
:103F0000C8010E949D25CE01CF960E94E50FCE01EB
:103F10008D599F4F0E94E50FE090A305F090A405F6
:103F2000692D70E08091A1059091A2050E94460E36
:103F3000D12CF801ED0DF11D6081062E000C770BE0
:103F4000C7010E94460EFFEFEF1AFF0AD3949D149B
:103F500080F761E08091A5050E9427026091E70546
:103F600070E080919505909196050E94460E6091B3
:103F7000E80570E080919705909198050E94460EA3
:103F80006091E90570E08091990590919A050E94F1
:103F9000460E6091EA0570E080919B0590919C052A
:103FA0000E94460E6091E60570E080919305909125
:103FB00094050E94460E60E08091A5050E942702AC
:103FC00061E080914A050E942702DACB0E9490139B
:103FD00082E090E00E946413A701BE01655B7F4F01
:103FE000CE01895A9F4F0E947B141BAA1CAA1DAAAE
:103FF0001EAA809165059091570599838A8380E771
:1040000091E09C838B831E821D821A8619861C86F2
:104010001B8618861F82BE016D5C7F4FC8010E94FF
:104020003F14FBA86896BFAC68972C96CFAC2C9732
:10403000DFAC88E60E94B40084E090E00E94180E95
:104040002AE0E22E8B2D6E2D0E9468238295807FC0
:10405000682F690F8EE395E00E94E90D0E94C50C60
:1040600088E60E94B40085E090E00E94180E8C2D36
:104070006E2D0E9468238295807F682F690F8EE3E2
:1040800095E00E94E90D0E94C50C88E60E94B400EC
:1040900086E090E00E94180E8D2D6E2D0E94682300
:1040A0008295807F682F690F8EE395E00E94E90D6D
:1040B0000E94C50C8F2D0E942E0E83E090E00E947E
:1040C00064135ECB0E94901382E090E00E94641320
:1040D000A801BE016D5C7F4FC7010E947B14CFAC6D
:1040E000DBA8E98088E60E94B40082E090E00E94AC
:1040F000180E0E94C50C61E070E088E690E00E9416
:104100005B0E0E94A10086FF7AC021E08BE08C1537
:1041100008F020E09BE09C1510F4A4EFCA0EC1103B
:1041200002C09CE0C92E8C2D6AE00E946823829513
:10413000807F980F30E085E0220F331F8A95E1F7EA
:104140002064F92EF22A88E60E94B40082E090E012
:104150000E94180E6F2D8EE395E00E94E90D0E94DB
:10416000C50C88E60E94B40081E090E00E94180E21
:10417000BAE0FB2E8D2D6F2D0E9468238295807FE3
:10418000682F690F8EE395E00E94E90D0E94C50C2F
:1041900088E60E94B40090E080E00E94180E8E2D08
:1041A0006F2D0E9468238295807F682F690F8EE3B0
:1041B00095E00E94E90D0E94C50C88E60E94B400BB
:1041C0008FE090E00E94180E0E94C50C61E070E044
:1041D00088E690E00E945B0E0E94A100F82E88E61F
:1041E0000E94B4008FE090E00E94180E6F2D6F7750
:1041F0008EE395E00E94E90D0E94C50C5ECF8C2DE8
:104200006AE00E9468238295807F980FF92EE894D7
:10421000F6F899CF0E949013B3CA82E090E00E9412
:1042200064131BAA1CAA1DAA1EAA80916F05909157
:10423000580599838A838FE491E09C838B831E8247
:104240001D821A8619861C861B8618861F82BE014F
:104250006D5C7F4FC8010E94BC1381E04BA95CA933
:104260006DA97EA9452B462B472B09F480E080934E
:104270004D0523CF2C968FAF2C972D961FAE2D97E3
:1042800041E050E0BE01655B7F4FC7010E94151001
:1042900016CEAA24A394803709F411CEA12C0FCEF8
:1042A000E2E0EB1508F000CE1FCE9370EAE09E9F8F
:1042B000F00C1124A9CB60E07CE38CE196EC56CCA9
:1042C00081EF95E00E94E50F8BEE95E00C94E50FF1
:1042D000BB274A3031F4992322F4BDE290958195B1
:1042E0009F4F0C947421BB27FB015527AA27880FE9
:1042F000991FAA1FA41710F0A41B83955051B9F75A
:10430000A05DAA3308F0A95DA193009779F7B111D8
:10431000B1931192CB010C948D21DC01FC01672F2C
:1043200071917723E1F7329704C07C916D9370838C
:104330006291AE17BF07C8F30895E89409C097FBD0
:104340003EF490958095709561957F4F8F4F9F4F6C
:104350009923A9F0F92F96E9BB279395F6958795B0
:1043600077956795B795F111F8CFFAF4BB0F11F473
:1043700060FF1BC06F5F7F4F8F4F9F4F16C088231A
:1043800011F096E911C0772321F09EE8872F762F50
:1043900005C0662371F096E8862F70E060E02AF091
:1043A0009A95660F771F881FDAF7880F969587957D
:1043B00097F908950E94ED210C945E220E945022EC
:1043C00038F00E94572220F0952311F00C944722D8
:1043D0000C944D2211240C9492220E946F2270F3AF
:1043E000959FC1F3950F50E0551F629FF001729F9A
:1043F000BB27F00DB11D639FAA27F00DB11DAA1FA9
:10440000649F6627B00DA11D661F829F2227B00DF5
:10441000A11D621F739FB00DA11D621F839FA00D80
:10442000611D221F749F3327A00D611D231F849FD0
:10443000600D211D822F762F6A2F11249F57504027
:104440009AF0F1F088234AF0EE0FFF1FBB1F661FA2
:10445000771F881F91505040A9F79E3F510580F06B
:104460000C9447220C9492225F3FE4F3983ED4F3DD
:10447000869577956795B795F795E7959F5FC1F70F
:10448000FE2B880F911D9695879597F9089597F9BA
:104490009F6780E870E060E008959FEF80EC0895EA
:1044A00000240A9416161706180609060895002413
:1044B0000A9412161306140605060895092E03948D
:1044C000000C11F4882352F0BB0F40F4BF2B11F401
:1044D00060FF04C06F5F7F4F8F4F9F4F089557FD60
:1044E0009058440F551F59F05F3F71F04795880F62
:1044F00097FB991F61F09F3F79F0879508951216F9
:1045000013061406551FF2CF4695F1DF08C01616A4
:1045100017061806991FF1CF869571056105089455
:104520000895E894BB2766277727CB0197F908956C
:10453000052E97FB1EF400940E94AF2257FD07D072
:104540000E94012307FC03D04EF40C94AF22509537
:104550004095309521953F4F4F4F5F4F089590956F
:104560008095709561957F4F8F4F9F4F08950E9462
:104570002323A59F900DB49F900DA49F800D911DA6
:1045800011240895B7FF0C94B7220E94B722821B12
:10459000930B08952F923F924F925F926F927F926A
:1045A0008F929F92AF92BF92CF92DF92EF92FF9243
:1045B0000F931F93CF93DF93CDB7DEB7CA1BDB0BEF
:1045C0000FB6F894DEBF0FBECDBF09942A88398894
:1045D00048885F846E847D848C849B84AA84B9849B
:1045E000C884DF80EE80FD800C811B81AA81B981A7
:1045F000CE0FD11D0FB6F894DEBF0FBECDBFED01BB
:104600000895A1E21A2EAA1BBB1BFD010DC0AA1F13
:10461000BB1FEE1FFF1FA217B307E407F50720F02B
:10462000A21BB30BE40BF50B661F771F881F991FA6
:104630001A9469F760957095809590959B01AC01EF
:10464000BD01CF010895A29FB001B39FC001A39FF8
:10465000700D811D1124911DB29F700D811D1124BB
:10466000911D08950E9439236894B1110C949222EF
:1046700008950E94772288F09F5798F0B92F9927C4
:10468000B751B0F0E1F0660F771F881F991F1AF03D
:10469000BA95C9F714C0B13091F00E949122B1E0EF
:1046A00008950C949122672F782F8827B85F39F0EE
:1046B000B93FCCF3869577956795B395D9F73EF4D6
:1046C00090958095709561957F4F8F4F9F4F08957E
:1046D000991B79E004C0991F961708F0961B881F54
:1046E0007A95C9F780950895AA1BBB1B51E107C0B5
:1046F000AA1FBB1FA617B70710F0A61BB70B881F72
:10470000991F5A95A9F780959095BC01CD01089500
:1047100097FB072E16F4009407D077FD09D00E946E
:10472000742307FC05D03EF4909581959F4F089522
:10473000709561957F4F0895EE0FFF1F0590F491DE
:10474000E02D09940F931F93CF93DF93823091054F
:1047500010F482E090E0E091F905F091FA0530E084
:1047600020E0B0E0A0E0309799F42115310509F47C
:104770004AC0281B390B24303105D8F58A819B812A
:104780006115710589F1FB0193838283FE0111C0DC
:10479000408151810281138148175907E0F0481781
:1047A000590799F4109761F012960C93129713968B
:1047B0001C933296CF01DF91CF911F910F910895F5
:1047C0000093F9051093FA05F4CF2115310551F046
:1047D0004217530738F0A901DB019A01BD01DF013F
:1047E000F801C1CFEF01F9CF9093FA058093F90555
:1047F000CDCFFE01E20FF31F819391932250310937
:1048000039832883D7CF2091F7053091F805232BE2
:1048100041F420910701309108013093F80520936D
:10482000F70520910501309106012115310541F46C
:104830002DB73EB74091090150910A01241B350B59
:10484000E091F705F091F805E217F307A0F42E1BAD
:104850003F0B2817390778F0AC014E5F5F4F2417E4
:10486000350748F04E0F5F1F5093F8054093F7054A
:10487000819391939FCFF0E0E0E09CCFCF93DF93C3
:104880000097E9F0FC01329713821282A091F9059A
:10489000B091FA05ED0130E020E01097A1F42081FD
:1048A0003181820F931F2091F7053091F805281769
:1048B000390709F061C0F093F805E093F705DF913F
:1048C000CF910895EA01CE17DF07E8F54A815B81B1
:1048D0009E0141155105B1F7E901FB83EA83499136
:1048E0005991C40FD51FEC17FD0761F480819181A8
:1048F0000296840F951FE9019983888382819381B1
:104900009B838A83F0E0E0E012968D919C9113974F
:104910000097B9F52D913C911197CD010296820F28
:10492000931F2091F7053091F8052817390739F6BC
:10493000309751F51092FA051092F905B093F805E9
:10494000A093F705BCCFD383C28340815181840FEC
:10495000951FC817D90761F44E5F5F4F8881998111
:10496000480F591F518340838A819B81938382839F
:104970002115310509F0B0CFF093FA05E093F90560
:104980009ECFFD01DC01C0CF13821282D7CFB0E0F1
:10499000A0E0EDECF4E20C94CC228C01009751F4F1
:1049A000CB010E94A2238C01C801CDB7DEB7E0E1A4
:1049B0000C94E822FC01E60FF71F9C0122503109FC
:1049C000E217F30708F49DC0D901CD91DC9111974E
:1049D000C617D70798F0C530D10530F3CE0104973C
:1049E0008617970708F3C61BD70B2297C193D1935D
:1049F0006D937C93CF010E943E24D6CF5B01AC1A0D
:104A0000BD0A4C018C0E9D1EA091F905B091FA05CE
:104A1000512C412CF12CE12C109731F58091F705A8
:104A20009091F8058815990509F05CC0461657065F
:104A300008F058C08091050190910601009741F45B
:104A40008DB79EB74091090150910A01841B950BC7
:104A5000E817F90708F055C0F093F805E093F7055B
:104A6000F90171836083A0CF8D919C91119712966B
:104A70006C90129713967C901397A815B90559F569
:104A80006C0142E0C40ED11CCA14DB0420F1AC015D
:104A90004A195B09DA011296159780F062827382D7
:104AA00051834083D9016D937C93E114F10471F03B
:104AB000D7011396FC93EE93129776CF22968C0F24
:104AC0009D1FF90191838083F301EFCFF093FA05E5
:104AD000E093F90569CF4816590608F42C017D01C9
:104AE000D3019ACFCB010E94A2237C01009749F009
:104AF000AE01B8010E948425C8010E943E248701AE
:104B000053CF10E000E050CFFB01DC0102C0019068
:104B10000D9241505040D8F70895FB01DC018D9172
:104B2000019080190110D9F3990B0895FB01DC0164
:104B300001900D920020E1F70895FB01DC01415046
:104B4000504048F001900D920020C9F701C01D921D
:104B500041505040E0F7089510E0C3E6D0E004C0B3
:104B6000FE010E949C232196C436D107C9F7F89410
:024B7000FFCF75
:104B7200FFFFFFFFFF0000FB058000000000006850
:104B820001C800F500B5012601040118010000006A
:104B920000EA0AC800900AC70000000000E90DBC44
:104BA2000D580EAC0DBE008E00AD0D5D005D2E6287
:104BB2005B00705B002E76616C3D006765742000BF
:104BC2002E76616C0073444800734D4D007341535F
:104BD20000626B636D643D31007061676520300077
:0A4BE20073446F57002E74787400BE
:00000001FF
