:020000040000FA
:100000000C94E4000C940C010C940C010C940C0165
:100010000C940C010C940C010C940C010C94A21186
:100020000C940C010C940C010C940C010C940C011C
:100030000C940C010C940C010C940C010C940C010C
:100040000C9458110C940C010C940C010C940C01A0
:100050000C940C010C940C010C940C010C940C01EC
:100060000C9422120C940C0102000000000000000D
:100070000000000000000000000000000000000080
:10008000000101010101010101010101010202025E
:10009000020202020203030303030304040404052F
:1000A00005050505060606060707070808080909E5
:1000B000090A0A0A0B0B0B0C0C0D0D0D0E0E0F0F7F
:1000C00010101111121213131414151516161718F7
:1000D0001819191A1B1B1C1D1D1E1F1F202122224F
:1000E00023242526262728292A2A2B2C2D2E2F307B
:1000F0003132333435363738393A3B3C3D3E3F4078
:1001000041424445464748494B4C4D4E505152544C
:10011000555658595A5C5D5E606163646667696AEA
:100120006C6D6F7072737577787A7C7D7F81828455
:100130008688898B8D8F91929496989A9C9EA0A286
:10014000A4A6A8AAACAEB0B2B4B6B8BABCBFC1C37C
:10015000C5C7CACCCED1D3D5D7DADCDFE1E3E6E838
:10016000EBEDF0F2F5F7FAFCFF00000000240027A9
:10017000002A0000000000250028002B00000000DD
:1001800000230026002900040404040404040402DB
:100190000202020202030303030303010204081024
:1001A00020408001020408102001020408102000F1
:1001B0000000080002010000030407000000000026
:1001C000000000004014371611241FBECFEFD8E006
:1001D000DEBFCDBF11E0A0E0B1E0E4EDF7E302C087
:1001E00005900D92AE31B107D9F723E0AEE1B1E051
:1001F00001C01D92A336B207E1F710E0C3EED0E0D4
:1002000004C02197FE010E94DC19C23ED107C9F744
:100210000E947B140C94DD1B0C9400009C01215067
:1002200031099FE0929FA001939F500D112480FD02
:1002300006C061507109CA01860F971F08952FE00B
:1002400030E0C901861B970BBC01F5CF833081F0EC
:1002500028F4813099F08230A9F008958730A9F010
:100260008830C9F08430B1F4809180008F7D03C064
:10027000809180008F7780938000089584B58F7778
:1002800084BD089584B58F7DFBCF8091B0008F77BA
:100290008093B00008958091B0008F7DF9CFCF9307
:1002A000DF9320916C0230E0F901E155FE4F84911B
:1002B000F901E556FE4FD491F901E957FE4FC4917B
:1002C000CC2379F081110E942601EC2FF0E0EE0F93
:1002D000FF1FE358FE4FA591B491EC91ED2381E00F
:1002E00009F480E08170DF91CF9108951F93CF933F
:1002F000DF93282F30E0F901E155FE4F8491F90199
:10030000E556FE4FD491F901E957FE4FC491CC2335
:10031000A9F0162F81110E942601EC2FF0E0EE0FBC
:10032000FF1FED58FE4FA591B4918FB7F894EC9153
:10033000111108C0D095DE23DC938FBFDF91CF91E0
:100340001F910895DE2BF8CFCF93DF9390E0FC014F
:10035000E556FE4F249189579E4FFC0184918823D6
:10036000D1F090E0880F991FFC01E759FE4FA5914D
:10037000B491FC01ED58FE4FC591D49161110EC0AE
:100380009FB7F8948C91E22FE0958E238C9328816F
:10039000E223E8839FBFDF91CF9108958FB7F89450
:1003A000EC91E22BEC938FBFF6CF3FB7F89480919E
:1003B0009C0190919D01A0919E01B0919F0126B555
:1003C000A89B05C02F3F19F00196A11DB11D3FBF8D
:1003D000BA2FA92F982F8827BC01CD01620F711D5C
:1003E000811D911D42E0660F771F881F991F4A9556
:1003F000D1F708958F929F92AF92BF92CF92DF92E2
:10040000EF92FF926B017C010E94D5014B015C01D0
:10041000C114D104E104F104B9F00E94D5016819B6
:1004200079098A099B09683E73408105910580F32B
:1004300021E0C21AD108E108F10888EE880E83E0B5
:10044000981EA11CB11CE4CFFF90EF90DF90CF90DD
:10045000BF90AF909F908F90089508950895209138
:100460006901260F3327331F21323105ECF4209127
:10047000C601FC0190E080E0243069F082E008953C
:10048000A09169012191AC01475B5E4FA40FB52F8C
:10049000B11D2C930196861798F380916901680F1E
:1004A0006093690180E0089581E008951092C6018B
:1004B00081E08093C5011092A00161E082E10E9479
:1004C000760161E083E10E947601E9EBF0E0808152
:1004D0008E7F808380818D7F808388E48093B800C5
:1004E00085E48093BC000895CF93DF9391E09093CF
:1004F00048018823B9F0C091B800D091BA0080912A
:10050000BC008A7B8093BC0060E082E10E9476019F
:1005100060E083E10E9476010E945602D093BA0007
:10052000C093B800DF91CF910895CF92DF92EF9200
:10053000FF920F931F93CF93DF93D091EF0181E050
:10054000D13208F09CC0C091EE010E94D5016B0130
:100550007C018091C60181116CC082E08093C6014C
:1005600081E08093C5018FEF8093C4011092C30195
:10057000D093C201AEECB1E0E2EAF1E080E0D81342
:100580008DC01092A1018091A101CC0FC82BC09306
:10059000A1018091A001813009F084C01092A001D6
:1005A0000E94D5016B017C018091A1018093BB0069
:1005B0008091C8019091C901A091CA01B091CB016D
:1005C000892B8A2B8B2BA1F00E94D5010091C801A9
:1005D0001091C9012091CA013091CB016C197D099C
:1005E0008E099F09061717072807390708F442C024
:1005F0008091BC0083FDD8CF85EC8093BC000E9425
:10060000D5016B017C018091C601823009F44CC098
:100610008091C4018F3F09F469C08091C401803288
:1006200009F466C08091C401803309F463C084E09A
:1006300026C08091C8019091C901A091CA01B091D2
:10064000CB01892B8A2B8B2B09F483CF0E94D501F8
:100650000091C8011091C9012091CA013091CB01CC
:100660006C197D098E099F09061717072807390796
:1006700008F06FCF8091C7010E94740285E010924C
:10068000CD011092EF011092CC01DF91CF911F911B
:100690000F91FF90EF90DF90CF9008959D919193EF
:1006A0008F5F6DCF85EEA9CF8091C8019091C90170
:1006B000A091CA01B091CB01892B8A2B8B2B09F415
:1006C000A2CF0E94D5010091C8011091C9012091CB
:1006D000CA013091CB016C197D098E099F0906175B
:1006E00017072807390708F08ECFC4CF80E0C7CF9F
:1006F00082E0C5CF83E0C3CF0895E0919601809159
:100700009501E81730F4F0E0E85DFE4F808190E05D
:1007100008958FEF9FEF0895909196018091950134
:100720002FEF3FEF981748F4E92FF0E0E85DFE4F18
:10073000208130E09F5F90939601C90108958091D8
:10074000950190919601891B990B0895CF92DF92A4
:10075000EF92FF920F931F93CF93DF937C01CB0116
:100760008A012091CC01222389F0EB016B01C40E98
:10077000D51ECC15DD0569F06991D701ED91FC918D
:100780000190F081E02DC7010995F3CF642F0E94FD
:100790002F02C801DF91CF911F910F91FF90EF9031
:1007A000DF90CF900895CF93DF931F92CDB7DEB740
:1007B00069832091CC012223F9F02091EF012032AE
:1007C00058F021E030E0FC013383228390E080E0A8
:1007D0000F90DF91CF9108958091CD01E82FF0E047
:1007E000E253FE4F998190838F5F8093CD01809378
:1007F000EF0181E090E0ECCF61E0CE0101960E9434
:100800002F02F7CF90E080E00895FF920F931F939F
:10081000CF93DF93EC01FF24F394F60E28852F1578
:1008200081F109851A85215041F16F3FE1F430E0F3
:1008300050E040E06FEF7FEF80E090E00E940C1806
:10084000B901F8014C815D81CF01801B910B8417A8
:100850009507B0F44081469FC001479F900D112439
:1008600090833196EFCF8F2D90E0982F88270197B6
:10087000622F70E00E94B419E4CF70E060E0E1CF35
:10088000F886DF91CF911F910F91FF9008958F927D
:100890009F92AF92BF92CF92DF92EF92FF92CF934F
:1008A000DF93FC018281938168177907D8F54A01AB
:1008B000AA24BB24C32ED42EE52EFF24DC2DC22F68
:1008C0008085982D882391F0C82FD0E0C89DD00155
:1008D000C99DB00DD89DB00D11249B2F8C9D60013A
:1008E0001124DD2D829F90011124C32FA68521851F
:1008F00032858385A81321C0AB01440F551F640FB7
:10090000751F620F731FA385A60FB72FB11D9C9390
:10091000A485A60FB72FB11DDC938585680F711DC7
:10092000FB01C083DF91CF91FF90EF90DF90CF90DC
:10093000BF90AF909F908F900895660F771F660FBE
:10094000771F620F731FA60FB72FB11D1C92DBCF4D
:10095000CF92DF92EF92FF92CF93DF93C82FD62FE3
:10096000C42E80918A028150281729F0622F82E8D4
:1009700092E00E940504D12CF12CE12CDD2AEC2A16
:10098000C2EDD0E0A7019601BE0182E892E00E948C
:1009900047042196C63ED105A9F7DF91CF91FF907C
:1009A000EF90DF90CF900895CF92DF92EF92FF9279
:1009B0000F931F93CF93DF93C82F60915F02009135
:1009C0005902C0905A0210915B0280918A028150B4
:1009D000861721F082E892E00E940504D0E0D12C35
:1009E000F12CE12CFE2CED2CDC2CCC24E02AC12AAD
:1009F000A7019601BE0182E892E00E944704219679
:100A0000C63ED105A9F7DF91CF911F910F91FF90BD
:100A1000EF90DF90CF900895CF92DF92EF92FF9208
:100A20000F931F93CF93DF93CDB7DEB729970FB600
:100A3000F894DEBF0FBECDBF8C01DC0119968D91FD
:100A40009C91892B09F473C00E94D501F801C784D9
:100A5000D088E188F2886C157D058E059F0520F40D
:100A60006787708B818B928BF801C784D088E1886F
:100A7000F2886C197D098E099F096C3271408105DD
:100A8000910510F3F894D80114968D919C911597C7
:100A90009A8389831996ED91FC917F01BFEFEB1A40
:100AA000FB0A80818987F80190810388F489E02D11
:100AB000D80155968C91992309F448C09081982BC0
:100AC00098879081809589238F838F818C8388E09C
:100AD0008B8358856F8149853B812C8189819A81DF
:100AE000D701508347FD252F3A952083262F39F0D3
:100AF000441F00C000006083000000C0F2CF38E057
:100B00004D9160830000019761F7D8015496FC93E2
:100B1000EE93539749873B832C839A8389837894F8
:100B20000E94D501F8016787708B818B928B299683
:100B30000FB6F894DEBF0FBECDBFDF91CF911F91EE
:100B40000F91FF90EF90DF90CF9008959081982BB8
:100B500098879081809589238F838F818E8388E009
:100B60008D8358856F8149853D812E8189819A8148
:100B7000D701508347FD252F00C000C0208300C04F
:100B800000C000C000C000C060830000262F3A955E
:100B900041F0441F000000C000C000C000C000C001
:100BA000E8CF38E04D9100C0608300C0019709F79D
:100BB000D8015496FC93EE93539749873D832E8337
:100BC000ACCFCF93DF93EC0182E892E00E940C055A
:100BD000BE01DD0F880B990BDF91CF910C94FA01C8
:100BE0003F924F925F926F927F928F929F92AF92BD
:100BF000BF92CF92DF92EF92FF920F931F93CF930A
:100C0000DF93982E862E342E122F80918A028150E7
:100C1000281729F0622F82E892E00E9405042AE951
:100C2000C22E22E0D22EEE24E394F12CF601A19004
:100C3000B1906F01CFE0D0E060E170E06C1B7D0B04
:100C4000C5010C2E02C0969587950A94E2F780FFA5
:100C500048C08091B8029091B9020C2E02C09695BE
:100C600087950A94E2F780FD40C080E020E09FEF86
:100C7000492E512C712C612C762C652C542C44243B
:100C8000622A482AC7010E940E01A3019201BC01F9
:100C900082E892E00E944704219771F62FEFE21A52
:100CA000F20A8FE0E816F10409F0C0CF212F432D9E
:100CB000682D892D0E94A80484EF91E0DF91CF91E7
:100CC0001F910F91FF90EF90DF90CF90BF90AF906A
:100CD0009F908F907F906F905F904F903F900C947B
:100CE000E105802F202F902FC3CF832D282D992D04
:100CF000BFCF0F93FC01AAE9B2E088EB92E01D920E
:100D00001D928A179B07D9F720915F0280915902A3
:100D100060915A0240915B023197ED31F10508F084
:100D200074C0EB56F94F0C94DC19B206C106CE061E
:100D3000E306F006FF060E071107240727072A0718
:100D400005072D07340737073E074B074E075107A6
:100D500054075707600769077E0781078A078D07D1
:100D600090079307E1E0F0EEF0939F02E0939E027C
:100D7000F093A102E093A002F093A302E093A202F9
:100D800044C0EFE7F0E0F0939F02E0939E02E3E0BF
:100D9000F0E0F093A102E093A00237C0E1E0F0EEB2
:100DA000F093A502E093A402F093A702E093A602B9
:100DB000E1E0F0ECF093A902E093A802F093AB021B
:100DC000E093AA0222C0E7E0F0E0F093AB02E093E8
:100DD000AA02EFE0F0E0F093AD02E093AC0215C0A0
:100DE000EFE0F0E0F093AF02E093AE02F093B102D7
:100DF000E093B002F093B302E093B20206C0E9E3DD
:100E0000F0E0F093B502E093B40202E30E94F00533
:100E10000E944F018111FCCF0F910895E1ECF1E0A8
:100E2000F0CFE1E8F3E0F093AB02E093AA02E1E84F
:100E3000FFE0F093AD02E093AC02E1E0FFE0F0935D
:100E4000AF02E093AE02E1CFE1EFF0E0F8CFE9E1ED
:100E5000F0E0B4CFE1E7F0E0BECFE1E8F0E0F093FE
:100E6000A702E093A602D1CFE1EFF7E0BFCFEFE119
:100E7000F0E0F093A502E093A402C7CFE1E0F2E036
:100E8000F093A302E093A202EFE0F0E0F093A90256
:100E9000E093A802BACFE7E0F0E0E1CFE9E3F0E0C9
:100EA000DECFE7E0F0E0ADCFE1E3F0E0EFCFE1E06F
:100EB000FFE0F0939F02E0939E02E1E0FCE169CF46
:100EC000E1ECF1E0F093A902E093A802E1E6F0E0A2
:100ED00075CFE1E0F2E0F093A702E093A602E1E033
:100EE000FEE0F093A902E093A802E1E0FCE0F093B9
:100EF000AB02E093AA02E1E0F8E06DCFE1E0F1E0BF
:100F0000AECFE1E2F0E0F093A502E093A402E1E0CD
:100F1000F0E254CFE5E0F0E03CCFE1E6F0E02CCFAA
:100F2000E1E0F1E036CFE1E4F0E0A3CF20916A0206
:100F300030916B0280916402909165022817390705
:100F4000F1F4809166029091670260916002709165
:100F500061020097D1F061157105A1F4232BC1F056
:100F6000FC01808190E008C0232B91F0FB0180817F
:100F700090E091958195910921E0892B09F020E07D
:100F8000822F08950E94CD1BF7CF6115710561F77F
:100F900021E0F6CF2F923F924F925F926F927F9215
:100FA0008F929F92AF92BF92CF92DF92EF92FF9279
:100FB0000F931F93CF93DF938C010E9496078111AB
:100FC000F8C088EF9AE2A0E0B0E08093100390931D
:100FD0001103A0931203B0931303662463940E9439
:100FE0004F01882309F4E5C080911003909111030B
:100FF000A0911203B0911303813127E29207A1055A
:10100000B1050CF4C6C00733110579F00A33110598
:1010100009F46AC081E0682610921003109211034F
:101020001092120310921303DACF20905F025090B7
:10103000590240905A0230905B0280918A0281509E
:10104000821529F0622D82E892E00E940504C1E039
:10105000D0E0932C842C752C611006C0A4E19A2E4C
:10106000B4E18B2E84E1782EAA24A394B12CC82C51
:10107000D12CF12CE12CFE2CED2CDC2CCC24E728FF
:10108000C928BE01C5010E940E01A7019601BC013D
:1010900082E892E00E9447045714E9F0752C481446
:1010A000E9F0842C3914E9F0932C8FEFA81AB80AD0
:1010B0002FE0A216B104D9F62196C031D10549F628
:1010C000222D432D642D852D0E94A80484EF91E0EC
:1010D0000E94E1059FCF74E1772EE1CF64E1862E77
:1010E000E1CF54E1952EE1CF20905F02509059025C
:1010F00040905A0230905B0280918A0281508215A2
:1011000029F0622D82E892E00E940504AA24A394AB
:10111000B12CD32DC42D752C611004C0D4E1C4E1D1
:1011200034E1732E88248394912CCC2ED12CF12C75
:10113000E12CFE2CED2CDC2CCC24E728CD2AB401AC
:10114000C5010E940E01A7019601BC0182E892E050
:101150000E9447045714B1F0752C4C16B1F0C42D01
:101160003D16A9F0D32D8FEF881A980A20E1821638
:101170009104D9F68FEFA81AB80A2FE0A216B1048D
:1011800041F69ECF84E1782EE8CFC4E1E9CFD4E1E7
:10119000EACF0196A11DB11D809310039093110316
:1011A000A0931203B09313038BE891E00197F1F73A
:1011B00016CFDF91CF911F910F91FF90EF90DF90AD
:1011C000CF90BF90AF909F908F907F906F905F90E7
:1011D0004F903F902F90089585ED8093BC008091B3
:1011E000C8019091C901A091CA01B091CB010796A5
:1011F000A11DB11D23E0B695A795979587952A95D2
:10120000D1F72091BC0024FD03C01092C6010895BF
:101210004091C8015091C9016091CA017091CB0100
:10122000452B462B472B69F30097A105B10541F0EB
:101230002AE22A95F1F700C00197A109B109E1CF8F
:101240008091C7010C9474024F925F926F927F92CB
:101250008F929F92AF92BF92EF92FF920F931F9344
:10126000CF938C01C62F672F8FB7F8948090980189
:1012700090909901A0909A01B0909B018FBF80E15E
:10128000880E87E2981EA11CB11C7801E7E5EE0EDE
:10129000F11C81E0F7018083F80192818093CC01F9
:1012A0009093EE011092CD011092EF0180EF91E04A
:1012B0000E94D3036C2F80EF91E00E94D3030E9421
:1012C0009502F801C2810E94D5012B013C01809159
:1012D000C601811164C081E08093C6018093C5017D
:1012E0009FEF9093C4011092C3011092C2018093AA
:1012F000A1018091A101CC0FC82BC093A1018091C5
:10130000A001813009F0A0C01092A0010E94D50177
:101310002B013C018091A1018093BB008091C80109
:101320009091C901A091CA01B091CB01892B8A2B60
:101330008B2BA1F00E94D5012091C8013091C901E9
:101340004091CA015091CB0164197509860997092A
:10135000261737074807590708F442C08091BC0098
:1013600083FDD8CF85EC8093BC000E94D5012B0172
:101370003C018091C601813009F468C08091C301AD
:10138000811186C08091C301A2EAB1E0E8E2F1E0F8
:1013900090E0981751F12D9121939F5FFACF8091A2
:1013A000C8019091C901A091CA01B091CB01892BCC
:1013B0008A2B8B2B09F48BCF0E94D5012091C80179
:1013C0003091C9014091CA015091CB01641975094E
:1013D00086099709261737074807590708F077CF76
:1013E0008091C7010E94740280E010929601809360
:1013F0009501909195018091960198134BC02FB75C
:10140000F8948091980190919901A0919A01B091DE
:101410009B012FBF88169906AA06BB0650F7F80154
:10142000C081F70110820E9495028C2FCF911F91ED
:101430000F91FF90EF90BF90AF909F908F907F9013
:101440006F905F904F90089585EE8DCF8091C80189
:101450009091C901A091CA01B091CB01892B8A2B2F
:101460008B2B09F486CF0E94D5012091C8013091C1
:10147000C9014091CA015091CB01641975098609CF
:101480009709261737074807590708F072CFA8CFE2
:1014900081E07ACF80EF91E00E948C03C82FC3CF08
:1014A0002F923F924F925F926F927F928F929F9274
:1014B000AF92BF92CF92DF92EF92FF920F931F9362
:1014C000CF93DF93CDB7DEB7C755D1090FB6F894E8
:1014D000DEBF0FBECDBF2DB73EB766963FAF2EAF76
:1014E00066978136910509F4BFC608F090C086342E
:1014F000910509F4A7C608F060C08733910509F487
:101500000AC220F58133910509F4DCC084339105CA
:1015100009F4ECC0892B11F510E000E020E030E088
:10152000A901B80189E293E00E9447040F5F1F4FB1
:10153000063E110599F789E293E00E940C0564EFDD
:1015400071E080E090E00E94FA0108C08D339105BF
:1015500009F4E9C130F5CA9709F4E2C166962EADE7
:101560003FAD66970FB6F8943EBF0FBE2DBFC95A68
:10157000DF4F0FB6F894DEBF0FBECDBFDF91CF9126
:101580001F910F91FF90EF90DF90CF90BF90AF90A1
:101590009F908F907F906F905F904F903F902F9093
:1015A00008958034910509F4CAC383349105B1F6D6
:1015B00081E090E00E947906D1CF8235910509F44F
:1015C0004AC670F48C34910509F43FC68F349105F6
:1015D00009F43EC68934910509F685E190E0EACF29
:1015E0008835910509F43AC638F48535910509F036
:1015F000B5CF8AE090E0DECF8B35910509F431C696
:101600008E35910509F0AACF89E090E0D3CF8C37D1
:10161000910509F43BC658F58D36910509F42DC6A0
:1016200078F48736910509F422C68A36910509F4C3
:1016300021C68436910509F091CF8DE090E0BACFB4
:101640008337910509F41CC638F48037910509F0F9
:1016500085CF84E090E0AECF8637910509F413C6BC
:101660008937910509F07ACF8DE190E0A3CF8838D2
:10167000910509F414C678F48238910509F409C675
:101680008538910509F408C68F37910509F066CFB2
:1016900088E090E08FCF8E38910509F403C638F4C6
:1016A0008B38910509F05ACF83E190E083CF8139DF
:1016B000910509F4FAC58439910509F04FCF8CE101
:1016C00090E078CF0E949607811106C00E94D40452
:1016D00084EF91E00E94E1050BE31DE0C801019752
:1016E000F1F70E944F018111F9CF38CF0E94960780
:1016F000811134CF88EF9AE2A0E0B0E0809310032C
:1017000090931103A0931203B09313038AE090E027
:101710009FAF8EAFB4E62B2E312C0E944F01882351
:1017200009F41CCF8091100390911103A091120332
:10173000B09113038938E3E19E07A105B1050CF4CC
:10174000DAC0B101032C000C880B990B0E9413170F
:1017500020E030E048EC52E40E9413194B015C0198
:1017600064E670E062197309072E000C880B990B70
:101770000E94131720E030E048EC52E40E94131955
:101780006B017C016091590270E090E080E00E9462
:10179000131724966CAF7DAF8EAF9FAF24979B013C
:1017A000AC01C501B4010E944E170E948519062F95
:1017B00060915A0270E090E080E00E941317289632
:1017C0006CAF7DAF8EAF9FAF28979B01AC01C50179
:1017D000B4010E944E170E948519162F60915B027A
:1017E00070E090E080E00E9413172B013C01AC01F7
:1017F0009B01C501B4010E944E170E948519B62EA7
:1018000024962CAD3DAD4EAD5FAD2497C701B6011A
:101810000E944E170E948519A62E28962CAD3DAD2C
:101820004EAD5FAD2897C701B6010E944E170E94CA
:101830008519962EA3019201C701B6010E944E1789
:101840000E948519762E60915F0280918A028150F4
:10185000681721F082E892E00E940504DB2C812EBB
:10186000C02EF12CE12C282D30E050E040E0542F28
:10187000432F322F22274C292D29B70182E892E0ED
:101880000E944704C01231C0CA2C811230C0892C7A
:10189000DB102FC0D72CFFEFEF1AFF0A22EDE21664
:1018A000F10409F720915F0244EC68EF89E60E9499
:1018B000A80484EF91E00E94E105C101EEADFFAD07
:1018C0008E1B9F0B8536910530F0F195E195F1095E
:1018D000FFAFEEAFC10110921003109211031092EE
:1018E0001203109213031C0118CFC02ECECF812EED
:1018F000CFCFDB2CD0CF0196A11DB11D809310035B
:1019000090931103A0931203B09313038BE891E01B
:101910000197F1F702CF87E390E00E94CA071ECE3D
:101920008AE390E0FACF0E949607811117CE2DB777
:101930003EB764963FAF2EAF649788EF9AE2A0E07F
:10194000B0E08093100390931103A0931203B0931F
:1019500013038DB79EB7885791090FB6F8949EBFB1
:101960000FBE8DBFEDB7FEB731962696FFAFEEAF37
:10197000269782ED0E94D4049E01205F3F4F39AF2D
:1019800028AF26968EAD9FAD269788589F4F6896B4
:101990009FAF8EAF68970E944F01882309F4C5C19D
:1019A0008091100390911103A0911203B091130341
:1019B0008131E7E29E07A105B1050CF4A6C1ADB6E1
:1019C000BEB61982FE013296119228AD39ADE217EA
:1019D000F307D1F70E94B9166115710581059105CC
:1019E00011F00E940817CE0101967C018C016E0156
:1019F00091E1C90ED11CE8ADF9AD0E171F0709F032
:101A000060C026960EAD1FAD2697D12CE3E04E2E7A
:101A1000512C612C712CF4E68F2E912CF7018191C1
:101A20007F01F80180830E94B91625E030E040E094
:101A300050E00E940C186350710981099109F80166
:101A400061830E94B916A30192010E940C18AB0198
:101A5000BC014D5F5F4F6F4F7F4FF8014283C40160
:101A6000BA010E94C819072E000C880B990B0E941E
:101A70001317F801638374838583968317826AEF53
:101A800070E080E090E00E94FA01D394085F1F4F5D
:101A9000FEE0DF12C3CF0FB6F894BEBE0FBEADBEE0
:101AA0001EAE0E944F01882319F02EAD2E30F0F0AB
:101AB000109210031092110310921203109213034C
:101AC0006ACF0E94B9162FE030E040E050E00E945B
:101AD0000C186F5FF7018191681709F48CCFCE164F
:101AE000DF06C9F7F80161938F0185CF26960EAD09
:101AF0001FAD26970E944F01882399F2F80131808B
:101B000013140CF0E4C087818111E1C0B0905F0232
:101B1000A090590270905A0290905B02232C82810F
:101B2000F32DF81B2196FFAF21971F1624F021E01B
:101B300021962FAF21973EE0C12CD12C68ECE62EE8
:101B400062E4F62E3315FCF4632D032C000C770BA6
:101B50006E507109072E000C880B990B0E94131709
:101B6000F80123813481458156810E944E179B01E3
:101B7000AC0160E070E088EC92E40E94A6186B0172
:101B80007C017EE0272E6A2D70E090E080E00E94CC
:101B900013172C966CAF7DAF8EAF9FAF2C97A7011C
:101BA00096010E944E170E948519862E672D70E0BF
:101BB00090E080E00E94131760966CAF7DAF8EAF0F
:101BC0009FAF60979B01AC01C701B6010E944E1701
:101BD0000E94851961966FAF6197692D70E090E062
:101BE00080E00E9413172B013C01AC019B01C7014F
:101BF000B6010E944E170E94851962966FAF6297D8
:101C000080918A028150B81629F06B2D82E892E00B
:101C10000E9405042196FFAD21972F160CF453C0A6
:101C2000912CB12CA12CBA2CA92C982C882461962B
:101C30002FAD6197A22A62963FAD6297832AF80181
:101C4000608170E0822D022C000C990B0E940E0125
:101C5000A5019401BC0182E892E00E944704F801CA
:101C60002381348145815681C701B6010E94A6189F
:101C70006B017C01AC019B012C966CAD7DAD8EADF2
:101C80009FAD2C970E944E170E948519862EA701A2
:101C9000960160966CAD7DAD8EAD9FAD60970E9454
:101CA0004E170E94851961966FAF6197A701960143
:101CB000C301B2010E944E170E94851962966FAF50
:101CC00062972A94A7CF86E990E00E94E105F80187
:101CD0002281832D032C000C990B821B91090F97F5
:101CE00034F0FEADFF5FFEAF21E0F80127833394AF
:101CF000F8013182085F1F4F68962EAD3FAD68979F
:101D00002017310709F0F6CECCCE0196A11DB11DEA
:101D10008093100390931103A0931203B0931303C5
:101D20008BE891E00197F1F736CE64968EAD9FADCA
:101D300064970FB6F8949EBF0FBE8DBF0FCCFE0107
:101D40003196F9AFE8AF82E311928A95E9F7E09016
:101D5000CE02F090CF026091CC027091CD0288EB60
:101D600092E00E942409082F10E0B70188EB92E06E
:101D70000E942409E1E0F0E0EC0FFD1FE10FF11DEE
:101D80008083FFEFEF1AFF0A1F5F011770F7015002
:101D900025960FAF25979E012D5C3F4F3BAF2AAF95
:101DA000CE01C8969DAF8CAF10EE0E944F018823E4
:101DB00009F4D4CBE0905F026090590250905A022F
:101DC00040905B02EAE9F2E01192119228EB32E0D6
:101DD0002E173F07C9F7A12C80E2C82E90E4B92E38
:101DE00020E8D22E30EAF32E48EA742EEAADFBAD9D
:101DF00025E011922A95E9F7E1E0F0E0EC0FFD1FF4
:101E0000EA0DF11D308121963FAF2197E32FE0527B
:101E1000EF3508F00EC20E2E000CFF0BEE5EF04FF9
:101E20000C94DC191E11191119111911191119111C
:101E30001911191119111911191119111911191152
:101E4000710F750FD410880F8E0F930F9B0FA20F79
:101E5000AA0FB20FBA0F7710191119111911191110
:101E600019117E0F19117B10811087108C109110A1
:101E700096109D10A810AE10B310B710BE10C3106E
:101E8000CB10D410D810DE10E510EC10F210F810C2
:101E9000FA10001109110E1114111911191119114B
:101EA0001911191119117B10811087108C109110C4
:101EB00096109D10A810AE10B310B710BE10C3102E
:101EC000CB10D410D810DE10E510EC10F210F81082
:101ED000FA10001109110E1114111911191119110B
:101EE0008710DFAA87E08EAF4CC088E08BAB80E123
:101EF0008CABCDAABEAADFAA93E028C180E68BAB4B
:101F000080E98CABCDAABEAADFAAE4E0EEAF39C06F
:101F1000BBAABCAABDAABEAA1FAB29C01BABCCAA38
:101F2000BDAADEAA2BC01BABCCAA80E68DABCEAA85
:101F30001FAB85E0D8CFFBAAFCAA1DABCEAACFAAC7
:101F400095E004C11BABDCAA80EC8DABCEAA8FABB5
:101F5000E5E0DCCF1BABDCAA1DABFEAA1FABF5E0B6
:101F6000FEAF0FC01BABCCAACDAACEAACFAA25E04C
:101F70002EAF07C01BABFCAA1DABFEAA1FAB35E002
:101F80003EAF07E0202E312C41E050E0022C02C091
:101F9000440F551F0A94E2F7DE01D396ECE9F2E014
:101FA0002D9180819181022E000C330B2423352347
:101FB000232B09F445C181609183808332968CADD7
:101FC0009DADA817B90761F78091B8029091B90249
:101FD0008E7F9093B9028093B80208E22E2D442D93
:101FE000652D862D0E94F005BCE98B2EB2E09B2E5C
:101FF000F401819191914F013297880F991F91833C
:10200000808326EA32E02815390591F78091B802DD
:102010009091B902880F991F9093B9028093B802EA
:102020006CE370E080E090E00E94FA0131E0231A56
:1020300031088EAD281608F0A7CF21969FAD2197C5
:10204000903221F108E22E2D442D652D862D0E941F
:10205000F005ECE9F2E081919191DF011297880F90
:10206000991F8D939C93E815F905A9F78091B80203
:102070009091B902880F991F9093B9028093B8028A
:102080006CE370E080E090E00E94FA01A394259652
:10209000EFAD2597EA1508F0A9CE4FE0F42EECE954
:1020A000F2E081919191DF011297880F991F8D9332
:1020B0009C93E815F905A9F78091B8029091B902AF
:1020C000880F991F9093B9028093B80208E22E2DD1
:1020D000442D652D862D0E94F0056CE370E080E0B4
:1020E00090E00E94FA01FA94F110D9CF5ECE1BABBA
:1020F000FCAA1DAB1CCF1BABFCAA1DABFEAAFFAA02
:102100001FCFDBAADCAA1DABFEAA1FAB21CF1BABE6
:10211000DCAADDAADEAA22CFCBAACCAA1DABFEAADE
:10212000FBCE1BABDCAA80EC8DABFBCE1BABDCAAE1
:1021300080EC8DABDEAADFAAFCCE80EF8BABDCAAF5
:1021400090EB9DAB90E99EAB8FAB94E09EAF19CF27
:10215000FBAAFCAA1DABFEAAFFAAFACE1BABBCAA27
:10216000BDAABEAAFBCECBAACCAACDAAD8CFFBAA29
:1021700080EC8CABDDAA8EABFFAA01CFDBAADCAA78
:10218000DDAADEAAD5CE88ED8BAB88EF8CAB8DAB0C
:102190007EAA7FAAB1CE80E98BAB90ED9CAB90EB91
:1021A0009DAB9EAB8FABB1CE1BABFCAAFDAAD5CE2F
:1021B0001BABFCAA1DABDEAADFAAD9CE1BABFCAAC7
:1021C000FDAAFEAA80EC8FABDACE1BABFCAA1DAB3E
:1021D00080EC8EABFFAAADCE1BABDCAA1DABCEAAAA
:1021E0001FABAECE1BABBCAABDAABEAABFAAB0CEC7
:1021F000FBAADBCFFBAAFCAAFDAAFEAABFAAB7CE08
:102200007BAA7CAA88EF8DAB8EAB88ED8FAB33E0D9
:10221000B7CEFBAA1CABBDAA1EABDCCFFBAAFCAAA7
:10222000FDAABEAABFAA8CCE1BABCCAABDAADEAAB1
:102230006CCF1BAB1CAB1DAB1EAB90CE27E098CE7A
:102240008E7FBACE83E090E0B5C982E090E0B2C95B
:1022500085E090E0AFC980E190E0ACC98BE090E010
:10226000A9C98CE090E0A6C984E190E0A3C987E009
:1022700090E0A0C981E190E09DC986E090E09AC914
:102280008FE090E097C986E190E094C987E190E003
:1022900091C988E190E08EC989E190E08BC982E123
:1022A00090E088C98AE190E085C98BE190E082C91D
:1022B0001F920F920FB60F9211242F933F938F937B
:1022C0009F93AF93BF938091980190919901A091B2
:1022D0009A01B0919B013091970123E0230F2D3794
:1022E00058F50196A11DB11D209397018093980187
:1022F00090939901A0939A01B0939B0180919C01C6
:1023000090919D01A0919E01B0919F010196A11D08
:10231000B11D80939C0190939D01A0939E01B09369
:102320009F01BF91AF919F918F913F912F910F90FE
:102330000FBE0F901F90189526E8230F0296A11D3F
:10234000B11DD2CF1F920F920FB60F9211242F936F
:102350003F934F935F936F937F938F939F93AF932D
:10236000BF93EF93FF9380918D0190918E01A09187
:102370008F01B0919001892B8A2B8B2BC1F1909109
:102380008C018091000089278093000080918D014D
:1023900090918E01A0918F01B091900118161906AD
:1023A0001A061B069CF480918D0190918E01A091DC
:1023B0008F01B09190010197A109B10980938D011E
:1023C00090938E01A0938F01B0939001FF91EF91B4
:1023D000BF91AF919F918F917F916F915F914F913D
:1023E0003F912F910F900FBE0F901F9018958091E5
:1023F0000001E8E6F0E0E4919FEF90930001E13006
:1024000051F030F0E23069F060E00E947601DECFFA
:1024100010926E00F9CF90916F009D7F90936F00A6
:10242000F3CF909170009D7F9093700091E0909316
:10243000B0009091B100987F94609093B100109299
:10244000B300E2CF1F920F920FB60F9211242F9379
:102450003F934F935F936F937F938F939F93AF932C
:10246000BF93EF93FF938091B900887F803609F482
:102470004AC0F0F5883209F4A7C018F5803109F494
:102480009BC0B8F4882309F4F9C0883009F494C0DB
:10249000FF91EF91BF91AF919F918F917F916F913C
:1024A0005F914F913F912F910F900FBE0F901F9012
:1024B0001895883109F488C0803251F78093C4019F
:1024C00014C0803409F49DC040F48033B9F38833DC
:1024D000F9F68093C40185ECB0C0803509F485C05D
:1024E000883509F496C0883499F60E94EC08D0CF5C
:1024F000883909F48CC038F5883729F050F48836CB
:1025000011F0803729F683E08093C60110928B0189
:1025100057C0883809F47BC0803919F0803809F039
:10252000B7CF80918B01803208F071C0E0918B01B0
:1025300081E08E0F80938B018091BB00F0E0E55924
:10254000FE4F80833DC0803B39F0E0F4803A09F4CF
:1025500079C0883A09F09CCF84E08093C60110923C
:102560006A0110926901E0919301F091940109953B
:102570008091690181110FC081E0809369011092FF
:10258000490109C0803C09F4A6CF883C09F4A3CFD7
:10259000883B09F07DCFE0916A0181E08E0F809346
:1025A0006A01F0E0E75BFE4F80818093BB00909171
:1025B0006A018091690129C08091A1018093BB00CB
:1025C00085EC8093BC0064CF9091C3018091C201DF
:1025D000981758F5E091C30181E08E0F8093C301F5
:1025E000F0E0EE55FE4F8081E9CFE091C30181E03C
:1025F0008E0F8093C3018091BB00F0E0EE55FE4F3B
:1026000080839091C3018091C2019817C8F285E838
:10261000D8CFE091C30181E08E0F8093C3018091F8
:10262000BB00F0E0EE55FE4F80838091C501811123
:102630005CCF81E08093A00184EA8093BC0010927B
:10264000C60126CF85EC8093BC001092C601809114
:102650008B01803230F4E0918B01F0E0E559FE4FC0
:10266000108260918B0170E0E0919101F0919201F4
:102670008BE691E0099510928B010ACF1092C4016C
:1026800034CFCF93DF93FC018EEF90E09183808372
:1026900080E590E0938382831582148217821682EC
:1026A00081E090E09187808782E090E09387828745
:1026B00083E090E09587848784E090E09787868721
:1026C00085E090E0918B808B80E190E0938B828B12
:1026D000958B848B81E190E0978B868B8BE090E0EB
:1026E000918F808F8DE090E0938F828F81E0848F37
:1026F000DF015D9682E3ED0119928A95E9F7D496A0
:1027000011961C921E9212961D921D921D921C9261
:102710001397E95AFF4F1082DF91CF910895CF931D
:10272000DF93EC0188819981892B91F461E070E05D
:1027300090E080E00E94071B0097A1F099838883B6
:102740001B821A822C813D81232B11F4FC01108203
:102750001D821C826DE171E088819981DF91CF91AA
:102760000C94D61B88819981009711F00E947E1AE3
:10277000198218821D821C821B821A82DF91CF91DE
:102780000895CF93DF93EC0180E4888319821A8245
:102790001B821C821D821E821F8218861A86198641
:1027A0001C861B861E861D86CE0109960E948F13ED
:1027B000188A1F861A8A198A1C8A1B8ACE010F96CC
:1027C000DF91CF910C948F130F931F93CF93DF93CF
:1027D000EC010E94C1131E8A1D8E1CA21DA21EA206
:1027E0001FA281E08BA388A319A292E09AA38D8BEC
:1027F00002EB12E01A8F098F82EB92E00E94E2193D
:102800009F8F8E8F009709F436C0FC0198011192BA
:1028100021503040E1F786EE90E0988F8F8B8DE06D
:1028200090E09C8F8B8F8E89882341F061E08DE052
:102830000E94A40160E08DE00E947601E4E9F1E0ED
:10284000E491F0E0EE0FFF1FED58FE4F859194915B
:1028500099A788A7E8EAF1E0E491EAA71CA61BA6DD
:10286000AD968EE1FE0111928A95E9F7DF91CF9145
:102870001F910F9108951A8E198E188E1F8ACFCF2F
:10288000CF93DF93E0EFF1E01382128288EE93E0C2
:10289000A0E0B0E084839583A683B7838FE091E0C6
:1028A00091838083CCEFD1E08CE088838BE08983B7
:1028B0008DE08A838FEF91E00E94411387E592E0DB
:1028C0000E94C113888180936C028DE692E00E9481
:1028D000E41388EB92E00E944113109210031092CF
:1028E0001103109212031092130384E193E0DF911D
:1028F000CF910C94E413789484B5826084BD84B540
:10290000816084BD85B5826085BD85B5816085BDEA
:1029100080916E00816080936E00109281008091A2
:10292000810082608093810080918100816080932A
:102930008100809180008160809380008091B1004F
:1029400084608093B1008091B00081608093B0007A
:1029500080917A00846080937A0080917A0082600E
:1029600080937A0080917A00816080937A008091D0
:102970007A00806880937A001092C10060E08091B4
:10298000FC010E94A40162E389E293E00E94050435
:1029900080912F039091300397FD08C061E00E9461
:1029A000A40160E080912F030E94760181E0809372
:1029B0002A0389E293E00E940C0564EF71E080E055
:1029C00090E00E94FA0164E670E080E090E00E94EE
:1029D000FA01D0E0C0E02FEF3FEF4FEF50E0BE0133
:1029E00089E293E00E9447042196C63ED10599F7FB
:1029F00089E293E00E940C0564EF71E080E090E0D2
:102A00000E94FA0164E670E080E090E00E94FA0122
:102A100010929601109295011092CD011092EF0143
:102A20000E9456028DE292E090939401809393016C
:102A30008EE292E090939201809391016AE070E0BF
:102A400080E090E00E94FA0161E0809117020E940C
:102A5000A40160E0809117020E94760161E08091FC
:102A600019020E94A40160E0809119020E9476017F
:102A70008FE090E00197F1F78BE99FE00197F1F784
:102A800068EE73E080E090E00E94FA01C0E0D0E0E0
:102A90000E944F01882309F4B8C061E080911702B9
:102AA0000E94760160910502709106028FEF91E01D
:102AB0000E942409E82E809156028111ACC0E09159
:102AC0004E02F0914F02309769F0409152025091BE
:102AD000530260915402709155028091500290917E
:102AE0005102099561E0809119020E94760164EF1C
:102AF00071E080E090E00E94FA01E0914E02F091D6
:102B00004F02309769F04091520250915302609108
:102B10005402709155028091500290915102099592
:102B200060E0809119020E94760168EC70E080E01C
:102B300090E00E94FA01E0914E02F0914F0230972E
:102B400069F0409152025091530260915402709189
:102B500055028091500290915102099561E0809157
:102B600019020E94760164EF71E080E090E00E941B
:102B7000FA01E0914E02F0914F02309769F04091D6
:102B8000520250915302609154027091550280910B
:102B9000500290915102099560E0809119020E94C3
:102BA000760180E010E000E0F12CE0925802F09213
:102BB000590200935A0210935B0280935F0260E017
:102BC000809117020E947601E0915B02F0E0E759E4
:102BD000FF4F8491E0915A02F0E0E759FF4F949142
:102BE000E0915902F0E0E759FF4FE491E0935C0275
:102BF00090935D0280935E028091580290E00E9463
:102C0000500A90E080E00E94500A209709F440CFDB
:102C10000E9400003DCF60910702709108028FEF83
:102C200091E00E942409F82E6091090270910A0235
:102C30008FEF91E00E942409082F60910B027091A0
:102C40000C028FEF91E00E942409182F60910D0271
:102C500070910E028FEF91E00E942409A6CFFC0133
:102C600080819181009711F00C947E1A08958091D3
:102C70003203909133030E947E1A80912F0390912A
:102C8000300397FD03C060E00E94A40183E293E05B
:102C90000E942F168DE193E00E942F1680918B02E7
:102CA00090918C020E947E1A8091880290918902F4
:102CB00097FD03C060E00E94A4018CE792E00E94AF
:102CC0002F1686E792E00E942F1686E692E00E9479
:102CD0002F1680E692E00C942F168F929F92AF925F
:102CE000BF92CF92DF92EF92FF92CF93DF93EC01EE
:102CF000688179818A819B816115710581059105C2
:102D000021F464E279ED8BE597E02DE133EF41E0CA
:102D100050E00E940C1849015A019B01AC01A7EA3E
:102D2000B1E40E942B186B017C01ACEEB4EFA5015D
:102D300094010E943918C60ED71EE81EF91EF7FE30
:102D400006C081E0C81AD108E10880E8F80AC88204
:102D5000D982EA82FB82C701B6019F77DF91CF91CA
:102D6000FF90EF90DF90CF90BF90AF909F908F90AB
:102D700008958F929F92AF92BF92CF92DF92EF927F
:102D8000FF92609101017091020180910301909185
:102D90000401611571058105910521F464E279ED65
:102DA0008BE597E02DE133EF41E050E00E940C18F5
:102DB00049015A019B01AC01A7EAB1E40E942B181A
:102DC0006B017C01ACEEB4EFA50194010E943918AF
:102DD000C60ED71EE81EF91EF7FE06C081E0C81A0F
:102DE000D108E10880E8F80AC0920101D0920201FE
:102DF000E0920301F0920401C701B6019F77FF90B2
:102E0000EF90DF90CF90BF90AF909F908F900895FC
:102E10006093010170930201809303019093040178
:102E20000895E89409C097FB3EF4909580957095BD
:102E300061957F4F8F4F9F4F9923A9F0F92F96E906
:102E4000BB279395F695879577956795B795F1117B
:102E5000F8CFFAF4BB0F11F460FF1BC06F5F7F4F18
:102E60008F4F9F4F16C0882311F096E911C077232A
:102E700021F09EE8872F762F05C0662371F096E833
:102E8000862F70E060E02AF09A95660F771F881F02
:102E9000DAF7880F9695879597F908950E9461173C
:102EA0000C94D2170E94C41738F00E94CB1720F060
:102EB000952311F00C94BB170C94C11711240C949A
:102EC00006180E94E31770F3959FC1F3950F50E029
:102ED000551F629FF001729FBB27F00DB11D639FCC
:102EE000AA27F00DB11DAA1F649F6627B00DA11D72
:102EF000661F829F2227B00DA11D621F739FB00D18
:102F0000A11D621F839FA00D611D221F749F332787
:102F1000A00D611D231F849F600D211D822F762F20
:102F20006A2F11249F5750409AF0F1F088234AF0FD
:102F3000EE0FFF1FBB1F661F771F881F9150504069
:102F4000A9F79E3F510580F00C94BB170C9406180E
:102F50005F3FE4F3983ED4F3869577956795B795F0
:102F6000F795E7959F5FC1F7FE2B880F911D96950A
:102F7000879597F9089597F99F6780E870E060E07A
:102F800008959FEF80EC089500240A941616170602
:102F900018060906089500240A941216130614064A
:102FA00005060895092E0394000C11F4882352F0AD
:102FB000BB0F40F4BF2B11F460FF04C06F5F7F4F65
:102FC0008F4F9F4F089557FD9058440F551F59F04C
:102FD0005F3F71F04795880F97FB991F61F09F3F06
:102FE00079F087950895121613061406551FF2CF2F
:102FF0004695F1DF08C0161617061806991FF1CF7F
:1030000086957105610508940895E894BB276627A5
:103010007727CB0197F90895052E97FB1EF40094AE
:103020000E94231857FD07D00E94751807FC03D093
:103030004EF40C94231850954095309521953F4FB0
:103040004F4F5F4F089590958095709561957F4F94
:103050008F4F9F4F08950E949718A59F900DB49F82
:10306000900DA49F800D911D11240895B7FF0C941D
:103070002B180E942B18821B930B08952F923F92BE
:103080004F925F926F927F928F929F92AF92BF9278
:10309000CF92DF92EF92FF920F931F93CF93DF9324
:1030A000CDB7DEB7CA1BDB0B0FB6F894DEBF0FBE81
:1030B000CDBF09942A88398848885F846E847D84CE
:1030C0008C849B84AA84B984C884DF80EE80FD80D0
:1030D0000C811B81AA81B981CE0FD11D0FB6F89446
:1030E000DEBF0FBECDBFED010895A1E21A2EAA1BCF
:1030F000BB1BFD010DC0AA1FBB1FEE1FFF1FA217A8
:10310000B307E407F50720F0A21BB30BE40BF50BA4
:10311000661F771F881F991F1A9469F7609570952D
:10312000809590959B01AC01BD01CF010895A29FB0
:10313000B001B39FC001A39F700D811D1124911D8B
:10314000B29F700D811D1124911D08955058BB2709
:10315000AA270E94BE180C94D2170E94C41738F0F8
:103160000E94CB1720F039F49F3F19F426F40C94F9
:10317000C1170EF4E095E7FB0C94BB17E92F0E94F2
:10318000E31758F3BA17620773078407950720F00F
:1031900079F4A6F50C9405180EF4E0950B2EBA2FD1
:1031A000A02D0B01B90190010C01CA01A00111244D
:1031B000FF27591B99F0593F50F4503E68F11A16F9
:1031C000F040A22F232F342F4427585FF3CF46958A
:1031D00037952795A795F0405395C9F77EF41F16AC
:1031E000BA0B620B730B840BBAF09150A1F0FF0F76
:1031F000BB1F661F771F881FC2F70EC0BA0F621F62
:10320000731F841F48F4879577956795B795F79551
:103210009E3F08F0B0CF9395880F08F09927EE0FE6
:103220009795879508950E9427190C94D2170E94AC
:10323000CB1758F00E94C41740F029F45F3F29F0E3
:103240000C94BB1751110C9406180C94C1170E94D2
:10325000E31768F39923B1F3552391F3951B550BAD
:10326000BB27AA2762177307840738F09F5F5F4F59
:10327000220F331F441FAA1FA9F335D00E2E3AF098
:10328000E0E832D091505040E695001CCAF72BD0B0
:10329000FE2F29D0660F771F881FBB1F2617370701
:1032A0004807AB07B0E809F0BB0B802DBF01FF2733
:1032B00093585F4F3AF09E3F510578F00C94BB173E
:1032C0000C9406185F3FE4F3983ED4F38695779507
:1032D0006795B795F7959F5FC9F7880F911D9695EC
:1032E000879597F90895E1E0660F771F881FBB1F48
:1032F000621773078407BA0720F0621B730B840BF5
:10330000BA0BEE1F88F7E09508950E94EB1788F03E
:103310009F5798F0B92F9927B751B0F0E1F0660F99
:10332000771F881F991F1AF0BA95C9F714C0B130DA
:1033300091F00E940518B1E008950C940518672FCC
:10334000782F8827B85F39F0B93FCCF38695779509
:103350006795B395D9F73EF49095809570956195F2
:103360007F4F8F4F9F4F0895AA1BBB1B51E107C092
:10337000AA1FBB1FA617B70710F0A61BB70B881F05
:10338000991F5A95A9F780959095BC01CD01089594
:1033900097FB072E16F4009407D077FD09D00E9402
:1033A000B41907FC05D03EF4909581959F4F089580
:1033B000709561957F4F0895EE0FFF1F0590F49172
:1033C000E02D09940F931F93CF93DF9382309105E3
:1033D00010F482E090E0E0916103F091620330E04C
:1033E00020E0B0E0A0E0309799F42115310509F410
:1033F0004AC0281B390B24303105D8F58A819B81BE
:103400006115710589F1FB0193838283FE0111C06F
:10341000408151810281138148175907E0F0481714
:10342000590799F4109761F012960C93129713961E
:103430001C933296CF01DF91CF911F910F91089588
:103440000093610310936203F4CF2115310551F00D
:103450004217530738F0A901DB019A01BD01DF01D2
:10346000F801C1CFEF01F9CF90936203809361031C
:10347000CDCFFE01E20FF31F8193919322503109CA
:1034800039832883D7CF20915F0330916003232BAA
:1034900041F420910701309108013093600320939B
:1034A0005F0320910501309106012115310541F49A
:1034B0002DB73EB74091090150910A01241B350BED
:1034C000E0915F03F0916003E217F307A0F42E1B75
:1034D0003F0B2817390778F0AC014E5F5F4F241778
:1034E000350748F04E0F5F1F5093600340935F0312
:1034F000819391939FCFF0E0E0E09CCFCF93DF9357
:103500000097E9F0FC01329713821282A0916103C7
:10351000B0916203ED0130E020E01097A1F420812A
:103520003181820F931F20915F0330916003281730
:10353000390709F061C0F0936003E0935F03DF9106
:10354000CF910895EA01CE17DF07E8F54A815B8144
:103550009E0141155105B1F7E901FB83EA834991C9
:103560005991C40FD51FEC17FD0761F4808191813B
:103570000296840F951FE901998388838281938144
:103580009B838A83F0E0E0E012968D919C911397E3
:103590000097B9F52D913C911197CD010296820FBC
:1035A000931F20915F03309160032817390739F684
:1035B000309751F51092620310926103B09360034B
:1035C000A0935F03BCCFD383C28340815181840F1A
:1035D000951FC817D90761F44E5F5F4F88819981A5
:1035E000480F591F518340838A819B819383828333
:1035F0002115310509F0B0CFF0936203E093610328
:103600009ECFFD01DC01C0CF13821282D7CFB0E084
:10361000A0E0EDE0FBE10C9440188C01009751F420
:10362000CB010E94E2198C01C801CDB7DEB7E0E101
:103630000C945C18FC01E60FF71F9C012250310925
:10364000E217F30708F49DC0D901CD91DC911197E1
:10365000C617D70798F0C530D10530F3CE010497CF
:103660008617970708F3C61BD70B2297C193D193F0
:103670006D937C93CF010E947E1AD6CF5B01AC1A6A
:10368000BD0A4C018C0E9D1EA0916103B091620396
:10369000512C412CF12CE12C109731F580915F03D6
:1036A000909160038815990509F05CC0461657068D
:1036B00008F058C08091050190910601009741F4EF
:1036C0008DB79EB74091090150910A01841B950B5B
:1036D000E817F90708F055C0F0936003E0935F0323
:1036E000F90171836083A0CF8D919C9111971296FF
:1036F0006C90129713967C901397A815B90559F5FD
:103700006C0142E0C40ED11CCA14DB0420F1AC01F0
:103710004A195B09DA011296159780F0628273826A
:1037200051834083D9016D937C93E114F10471F0CE
:10373000D7011396FC93EE93129776CF22968C0FB7
:103740009D1FF90191838083F301EFCFF093620312
:10375000E093610369CF4816590608F42C017D01F6
:10376000D3019ACFCB010E94E2197C01009749F066
:10377000AE01B8010E94C41BC8010E947E1A8701D5
:1037800053CF10E000E050CFFB01DC0102C00190FC
:103790000D9241505040D8F70895FB01DC018D9106
:1037A000019080190110D9F3990B0895FB01DC01F8
:1037B00001900D920020E1F7089510E0C3EED0E0F3
:1037C00004C0FE010E94DC192196C43ED107C9F74E
:1037D000F894FFCFFF0100000000006303800000A9
:1037E000000000D303A60302047C039F038C037D27
:0237F0000300D4
:107800000C94343C0C94513C0C94513C0C94513CE1
:107810000C94513C0C94513C0C94513C0C94513CB4
:107820000C94513C0C94513C0C94513C0C94513CA4
:107830000C94513C0C94513C0C94513C0C94513C94
:107840000C94513C0C94513C0C94513C0C94513C84
:107850000C94513C0C94513C0C94513C0C94513C74
:107860000C94513C0C94513C11241FBECFEFD8E036
:10787000DEBFCDBF11E0A0E0B1E0ECE9FFE702C060
:1078800005900D92A230B107D9F712E0A2E0B1E065
:1078900001C01D92AD30B107E1F70E942D3D0C945F
:1078A000CC3F0C94003C982F959595959595959582
:1078B000905D8F708A307CF0282F295A8091C0000B
:1078C00085FFFCCF9093C6008091C00085FFFCCF60
:1078D0002093C6000895282F205DF0CF982F809127
:1078E000C00085FFFCCF9093C6000895EF92FF92F1
:1078F0000F931F93EE24FF2487018091C00087FD22
:1079000017C00894E11CF11C011D111D81E4E8164B
:1079100082E4F8068FE0080780E0180770F3E09132
:107920000401F091050109958091C00087FFE9CF1E
:107930008091C6001F910F91FF90EF9008950E94D3
:10794000763C982F8091C00085FFFCCF9093C600B5
:1079500091362CF490330CF09053892F089597555D
:10796000892F08951F930E949F3C182F0E949F3CCF
:107970001295107F810F1F9108951F93182F882350
:1079800021F00E94763C1150E1F71F9108951F935A
:10799000182F0E94763C803249F0809103018F5F5E
:1079A000809303018530C1F01F9108958091C0003C
:1079B00085FFFCCF84E18093C6008091C00085FFE5
:1079C000FCCF1093C6008091C00085FFFCCF80E102
:1079D0008093C6001F910895E0910401F091050184
:1079E00009951F9108950E94763C803241F0809164
:1079F00003018F5F80930301853081F008958091AA
:107A0000C00085FFFCCF84E18093C6008091C00058
:107A100085FFFCCF80E18093C6000895E0910401CA
:107A2000F09105010995089540E951E08823A1F0FE
:107A30002D9A28EE33E0FA013197F1F721503040CA
:107A4000D1F72D9828EE33E0FA013197F1F7215064
:107A50003040D1F7815061F708953F924F925F9285
:107A60006F927F928F929F92AF92BF92CF92DF924E
:107A7000EF92FF920F931F93CF93DF93000080E16B
:107A80008093C4001092C50088E18093C10086E015
:107A90008093C2005098589A259A81E00E94143D24
:107AA00024E1F22E9EE1E92E85E9D82E0FE0C02ECA
:107AB00010E1B12EAA24A394B1E49B2EA6E58A2E50
:107AC000F2E57F2EE0E26E2E79E4572E63E5462E36
:107AD00050E5352E0E94763C8033B1F18133B9F107
:107AE000803409F46FC0813409F476C0823409F41B
:107AF00085C0853409F488C0803531F1823521F1A3
:107B0000813511F1853509F485C0863509F48DC0BC
:107B1000843609F496C0843709F403C1853709F423
:107B200072C1863709F466C0809103018F5F80932C
:107B30000301853079F6E0910401F0910501099582
:107B40000E94763C803351F60E94F33CC3CF0E94E2
:107B5000763C803249F78091C00085FFFCCFF092DF
:107B6000C6008091C00085FFFCCF9092C600809136
:107B7000C00085FFFCCF8092C6008091C00085FFC9
:107B8000FCCF7092C6008091C00085FFFCCF609250
:107B9000C6008091C00085FFFCCF5092C600809146
:107BA000C00085FFFCCF4092C6008091C00085FFD9
:107BB000FCCF3092C6008091C00085FFFCCFB09210
:107BC000C60088CF0E94763C863808F4BDCF0E945C
:107BD000763C0E94F33C7ECF0E94763C803809F4CC
:107BE0009CC0813809F40BC1823809F43CC1883942
:107BF00009F48FC080E00E94C73C6CCF84E10E94F2
:107C0000BD3C0E94F33C66CF85E00E94BD3C0E94D3
:107C1000F33C60CF0E94763C809306010E94763C44
:107C2000809307010E94F33C55CF0E94763C80333D
:107C300009F41DC183E00E94BD3C80E00E94C73C66
:107C400049CF0E94763C809309020E94763C809343
:107C5000080280910C028E7F80930C020E94763C79
:107C6000853409F415C18091080290910902892B8D
:107C700089F000E010E00E94763CF801E85FFE4FDA
:107C800080830F5F1F4F80910802909109020817AF
:107C9000190788F30E94763C803209F045CF809125
:107CA0000C0280FF01C16091060170910701660F0F
:107CB000771F7093070160930601A0910802B091AD
:107CC00009021097C9F0E8E0F1E09B01AD014E0F09
:107CD0005F1FF999FECF32BD21BD819180BDFA9A17
:107CE000F99A2F5F3F4FE417F50799F76A0F7B1F4B
:107CF00070930701609306018091C00085FFFCCF5F
:107D0000F092C6008091C00085FFFCCFB092C60003
:107D1000E1CE83E00E94C73CDDCE82E00E94C73CFA
:107D2000D9CE0E94763C809309020E94763C8093D3
:107D300008028091060190910701880F991F909386
:107D40000701809306010E94763C853409F4A6C0A1
:107D500080910C028E7F80930C020E94763C8032D0
:107D600009F0B8CE8091C00085FFFCCFF092C6002C
:107D7000609108027091090261157105B9F140E046
:107D800050E080910C02A82FA170B82FB27011C0E2
:107D9000BB2309F45CC0E0910601F0910701319624
:107DA000F0930701E09306014F5F5F4F46175707B7
:107DB000E8F4AA2369F3F999FECF209106013091E6
:107DC000070132BD21BDF89A90B58091C00085FFB2
:107DD000FCCF9093C6002F5F3F4F30930701209355
:107DE00006014F5F5F4F4617570718F38091C00099
:107DF00085FDE5CE8091C00085FFF8CFE0CE81E023
:107E00000E94C73C67CE0E94763C803209F08CCE3F
:107E10008091C00085FFFCCFF092C6008091C00029
:107E200085FFFCCFE092C6008091C00085FFFCCFAB
:107E3000D092C6008091C00085FFFCCFC092C600E2
:107E40008091C00085FFFCCFB092C60043CEE09188
:107E50000601F091070194918091C00085FFFCCF4D
:107E60009093C6009CCF80E10E94C73C33CE0E9415
:107E7000763C0E94763C182F0E94763C112309F430
:107E800083C0113009F484C08FE00E94C73C22CE29
:107E900080910C02816080930C02E5CE80910C02EF
:107EA000816080930C0259CF809107018823880F4D
:107EB000880B8A2180930B02809106019091070123
:107EC000880F991F90930701809306018091080203
:107ED00080FF09C080910802909109020196909359
:107EE000090280930802F894F999FECF1127E091D6
:107EF0000601F0910701C8E0D1E08091080290915D
:107F00000902103091F40091570001700130D9F34B
:107F100003E000935700E89500915700017001308D
:107F2000D9F301E100935700E89509901990009169
:107F3000570001700130D9F301E000935700E89534
:107F40001395103498F011270091570001700130FB
:107F5000D9F305E000935700E895009157000170B0
:107F60000130D9F301E100935700E895329602976A
:107F700009F0C7CF103011F00296E5CF112480919F
:107F8000C00085FFB9CEBCCE8EE10E94C73CA2CD19
:0E7F900085E90E94C73C9ECDF894FFCF80008B
:00000001FF
