:100000000C9458000C9475000C9475000C947500B9
:100010000C9475000C9475000C9475000C948C0174
:100020000C9475000C9475000C9475000C9475007C
:100030000C9475000C9475000C9475000C9475006C
:100040000C940C020C9475000C9475000C947500C3
:100050000C9475000C9475000C9475000C9475004C
:100060000C9456020C947500000000002500280036
:100070002B00040404040404040402020202020229
:10008000030303030303010204081020408001025C
:1000900004081020010204081020000000080002DB
:1000A000010000030407000000000000000002003F
:1000B00011241FBECFEFD8E0DEBFCDBF21E0A2E00C
:1000C000B1E001C01D92AB38B207E1F711E0A0E04A
:1000D000B1E0ECE7F7E002C005900D92A230B10765
:1000E000D9F70E9471030C94BC030C94000090E0BB
:1000F000FC01E656FF4F2491FC01EA57FF4F349173
:10010000FC01EE58FF4FE491EE23C9F0222339F0B1
:10011000233001F1A8F4213019F1223029F1F0E067
:10012000EE0FFF1FE859FF4FA591B4918FB7F894D8
:10013000EC91611126C030953E233C938FBF08950A
:100140002730A9F02830C9F0243049F78091800089
:100150008F7D03C0809180008F7780938000DFCFF8
:1001600084B58F7784BDDBCF84B58F7DFBCF809145
:10017000B0008F778093B000D2CF8091B0008F7D98
:10018000F9CF3E2BDACF20913301260F3327331FCF
:1001900021323105ECF420915701FC0190E080E020
:1001A000243069F082E00895A09133012191AC01DF
:1001B0004D5E5E4FA40FB52FB11D2C93019686178F
:1001C00098F380913301680F6093330180E00895C4
:1001D00081E0089508958FEF9FEF08958FEF9FEFCF
:1001E000089580910C0190E0919581959109089571
:1001F000CF93DF93CB01EA01642F0E94C300CE01AD
:10020000DF91CF910895CF93DF931F92CDB7DEB7E3
:10021000698361E0CE0101960E94C30081E090E015
:100220000F90DF91CF91089590E080E008951F93A3
:10023000CF93DF9385ED8093BC0080910F01909167
:100240001001A0911101B09112010796A11DB11DDD
:1002500023E0B695A795979587952A95D1F7209194
:10026000BC0024FD03C01092570152C040910F0101
:10027000509110016091110170911201452B462B94
:10028000472B69F30097A105B10541F02AE22A95B1
:10029000F1F700C00197A109B109E1CF80910E01EA
:1002A000C1E0C0930D01882399F1D091B80010915D
:1002B000BA008091BC008A7B8093BC0060E082E140
:1002C0000E94770060E083E10E947700109257015E
:1002D000C09359011092580161E082E10E947700B9
:1002E00061E083E10E9477008091B9008E7F809366
:1002F000B9008091B9008D7F8093B90088E4809324
:10030000B80085E48093BC001093BA00D093B80085
:10031000DF91CF911F9108951F920F920FB60F9208
:1003200011242F933F934F935F936F937F938F93FA
:100330009F93AF93BF93EF93FF9380918701909129
:100340008801A0918901B0918A01892B8A2B8B2B7E
:10035000C1F190918601809100008927809300006F
:100360008091870190918801A0918901B0918A01C3
:10037000181619061A061B069CF4809187019091A5
:100380008801A0918901B0918A010197A109B10961
:100390008093870190938801A0938901B0938A018B
:1003A000FF91EF91BF91AF919F918F917F916F914D
:1003B0005F914F913F912F910F900FBE0F901F9023
:1003C000189580910001EEEAF0E0E4919FEF9093A0
:1003D0000001E13051F030F0E23069F060E00E945D
:1003E0007700DECF10926E00F9CF90916F009D7F65
:1003F00090936F00F3CF909170009D7F9093700069
:1004000091E09093B0009091B100987F94609093A8
:10041000B1001092B300E2CF1F920F920FB60F926D
:1004200011242F933F938F939F93AF93BF9380910A
:10043000820190918301A0918401B0918501309156
:10044000810123E0230F2D3758F50196A11DB11D21
:10045000209381018093820190938301A093840172
:10046000B093850180917D0190917E01A0917F01E3
:10047000B09180010196A11DB11D80937D019093E3
:100480007E01A0937F01B0938001BF91AF919F91B6
:100490008F913F912F910F900FBE0F901F90189545
:1004A00026E8230F0296A11DB11DD2CF1F920F92F5
:1004B0000FB60F9211242F933F934F935F936F9337
:1004C0007F938F939F93AF93BF93EF93FF9380910D
:1004D000B900887F803609F44AC0F0F5883209F403
:1004E000A5C018F5803109F499C0B8F4882309F43F
:1004F000F5C0883009F492C0FF91EF91BF91AF91A0
:100500009F918F917F916F915F914F913F912F912B
:100510000F900FBE0F901F901895883109F486C078
:10052000803251F78093560114C0803409F49BC087
:1005300040F48033B9F38833F9F68093560185ECA3
:10054000AEC0803509F483C0883509F494C088347E
:1005500099F60E941701D0CF883909F48AC038F57E
:10056000883729F050F4883611F0803729F683E077
:10057000809357011092550155C0883809F479C00D
:10058000803919F0803809F0B7CF80915501803259
:1005900008F06FC0E091550181E08E0F8093550106
:1005A0008091BB00F0E0EB5CFE4F80833BC0803B62
:1005B00039F0D0F4803A09F477C0883A09F09CCF3A
:1005C00084E0809357011092340110923301F0E0DF
:1005D000E0E009958091330181110FC081E08093A3
:1005E00033011092130109C0803C09F4A8CF883C64
:1005F00009F4A5CF883B09F07FCFE091340181E079
:100600008E0F80933401F0E0ED5EFE4F8081809389
:10061000BB00909134018091330129C080917C010D
:100620008093BB0085EC8093BC0066CF90917B01EA
:1006300080917A01981758F5E0917B0181E08E0F47
:1006400080937B01F0E0E65AFE4F8081E9CFE09194
:100650007B0181E08E0F80937B018091BB00F0E0F5
:10066000E65AFE4F808390917B0180917A01981722
:10067000C8F285E8D8CFE0917B0181E08E0F8093AE
:100680007B018091BB00F0E0E65AFE4F80838091B1
:10069000590181115ECF81E08093580184EA8093F3
:1006A000BC001092570128CF85EC8093BC001092BB
:1006B000570180915501803230F4E0915501F0E00E
:1006C000EB5CFE4F10826091550170E085E391E094
:1006D000F0E0E0E00995109255010ECF109256011E
:1006E00038CF789484B5826084BD84B5816084BD40
:1006F00085B5826085BD85B5816085BD80916E00C0
:10070000816080936E0010928100809181008260F0
:10071000809381008091810081608093810080912D
:1007200080008160809380008091B100846080931C
:10073000B1008091B00081608093B00080917A0018
:10074000846080937A0080917A00826080937A003E
:1007500080917A00816080937A0080917A0080682D
:1007600080937A001092C100C0E0D0E02097F1F3AE
:0C0770000E940000FBCF0895F894FFCF1A
:02077C00FF007C
:00000001FF
