:020000040000FA
:100000000C9458000C9475000C9475000C947500B9
:100010000C9475000C9475000C9475000C948C0174
:100020000C9475000C9475000C9475000C9475007C
:100030000C9475000C9475000C9475000C9475006C
:100040000C940C020C9475000C9475000C947500C3
:100050000C9475000C9475000C9475000C9475004C
:100060000C9456020C947500000000002500280036
:100070002B00040404040404040402020202020229
:10008000030303030303010204081020408001025C
:1000900004081020010204081020000000080002DB
:1000A000010000030407000000000000000002003F
:1000B00011241FBECFEFD8E0DEBFCDBF21E0A2E00C
:1000C000B1E001C01D92AB38B207E1F711E0A0E04A
:1000D000B1E0ECE7F7E002C005900D92A230B10765
:1000E000D9F70E9471030C94BC030C94000090E0BB
:1000F000FC01E656FF4F2491FC01EA57FF4F349173
:10010000FC01EE58FF4FE491EE23C9F0222339F0B1
:10011000233001F1A8F4213019F1223029F1F0E067
:10012000EE0FFF1FE859FF4FA591B4918FB7F894D8
:10013000EC91611126C030953E233C938FBF08950A
:100140002730A9F02830C9F0243049F78091800089
:100150008F7D03C0809180008F7780938000DFCFF8
:1001600084B58F7784BDDBCF84B58F7DFBCF809145
:10017000B0008F778093B000D2CF8091B0008F7D98
:10018000F9CF3E2BDACF20913301260F3327331FCF
:1001900021323105ECF420915701FC0190E080E020
:1001A000243069F082E00895A09133012191AC01DF
:1001B0004D5E5E4FA40FB52FB11D2C93019686178F
:1001C00098F380913301680F6093330180E00895C4
:1001D00081E0089508958FEF9FEF08958FEF9FEFCF
:1001E000089580910C0190E0919581959109089571
:1001F000CF93DF93CB01EA01642F0E94C300CE01AD
:10020000DF91CF910895CF93DF931F92CDB7DEB7E3
:10021000698361E0CE0101960E94C30081E090E015
:100220000F90DF91CF91089590E080E008951F93A3
:10023000CF93DF9385ED8093BC0080910F01909167
:100240001001A0911101B09112010796A11DB11DDD
:1002500023E0B695A795979587952A95D1F7209194
:10026000BC0024FD03C01092570152C040910F0101
:10027000509110016091110170911201452B462B94
:10028000472B69F30097A105B10541F02AE22A95B1
:10029000F1F700C00197A109B109E1CF80910E01EA
:1002A000C1E0C0930D01882399F1D091B80010915D
:1002B000BA008091BC008A7B8093BC0060E082E140
:1002C0000E94770060E083E10E947700109257015E
:1002D000C09359011092580161E082E10E947700B9
:1002E00061E083E10E9477008091B9008E7F809366
:1002F000B9008091B9008D7F8093B90088E4809324
:10030000B80085E48093BC001093BA00D093B80085
:10031000DF91CF911F9108951F920F920FB60F9208
:1003200011242F933F934F935F936F937F938F93FA
:100330009F93AF93BF93EF93FF9380918701909129
:100340008801A0918901B0918A01892B8A2B8B2B7E
:10035000C1F190918601809100008927809300006F
:100360008091870190918801A0918901B0918A01C3
:10037000181619061A061B069CF4809187019091A5
:100380008801A0918901B0918A010197A109B10961
:100390008093870190938801A0938901B0938A018B
:1003A000FF91EF91BF91AF919F918F917F916F914D
:1003B0005F914F913F912F910F900FBE0F901F9023
:1003C000189580910001EEEAF0E0E4919FEF9093A0
:1003D0000001E13051F030F0E23069F060E00E945D
:1003E0007700DECF10926E00F9CF90916F009D7F65
:1003F00090936F00F3CF909170009D7F9093700069
:1004000091E09093B0009091B100987F94609093A8
:10041000B1001092B300E2CF1F920F920FB60F926D
:1004200011242F933F938F939F93AF93BF9380910A
:10043000820190918301A0918401B0918501309156
:10044000810123E0230F2D3758F50196A11DB11D21
:10045000209381018093820190938301A093840172
:10046000B093850180917D0190917E01A0917F01E3
:10047000B09180010196A11DB11D80937D019093E3
:100480007E01A0937F01B0938001BF91AF919F91B6
:100490008F913F912F910F900FBE0F901F90189545
:1004A00026E8230F0296A11DB11DD2CF1F920F92F5
:1004B0000FB60F9211242F933F934F935F936F9337
:1004C0007F938F939F93AF93BF93EF93FF9380910D
:1004D000B900887F803609F44AC0F0F5883209F403
:1004E000A5C018F5803109F499C0B8F4882309F43F
:1004F000F5C0883009F492C0FF91EF91BF91AF91A0
:100500009F918F917F916F915F914F913F912F912B
:100510000F900FBE0F901F901895883109F486C078
:10052000803251F78093560114C0803409F49BC087
:1005300040F48033B9F38833F9F68093560185ECA3
:10054000AEC0803509F483C0883509F494C088347E
:1005500099F60E941701D0CF883909F48AC038F57E
:10056000883729F050F4883611F0803729F683E077
:10057000809357011092550155C0883809F479C00D
:10058000803919F0803809F0B7CF80915501803259
:1005900008F06FC0E091550181E08E0F8093550106
:1005A0008091BB00F0E0EB5CFE4F80833BC0803B62
:1005B00039F0D0F4803A09F477C0883A09F09CCF3A
:1005C00084E0809357011092340110923301F0E0DF
:1005D000E0E009958091330181110FC081E08093A3
:1005E00033011092130109C0803C09F4A8CF883C64
:1005F00009F4A5CF883B09F07FCFE091340181E079
:100600008E0F80933401F0E0ED5EFE4F8081809389
:10061000BB00909134018091330129C080917C010D
:100620008093BB0085EC8093BC0066CF90917B01EA
:1006300080917A01981758F5E0917B0181E08E0F47
:1006400080937B01F0E0E65AFE4F8081E9CFE09194
:100650007B0181E08E0F80937B018091BB00F0E0F5
:10066000E65AFE4F808390917B0180917A01981722
:10067000C8F285E8D8CFE0917B0181E08E0F8093AE
:100680007B018091BB00F0E0E65AFE4F80838091B1
:10069000590181115ECF81E08093580184EA8093F3
:1006A000BC001092570128CF85EC8093BC001092BB
:1006B000570180915501803230F4E0915501F0E00E
:1006C000EB5CFE4F10826091550170E085E391E094
:1006D000F0E0E0E00995109255010ECF109256011E
:1006E00038CF789484B5826084BD84B5816084BD40
:1006F00085B5826085BD85B5816085BD80916E00C0
:10070000816080936E0010928100809181008260F0
:10071000809381008091810081608093810080912D
:1007200080008160809380008091B100846080931C
:10073000B1008091B00081608093B00080917A0018
:10074000846080937A0080917A00826080937A003E
:1007500080917A00816080937A0080917A0080682D
:1007600080937A001092C100C0E0D0E02097F1F3AE
:0E0770000E940000FBCF0895F894FFCFFF0019
:107800000C94343C0C94513C0C94513C0C94513CE1
:107810000C94513C0C94513C0C94513C0C94513CB4
:107820000C94513C0C94513C0C94513C0C94513CA4
:107830000C94513C0C94513C0C94513C0C94513C94
:107840000C94513C0C94513C0C94513C0C94513C84
:107850000C94513C0C94513C0C94513C0C94513C74
:107860000C94513C0C94513C11241FBECFEFD8E036
:10787000DEBFCDBF11E0A0E0B1E0ECE9FFE702C060
:1078800005900D92A230B107D9F712E0A2E0B1E065
:1078900001C01D92AD30B107E1F70E942D3D0C945F
:1078A000CC3F0C94003C982F959595959595959582
:1078B000905D8F708A307CF0282F295A8091C0000B
:1078C00085FFFCCF9093C6008091C00085FFFCCF60
:1078D0002093C6000895282F205DF0CF982F809127
:1078E000C00085FFFCCF9093C6000895EF92FF92F1
:1078F0000F931F93EE24FF2487018091C00087FD22
:1079000017C00894E11CF11C011D111D81E4E8164B
:1079100082E4F8068FE0080780E0180770F3E09132
:107920000401F091050109958091C00087FFE9CF1E
:107930008091C6001F910F91FF90EF9008950E94D3
:10794000763C982F8091C00085FFFCCF9093C600B5
:1079500091362CF490330CF09053892F089597555D
:10796000892F08951F930E949F3C182F0E949F3CCF
:107970001295107F810F1F9108951F93182F882350
:1079800021F00E94763C1150E1F71F9108951F935A
:10799000182F0E94763C803249F0809103018F5F5E
:1079A000809303018530C1F01F9108958091C0003C
:1079B00085FFFCCF84E18093C6008091C00085FFE5
:1079C000FCCF1093C6008091C00085FFFCCF80E102
:1079D0008093C6001F910895E0910401F091050184
:1079E00009951F9108950E94763C803241F0809164
:1079F00003018F5F80930301853081F008958091AA
:107A0000C00085FFFCCF84E18093C6008091C00058
:107A100085FFFCCF80E18093C6000895E0910401CA
:107A2000F09105010995089540E951E08823A1F0FE
:107A30002D9A28EE33E0FA013197F1F721503040CA
:107A4000D1F72D9828EE33E0FA013197F1F7215064
:107A50003040D1F7815061F708953F924F925F9285
:107A60006F927F928F929F92AF92BF92CF92DF924E
:107A7000EF92FF920F931F93CF93DF93000080E16B
:107A80008093C4001092C50088E18093C10086E015
:107A90008093C2005098589A259A81E00E94143D24
:107AA00024E1F22E9EE1E92E85E9D82E0FE0C02ECA
:107AB00010E1B12EAA24A394B1E49B2EA6E58A2E50
:107AC000F2E57F2EE0E26E2E79E4572E63E5462E36
:107AD00050E5352E0E94763C8033B1F18133B9F107
:107AE000803409F46FC0813409F476C0823409F41B
:107AF00085C0853409F488C0803531F1823521F1A3
:107B0000813511F1853509F485C0863509F48DC0BC
:107B1000843609F496C0843709F403C1853709F423
:107B200072C1863709F466C0809103018F5F80932C
:107B30000301853079F6E0910401F0910501099582
:107B40000E94763C803351F60E94F33CC3CF0E94E2
:107B5000763C803249F78091C00085FFFCCFF092DF
:107B6000C6008091C00085FFFCCF9092C600809136
:107B7000C00085FFFCCF8092C6008091C00085FFC9
:107B8000FCCF7092C6008091C00085FFFCCF609250
:107B9000C6008091C00085FFFCCF5092C600809146
:107BA000C00085FFFCCF4092C6008091C00085FFD9
:107BB000FCCF3092C6008091C00085FFFCCFB09210
:107BC000C60088CF0E94763C863808F4BDCF0E945C
:107BD000763C0E94F33C7ECF0E94763C803809F4CC
:107BE0009CC0813809F40BC1823809F43CC1883942
:107BF00009F48FC080E00E94C73C6CCF84E10E94F2
:107C0000BD3C0E94F33C66CF85E00E94BD3C0E94D3
:107C1000F33C60CF0E94763C809306010E94763C44
:107C2000809307010E94F33C55CF0E94763C80333D
:107C300009F41DC183E00E94BD3C80E00E94C73C66
:107C400049CF0E94763C809309020E94763C809343
:107C5000080280910C028E7F80930C020E94763C79
:107C6000853409F415C18091080290910902892B8D
:107C700089F000E010E00E94763CF801E85FFE4FDA
:107C800080830F5F1F4F80910802909109020817AF
:107C9000190788F30E94763C803209F045CF809125
:107CA0000C0280FF01C16091060170910701660F0F
:107CB000771F7093070160930601A0910802B091AD
:107CC00009021097C9F0E8E0F1E09B01AD014E0F09
:107CD0005F1FF999FECF32BD21BD819180BDFA9A17
:107CE000F99A2F5F3F4FE417F50799F76A0F7B1F4B
:107CF00070930701609306018091C00085FFFCCF5F
:107D0000F092C6008091C00085FFFCCFB092C60003
:107D1000E1CE83E00E94C73CDDCE82E00E94C73CFA
:107D2000D9CE0E94763C809309020E94763C8093D3
:107D300008028091060190910701880F991F909386
:107D40000701809306010E94763C853409F4A6C0A1
:107D500080910C028E7F80930C020E94763C8032D0
:107D600009F0B8CE8091C00085FFFCCFF092C6002C
:107D7000609108027091090261157105B9F140E046
:107D800050E080910C02A82FA170B82FB27011C0E2
:107D9000BB2309F45CC0E0910601F0910701319624
:107DA000F0930701E09306014F5F5F4F46175707B7
:107DB000E8F4AA2369F3F999FECF209106013091E6
:107DC000070132BD21BDF89A90B58091C00085FFB2
:107DD000FCCF9093C6002F5F3F4F30930701209355
:107DE00006014F5F5F4F4617570718F38091C00099
:107DF00085FDE5CE8091C00085FFF8CFE0CE81E023
:107E00000E94C73C67CE0E94763C803209F08CCE3F
:107E10008091C00085FFFCCFF092C6008091C00029
:107E200085FFFCCFE092C6008091C00085FFFCCFAB
:107E3000D092C6008091C00085FFFCCFC092C600E2
:107E40008091C00085FFFCCFB092C60043CEE09188
:107E50000601F091070194918091C00085FFFCCF4D
:107E60009093C6009CCF80E10E94C73C33CE0E9415
:107E7000763C0E94763C182F0E94763C112309F430
:107E800083C0113009F484C08FE00E94C73C22CE29
:107E900080910C02816080930C02E5CE80910C02EF
:107EA000816080930C0259CF809107018823880F4D
:107EB000880B8A2180930B02809106019091070123
:107EC000880F991F90930701809306018091080203
:107ED00080FF09C080910802909109020196909359
:107EE000090280930802F894F999FECF1127E091D6
:107EF0000601F0910701C8E0D1E08091080290915D
:107F00000902103091F40091570001700130D9F34B
:107F100003E000935700E89500915700017001308D
:107F2000D9F301E100935700E89509901990009169
:107F3000570001700130D9F301E000935700E89534
:107F40001395103498F011270091570001700130FB
:107F5000D9F305E000935700E895009157000170B0
:107F60000130D9F301E100935700E895329602976A
:107F700009F0C7CF103011F00296E5CF112480919F
:107F8000C00085FFB9CEBCCE8EE10E94C73CA2CD19
:0E7F900085E90E94C73C9ECDF894FFCF80008B
:00000001FF
